:10000000AFC100000C9424140C944F140C947A1477
:100010000C94A5140C94D0140C94FB140C94261579
:100020000C945115CEC10000CCC10000CAC1000023
:10003000C8C100000C94921CC4C10000C2C10000E1
:10004000C0C10000BEC10000BCC10000BAC10000B8
:10005000B8C10000B6C10000B4C100000C947C150A
:10006000B0C100000C9429190C945F19AAC10000BA
:10007000A8C10000A6C10000A4C10000A2C10000E8
:10008000A0C100009EC100009CC100009AC10000F8
:100090000C94B5190C94EB1994C100000C94D22A5D
:1000A00090C100008EC100008CC100008AC1000018
:1000B00088C1000086C1000084C1000082C1000028
:1000C00080C100007EC100000C94171D0C94411AE1
:1000D0000C94771A76C100000C94CD1A0C94031B73
:1000E00070C10000AD16B216B716C116CB16441774
:1000F000D516DD16E516EF16F916031712171C179D
:100100004417261730173A1768176B175A175E17D8
:100110006417A2176F17731779177D178117871741
:100120008B178F17A217951799179D172125E12671
:100130004B274E2725265826E0240125C4242827AE
:10014000172724274E274E274E27AF2400000A0BDF
:1001500002090C0D0E080703040100000000000056
:10016000000000000000000000000000000000008F
:10017000000000000000000012111000000000004C
:10018000000000000000000000000000000000006F
:10019000000001021020200808102040102040809C
:1001A000020102010804020101020408102040803B
:1001B00080402010080402018004020180402010C9
:1001C0000804020108040201010204081020408012
:1001D00001020408102040800505050507050808F0
:1001E0000808020202020A0A0808040404040101C1
:1001F00001010101010103030303030303030407D6
:1002000007070C0C0C0C0C0C0C0C0202020206066C
:100210000606060606060B0B0B0B0B0B0B0B000062
:100220002200250028002B002E003100340002019E
:100230000000050108010B01000021002400270037
:100240002A002D00300033000101000004010701E5
:100250000A0102001D3A2774694E53E8F5D2CF9C7B
:1002600081A6BBCDD0F7EAB9A4839E25381F0251E1
:100270004C6B76879ABDA0F3EEC9D46F7255481BBC
:1002800006213C4A57706D3E230419A2BF9885D6BB
:10029000CBECF1130E2934677A5D40FBE6C1DC8FAD
:1002A00092B5A8DEC3E4F9AAB7908D362B0C1142A3
:1002B0005F78659489AEB3E0FDDAC77C61465B0880
:1002C00015322F5944637E2D30170AB1AC8B96C579
:1002D000D8FFE2263B1C01524F6875CED3F4E9BA31
:1002E000A7809DEBF6D1CC9F82A5B8031E39247759
:1002F0006A4D50A1BC9B86D5C8EFF24954736E3D40
:1003000020071A6C71564B1805223F8499BEA3F042
:10031000EDCAD735280F12415C7B66DDC0E7FAA92C
:10032000B4938EF8E5C2DF8C91B6AB100D2A37641A
:10033000795E43B2AF8895C6DBFCE15A47607D2EFB
:100340003314097F6245580B16312C978AADB0E300
:10035000FED9C4008819141AA01A2C1B981BDB297B
:1003600011241FBECFEFD1E2DEBFCDBF00E00CBF36
:1003700014E0A0E0B2E0EEECF1E600E00BBF02C05A
:1003800007900D92AA37B107D9F729E0AAE7B4E0A0
:1003900001C01D92AC31B207E1F711E0C0EBD1E032
:1003A00000E006C021970109802FFE010E94692FFD
:1003B000CA3AD10780E00807A9F70E94582C0C948C
:1003C000E5301ECE82EE97E00C945429CF92DF9256
:1003D000EF92FF920F931F93CF93DF931F92CDB7AE
:1003E000DEB7F82ED22E662389F0682F82EE97E0D2
:1003F00049830E945D294981642F82EE97E00E9423
:10040000162960E082EE97E00E9467294D2D6F2D3E
:1004100082EE97E00E94D92982EE97E00E94BB28E5
:10042000892B21F4F8012D2D30E017C07801CD2C57
:10043000D12C82EE97E00E94BB28892BB1F0C70136
:10044000801B910B8C159D0584F482EE97E00E9431
:10045000C328F70181937F01ECCFCF01801B910B63
:100460008217930714F41192F8CF0F90DF91CF9178
:100470001F910F91FF90EF90DF90CF900895FC01B6
:1004800091E02091E8083091E908232B09F090E0F1
:10049000918308954F925F926F927F928F929F9275
:1004A000AF92BF92CF92DF92EF92FF920F931F9382
:1004B000CF93DF9300D000D0CDB7DEB78091E808AE
:1004C0009091E90821E0009709F020E02093EA08E4
:1004D0000196803931E0930728F49093E9088093DE
:1004E000E80804C01092E9081092E808222381F07D
:1004F0008091B1089091B208A091B308B091B4086E
:100500008093F0089093F108A093F208B093F30859
:100510008E010F5F1F4F22E04CE061E086E356DF63
:10052000898190E0982F88272A818C01020F111D64
:100530000817190710F40FEF1FEF60914B0370912C
:100540004C03072E000C880B990B0E947C2D20E099
:1005500030E040E057E30E94D12E6B017C01809196
:10056000470390914803800F911FBC01990F880B9E
:10057000990B0E947C2D9B01AC01C701B6010E9422
:10058000D12E6B017C018090F0089090F108A09032
:10059000F208B090F3089B01AC01C501B4010E94C0
:1005A000E52C2B013C012091C2023091C302409105
:1005B000C4025091C5020E94D12E20913703309180
:1005C00038034091390350913A030E94D12E6B8336
:1005D0007C838D839E832091160330911703409175
:1005E000180350911903C501B4010E94CD2E87FD57
:1005F0001FC020911A0330911B0340911C0350919E
:100600001D03C701B6010E94CD2E87FD11C0809148
:10061000270390912803A0912903B0912A03809386
:10062000F4089093F508A093F608B093F70896C0E5
:100630002091BE023091BF024091C0025091C10290
:10064000C301B2010E94D12E2091A9083091AA08BD
:100650004091AB085091AC080E94E62C4B015C0124
:100660002091AD083091AE084091AF085091B0088C
:100670006B817C818D819E810E94E52C9B01AC0168
:10068000C501B4010E94E62C4B015C0110914E03A0
:10069000612F70E080E090E00E947C2D9B01AC0116
:1006A000C501B4010E94CD2E181684F010914F039D
:1006B000612F70E080E090E00E947C2D9B01AC01F6
:1006C000C501B4010E944A2D87FF08C0612F70E068
:1006D00080E090E00E947A2D4B015C01C501B401DD
:1006E0000E94B72D4B015C01FBD281110BC020E0B1
:1006F00030E040E853E4C501B4010E94D12D4B0124
:100700005C0103C0812C912C540120911E03309177
:100710001F0340912003509121036091F0087091D4
:10072000F1088091F2089091F3080E94CD2E87FD88
:100730000AC0C501B4010E944E2D70E080E090E037
:100740000E947C2D03C060E070E0CB016093F40850
:100750007093F5088093F6089093F7088090F4085A
:100760009090F508A090F608B090F70820E030E0EF
:1007700040E853E4C501B4010E944A2D87FF0EC032
:1007800020E030E0A901C501B4010E94CD2E87FD13
:1007900007C0C501B4010E944E2D03C06FEF01C018
:1007A00060E070E0809122030E94861680903F03F3
:1007B00090904003A0904103B0904203A5019401A2
:1007C000C701B6010E94CD2E181684F08090430315
:1007D00090904403A0904503B0904603A501940176
:1007E000C701B6010E944A2D87FF09C08092F80810
:1007F0009092F908A092FA08B092FB0808C0C09243
:10080000F808D092F908E092FA08F092FB0880917B
:10081000D8089091D908A091DA08B091DB088093AC
:10082000FC089093FD08A093FE08B093FF08209168
:10083000BA023091BB024091BC025091BD02C3018B
:10084000B2010E94D12E20912F03309130034091AC
:100850003103509132030E94D12E9B01AC01609173
:10086000A9087091AA088091AB089091AC080E94E9
:10087000E62C6093A9087093AA088093AB08909324
:10088000AC088B819C81AD81BE818093AD08909333
:10089000AE08A093AF08B093B00882E090E00E9449
:1008A000D0134091D8085091D9086091DA0870911E
:1008B000DB0880E090E00E94CC138090EB089090E1
:1008C000EC08A090ED08B090EE0820E030E040E8A1
:1008D0005FEBC501B4010E944A2D882331F1C0901D
:1008E000D808D090D908E090DA08F090DB08A7018A
:1008F0009601C501B4010E94E52C4B015C0120E08A
:1009000030E040E054E3C701B6010E94D12E9B01C4
:10091000AC01C501B4010E94CD2E181634F087E653
:1009200093E09093C3088093C2088091EF088823D6
:1009300031F087E693E09093C3088093C2088091DA
:10094000DC089091DD08A091DE08B091DF08BC01C1
:10095000CD016F5F7F4F8F4F9F4F6093DC08709387
:10096000DD088093DE089093DF080E947A2D2091A5
:10097000E0083091E1084091E2085091E3080E94BC
:10098000D12E6093D8087093D9088093DA08909399
:10099000DB0826960FB6F894DEBF0FBECDBFDF9101
:1009A000CF911F910F91FF90EF90DF90CF90BF906C
:1009B000AF909F908F907F906F905F904F90089531
:1009C000E091C108809150038E0F94E0E99FF001FF
:1009D0001124EA53FD4F408151816281738140931C
:1009E000B1085093B2086093B3087093B408909123
:1009F0002603981710F480914D038093C1086091ED
:100A0000E4087091E50880E090E00E947A2D20E0F3
:100A100030E040E850E40E94D12EAB01BC0181E0FF
:100A200090E00E94CC138091E4089091E508019633
:100A30009093E5088093E4080895EF92FF920F9356
:100A40001F93CF93DF9384E090E013D1E2ECF8E0C2
:100A50008EE2DF011D928A95E9F780E090E0A8E23E
:100A6000B3E481A792A7A3A7B4A78AE097EDA3E276
:100A7000BCE3868F978FA0A3B1A389E991E0AEE78D
:100A8000B8EF84839583A683B78382EC94E2A0E6D3
:100A9000B3EB80879187A287B3878AE998E9A9E2B7
:100AA000BAEC84879587A687B78783EE98E1A3EC95
:100AB000B5ED808B918BA28BB38BC6E9D4E0D38349
:100AC000C283ACE8B4E0B983A88387E094E01196D0
:100AD0009C938E9313969C938E93129715969C934A
:100AE0008E93149717969C938E93169719969C93B2
:100AF0008E93189786ED98E09D838C8386EC98E022
:100B00009B838A8388ED98E09F838E8380EF98E0B3
:100B100020E1EC0119922A95E9F729EAE22E28E072
:100B2000F22E29E1D7011D922A95E9F7AAE7B4E050
:100B300022E1ED0119922A95E9F7B58BA48B20E10A
:100B400030E011963C932E932AE932E013963C93C1
:100B50002E9312972AE732E015963C932E93149722
:100B60002EE432E017963C932E9316972AE032E05B
:100B700019963C932E9318970BE213E0F8014081ED
:100B8000518162817381DC014D935D936D937C9300
:100B9000139781E090E0A0E0B0E0E7018C8B9D8BA3
:100BA000AE8BBF8B61E0809122030E94A317F801F6
:100BB00080819181A281B38188879987AA87BB8729
:100BC0008091330390913403A0913503B0913603A3
:100BD00088839983AA83BB8380913B0390913C03D4
:100BE000A0913D03B0913E038C839D83AE83BF8370
:100BF00080915103888FDF91CF911F910F91FF90CA
:100C0000EF9008958091BD089091BE08A091BF0813
:100C1000B091C0080197A105B10561F482E090E0B0
:100C2000A0E0B0E08093BD089093BE08A093BF08F9
:100C3000B093C008089560E070E080E89FE70895F1
:100C400060E070E080E89FE7089560E070E080E891
:100C50009FEF089560E070E080E89FEF089560E006
:100C600070E080EC9FEF089560E070E080EC9FEF13
:100C70000895F5DF60930C0970930D0980930E09B8
:100C800090930F09F1DF609300097093010980933D
:100C9000020990930309CFDF609308097093090953
:100CA00080930A0990930B09CBDF6093040970933A
:100CB00005098093060990930709C7DF609310091F
:100CC000709311098093120990931309C3DF609305
:100CD00014097093150980931609909317090895C4
:100CE000CF93C1E09B01AC010E944A2D811101C04C
:100CF000C0E08C2FCF910895EF92FF920F931F9336
:100D0000CF93DF93DC01EA01F90114968D919C9158
:100D1000159712960D911C911397080F191F288192
:100D2000398118964D915C9119974217530728F015
:100D30004D915C911197452B39F17801E21AF30A34
:100D400018964D915C911997481B590B4E0D5F1DDC
:100D50004617570794F1A901460F571F401751072F
:100D6000E0F0F182E082338322836E197F0975837C
:100D70006483161617061CF4382F292F02C030E0A2
:100D800020E03683278313C018968D919C91199784
:100D9000821B930B8617970784F0718360833383DC
:100DA0002283158214821782168288819981680FA6
:100DB000791F7983688380E001C081E0DF91CF9162
:100DC0001F910F91FF90EF900895CF92DF92EF92D5
:100DD000FF92CF93DF936B017C0184E48C9DE00153
:100DE0008D9DD00D1124CE55DB4F8AA99BA900976C
:100DF00021F00E9434301BAA1AAA84E48C9DF001D1
:100E00008D9DF00D1124EE55FB4F86A997A90097F3
:100E100011F00E94343084E48C9DF0018D9DF00D22
:100E20001124EE55FB4F138A128A168A178A108EE8
:100E3000118E128E138E148E158E168E178E10A292
:100E400011A281E090E093A382A315A214A216A29E
:100E500017A210A611A613A612A615A614A616A6CA
:100E600017A610AA11AA13AA12AA15AA14AA17AA99
:100E700016AA11AE10AE12AE13AE14AE15AEDF014F
:100E8000DE961D921D921D921C921397EE5BFF4FF2
:100E900011821082DF91CF91FF90EF90DF90CF9081
:100EA00008950F931F93CF93DF93EB01DC018D9196
:100EB0009C91FC01A681B781E881F98123E0EE0FC6
:100EC000FF1F2A95E1F712962D913C911397E20F9F
:100ED000F31F00811181AC85BD859D01220F331F59
:100EE000DC0112968D919C911397D901A80FB91F1F
:100EF0008D919C9124813581232B19F461E070E060
:100F000002C062E070E0689F9001699F300D789F99
:100F1000300D112488859985289FB001299F700D77
:100F2000389F700D1124EC81FD812E9FC0012F9FF1
:100F3000900D3E9F900D1124800F911FFA01918317
:100F4000808373836283DF91CF911F910F91089506
:100F50002F923F924F925F926F927F928F929F92C9
:100F6000AF92BF92CF92DF92EF92FF920F931F93B7
:100F7000CF93DF9300D000D0CDB7DEB7DC0114965D
:100F8000ED91FC9115970190F081E02D8085918580
:100F90009A838983A281B381BC83AB83FB01819057
:100FA0009190A190B1908F01C12CD12C7601C814E1
:100FB000D904EA04FB040CF05FC0D80114964D90EC
:100FC0005D906D907C90179718964D915D916D9105
:100FD0007C911B97F8017096FE83ED83F801A08148
:100FE000B18183E0AA0FBB1F8A95E1F7E981FA81FD
:100FF00082819381A80FB91F2D903C901197F80121
:1010000024853585220F331F8B819C81280F391F42
:10101000F9010081118114968D919C911597892B6E
:1010200019F481E090E002C082E090E0809F90019E
:10103000819F300D909F300D1124249F8001259FAA
:10104000100D349F100D1124249DC001259D900D7D
:10105000349D900D1124A8016D817E81820D931D18
:101060000E94CC308D819E81080F191F9FEFC91AF5
:10107000D90AE90AF90A9BCF26960FB6F894DEBF83
:101080000FBECDBFDF91CF911F910F91FF90EF90D9
:10109000DF90CF90BF90AF909F908F907F906F9098
:1010A0005F904F903F902F900895CF93DF93DB0197
:1010B000AE5ABC4F2C91222369F024E4269FF00104
:1010C000279FF00D1124EE55FB4FEF0119922A9541
:1010D000E9F71C9224E4269FF001279FF00D1124CC
:1010E000EE55FB4F148215821682178211861086E8
:1010F00013861286118A108A17861686DF91CF9181
:1011000064CE2F923F924F925F926F927F928F9216
:101110009F92AF92BF92CF92DF92EF92FF920F9386
:101120001F93CF93DF93CDB7DEB728970FB6F89410
:10113000DEBF0FBECDBF6B017C011A0184E48C9D24
:1011400090018D9D300D11242E553B4FF901848166
:101150009581A681B781892B8A2B8B2B09F4B8C086
:10116000A12CB12C412C512C320138872F83C9017D
:1011700004969A838983D9011896BC83AB83E9814D
:10118000FA8180819181A281B381481659066A064D
:101190007B0694F5AB81BC81ED91FC91EA0DFB1DC2
:1011A000228133818901812C912C82149304C4F40F
:1011B000D801ED91FC91309769F0848195812D8360
:1011C0003E830E943430F801808191810E94343046
:1011D0003E812D81FFEF8F1A9F0A0E5F1F4FE5CFD3
:1011E000C9010E9434308FEF481A580A680A780AF9
:1011F00094E0A90EB11CC3CFAF81B88518968D912C
:101200009C9119970E943430EF81F88582859385EF
:10121000892B59F1A12CB12C812C912C84E48C9D2B
:1012200080018D9D100D112404551B4F82149304D1
:1012300084F4D801ED91FC91EA0DFB1D8481958128
:101240000E943430BFEF8B1A9B0AEEE0AE0EB11C49
:10125000EDCF84E48C9DF0018D9DF00D1124EE55B1
:10126000FB4F828593850E94343084E48C9D9001ED
:101270008D9D300D112489010E551B4FD8015096BC
:101280008D919C9151970E943430F8018685978505
:101290000E943430C701B60198DDC701B601289617
:1012A0000FB6F894DEBF0FBECDBFDF91CF911F9177
:1012B0000F91FF90EF90DF90CF90BF90AF909F90F5
:1012C0008F907F906F905F904F903F902F90EDCEDA
:1012D00028960FB6F894DEBF0FBECDBFDF91CF9139
:1012E0001F910F91FF90EF90DF90CF90BF90AF9044
:1012F0009F908F907F906F905F904F903F902F9036
:10130000089524E4269FF001279FF00D1124EE5547
:10131000FB4F828993890497029758F485E090E007
:10132000938B828B8FEF9FEFDC01828F938FA48F43
:10133000B58F08952F923F924F925F926F927F9256
:101340008F929F92AF92BF92CF92DF92EF92FF92D5
:101350000F931F93CF93DF93CDB7DEB7E0970FB610
:10136000F894DEBF0FBECDBF9AA389A31B016A010B
:101370002801390184E4849D8001859D100D11248C
:1013800098012E553B4F7901D9014D925D926D9296
:101390007C921397AB01C301B201B3DEF801EA55A9
:1013A000FB4FD6014D915D916D917D918D01CA01EB
:1013B000408351836283738364E070E00E94852FD1
:1013C000F70191878087892B09F499C11E8E1D8EA4
:1013D000198E1A8E1B8E1C8EF8A2EF8E97012C5F31
:1013E0003F4F38A72FA32C5F3F4F3AA729A7EFA164
:1013F000F8A580819181A281B381298D3A8D4B8D91
:101400005C8D281739074A075B070CF0E4C0A9A5D3
:10141000BAA58D919C912D8D3E8D280F391F3A8B49
:10142000298BD801ED91FC91EE0FFF1FA9A1BAA164
:101430008D919C91E80FF91F80819181F901918331
:101440008083D80114962D913D914D915C91179711
:101450002BA33CA34DA35EA3085F1F4F62E070E087
:10146000C1010E94852FE989FA8993838283892BA0
:1014700009F445C11D8A1E8A1F8A188E2D893E894E
:101480004F89588D8BA19CA1ADA1BEA1281739070A
:101490004A075B070CF08CC0D801ED90FC90EE0C75
:1014A000FF1CE989FA89C280D380CE0CDF1C68E07A
:1014B00070E081E090E00E94852FD6018D939C938F
:1014C000E989FA8982819381FC01EE0DFF1DC080BC
:1014D000D180C114D10409F412C1D80114964D91E0
:1014E0005D916D917C911797CA01F60140835183FC
:1014F00062837383085F1F4F64E070E00E94852F52
:10150000D60115969C938E931497892B09F4F7C0F6
:101510001C8A1B8A812C912C5401F60180819181B7
:10152000A281B38188169906AA06BB06A4F5F60126
:10153000E480F5802B893C89E20EF31EF801DE0180
:10154000119680E101900D928A95E1F7005F1F4F9F
:10155000A701BE016F5F7F4FA9A1BAA114968D911B
:101560009C9115979EDCF60126813781D701129652
:101570008D919C911397820F931F97838683BFEF62
:101580008B1A9B0AAB0ABB0A2B893C892C5F3F4F05
:101590003C8B2B8BC2CF2D893E894F89588D2F5F75
:1015A0003F4F4F4F5F4F2D8B3E8B4F8B588F66CFEA
:1015B000298D3A8D4B8D5C8D2F5F3F4F4F4F5F4F85
:1015C000298F3A8F4B8F5C8F2D8D3E8D2C5F3F4F37
:1015D0003E8F2D8F0CCF6EE070E0C1010E94852FF1
:1015E000AF8DB8A11B969C938E931A97812C912C4A
:1015F000A12CB12CC12CD12C24E4249DC001259D0B
:10160000900D11249C0124553B4F3A8B298B21E0EE
:1016100030E0A214B3040CF04AC0D8014D915D91A2
:101620006D917D918D01CA01E989FA89E080F1808F
:10163000E80CF91C57FD63C0D70111963C932E931B
:101640000097A1F02FA738AB4BA75CA76DA77EA78B
:101650000E949F2FF701958384832FA538A94BA55E
:101660005CA56DA57EA5892B31F449C0D7011596DF
:101670001C921E921497F7015383428384819581B3
:1016800097838683918780871386128681E090E016
:10169000452B462B472B11F480E090E0C80ED91E55
:1016A000FFEFAF1ABF0A4EE0840E911CB2CF84E464
:1016B000849D8001859D100D11240E551B4FD8016E
:1016C0001D961C921E921C97C60133E0880F991F2D
:1016D0003A95E1F70E949F2FF801918B808B892B1F
:1016E00071F0C601880F991F0E949F2FD8011F9685
:1016F0009C938E931E97892B11F080E005C0A10169
:10170000C301B201FEDC81E0E0960FB6F894DEBFC3
:101710000FBECDBFDF91CF911F910F91FF90EF9042
:10172000DF90CF90BF90AF909F908F907F906F9001
:101730005F904F903F902F9008952F923F924F923D
:101740005F926F927F928F929F92AF92BF92CF9251
:10175000DF92EF92FF920F931F93CF93DF93CDB75A
:10176000DEB768970FB6F894DEBF0FBECDBF9C8B77
:101770008B8BDB0149015A0124E4289DC001299D7E
:10178000900D11249C012E553B4F79012D913C91D8
:101790001197F701358B248BFC01E854FB4F14960D
:1017A0004D915D916D917C91179740835183628338
:1017B0007383FC01E454FB4F18964D915D916D913C
:1017C0007C911B974083518362837383FC01E054B7
:1017D000FB4F1C964D915D916D917C911F974083BD
:1017E000518362837383FC01E053FB4F50965C91FD
:1017F000509751964C91519752963C9152975396CF
:101800002C91539750834183328323838D010C5E47
:101810001F4F852F942F181619060CF068C0880FDB
:10182000991F880F991F0E949F2FD701D3969C93D1
:101830008E93D297892B09F4BCC0212C312C412CDA
:10184000512C32019701225D3F4F3E8B2D8B2C5F37
:101850003F4F388F2F8B2E5F3F4F3A8B298BB30131
:10186000A2012FEF421A520A620A720AED89FE891A
:1018700080819181A281B381481759076A077B074C
:101880004CF5AF89B88DCD90DC90C20CD31CF8011B
:10189000DE01119680E101900D928A95E1F7005FDB
:1018A0001F4FA601BE016F5F7F4FEB89FC898481CA
:1018B0009581F7DAA989BA898D919C911197F601E2
:1018C00022813381820F931F8D939C93F4E02F0E1E
:1018D000311CC5CFD701D4968D919C91D5970E948C
:1018E0009F2FF70197AB86AB892B09F462C0F801F3
:1018F00080819181A281B38124E4289DF001299DFA
:10190000F00D1124EE55FB4FAC01BD014D7F21E0E0
:1019100030E0452B462B472B11F020E030E033A37D
:1019200022A324E4289DF001299DF00D1124EE55F9
:10193000FB4F0197A109B10921E030E00297A10511
:10194000B10510F020E030E035A324A384E4889DA5
:10195000F001899DF00D1124CF0188539B4FD801D0
:1019600014964D915D916D917C911797DC014D938B
:101970005D936D937C931397EE55FB4F868D978DFA
:10198000A0A1B1A1B7FF10C0B095A0959095819589
:101990009F4FAF4FBF4F82AF93AFA4AFB5AF168E7F
:1019A000178E10A211A20AC012AE13AE14AE15AE5D
:1019B00005C0C501B40109DA81E001C080E0689684
:1019C0000FB6F894DEBF0FBECDBFDF91CF911F9150
:1019D0000F91FF90EF90DF90CF90BF90AF909F90CE
:1019E0008F907F906F905F904F903F902F900895D1
:1019F000CF92DF92EF92FF92CF93DF9310922A055E
:101A000024E4269FF001279FF00D1124EE55FB4F93
:101A100015A614A620E030E0C12CD12CDF011A96C7
:101A2000C1E0D0E0C416D506D4F4ED91FC91119735
:101A3000E20FF31FE280F3801E141F0454F4E480CD
:101A4000F580F782E682F186E08613861286D183DE
:101A5000C083EFEFCE1ADE0A225F3F4FE3CF24E4CC
:101A6000269FF001279FF00D1124EE55FB4F13A682
:101A700012A611AE10AEDF01DE961D921D921D92D0
:101A80001C92139782E090E0938B828BDF91CF9131
:101A9000FF90EF90DF90CF90089524E4269FF0010F
:101AA000279FF00D1124EE55FB4F138A128A29CB84
:101AB00024E4269FF001279FF00D1124EE55FB4FE3
:101AC0008289938981309105C8F08530910518F09D
:101AD000059769F008958FEF9FEFDC01828F938F58
:101AE000A48FB58F85E090E0938B828B08958FEF64
:101AF0009FEFDC01828F938FA48FB58F089524E42C
:101B0000249FF001259FF00D1124EE55FB4F2EE090
:101B1000AC01249FC001259F900D11240284F38500
:101B2000E02DE80FF91F81E080932A0582859385D7
:101B300091878087408551852681378181E090E0BB
:101B40004217530711F080E090E09183808308955D
:101B50002F923F924F925F926F927F928F929F92BD
:101B6000AF92BF92CF92DF92EF92FF920F931F93AB
:101B7000CF93DF93CDB7DEB7C255D1090FB6F89436
:101B8000DEBF0FBECDBF21969FAF8EAF21974BA773
:101B90005CA76DA77EA74801590184E4889D800158
:101BA000899D100D1124F801EE55FB4F22853385D8
:101BB00027963FAF2EAF279782899389029709F026
:101BC00060C186A597A5A0A9B1A9892B8A2B8B2BCB
:101BD00029F484E090E0938B828B53C184899589AA
:101BE00021964EAD5FAD21974817590709F049C1BD
:101BF00086A997A99AAB89AB1EAE1DAE19AE1AAED7
:101C00001BAE1CAE8F01DF019E962996BFAFAEAF13
:101C10002997F2962B96FFAFEEAF2B979801285C91
:101C20003F4F2D963FAF2EAF2D97A8014A5D5F4FD6
:101C30002F965FAF4EAF2F97C801829661969FAFE8
:101C40008EAF61971A976396BFAFAEAF6397299631
:101C5000EEADFFAD299780819181A281B38129AD3D
:101C60003AAD4BAD5CAD281739074A075B070CF05E
:101C7000E7C02B96EEADFFAD2B97808191812DAD06
:101C80003EAD280F391F3EAB2DABD90112960D90FA
:101C9000BC91A02D2396BFAFAEAF2397B695A79565
:101CA000B695A7952596BFAFAEAF25972D96EEAD0D
:101CB000FFAD2D9780819181892B09F496C02F96D5
:101CC000AEADBFAD2F97CD90DD90ED90FC9029A8E3
:101CD0003AA8F9010190F081E02DF8ABEFA718AE1A
:101CE0001FAA8FA998AD2596AEADBFAD25978A17CF
:101CF0009B070CF07AC06196AEADBFAD61978D9138
:101D00009C91892B69F1EFA5F8A9408051806280F0
:101D10007380A7019601C301B2010E94CD2E87FDF9
:101D20000BC0A7019601D1016D917D918D919C9180
:101D30000E944A2D87FD8CC0A7019601C301B20104
:101D40000E94CD2E181664F4A7019601F10160815E
:101D50007181828193810E944A2D882309F478C081
:101D60006396AEADBFAD63978D919C91892B69F160
:101D7000EFA5F8A94080518062807380A701960189
:101D8000C301B2010E944A2D87FF0BC0A701960133
:101D9000D1016D917D918D919C910E94CD2E87FFF7
:101DA00057C0A7019601C301B2010E944A2D8111BB
:101DB0000CC0A7019601F10160817181828193813C
:101DC0000E94CD2E18160CF443C02FA938AD2F5FFA
:101DD0003F4F38AF2FAB34E0230E311C4FA558A92D
:101DE0004C5F5F4F58AB4FA77CCFEDA9FEA9608138
:101DF000718123964EAD5FAD239789A99AA90E9460
:101E0000CC3025968EAD9FAD2597880F991F880FF2
:101E1000991F29A93AA9280F391F3AAB29AB89ADD7
:101E20009AADABADBCAD0196A11DB11D89AF9AAF06
:101E3000ABAFBCAFADADBEAD1496BEAFADAF07CFCF
:101E400081E090E0D801D9969C938E93D89719C0E1
:101E500084E4889DF001899DF00D1124EE55FB4F1F
:101E6000868D978DA0A1B1A1892B8A2B8B2B09F090
:101E700064C284E090E0938B828B86AD97AD93A78C
:101E800082A784E4889DF001899DF00D1124EE5510
:101E9000FB4F828993898230910571F482AD93ADB5
:101EA000A4ADB5AD181619061A061B060CF04CC2E7
:101EB000CC24C394D12C05C0049709F045C2C12C91
:101EC000D12C8EE02196EEADFFAD21978E9F700153
:101ED0008F9FF00C112427962EAD3FAD2797E20E71
:101EE000F31ED70112964D915C9113974115510540
:101EF00009F42AC216968D919C9117979AA789A7E3
:101F0000FE01319684E1DF011D928A95E9F7898A05
:101F10009A8AAB8ABC8AC114D10409F457C084E4FC
:101F2000889DF001899DF00D1124EE55FB4FDF01D6
:101F3000DE964D905D906D907C9082AD93ADA4AD9A
:101F4000B5AD481659066A067B0609F03FC0F70191
:101F5000648175810084F185E02D84819581A6815D
:101F6000B7819C018D8B9E8BAF8BB88F285F3F4FC5
:101F70003E8B2D8BD70118968D919C911997280F28
:101F8000391F19963C932E93189718968D919C9112
:101F90001997460F571F841B950B97FD06C0860F98
:101FA000971F19969C938E93189784E4889DF0014F
:101FB000899DF00D1124E052FB4FB1E04B1A5108FE
:101FC0006108710840825182628273829E012B5E99
:101FD0003F4FAE01475D5F4F64E170E0C7010E9473
:101FE0007C06082F10E00115110509F091C18CE065
:101FF00090E0A0E0B0E08D839E83AF83B8879E0120
:10200000235E3F4FAE01475D5F4F64E070E0C70164
:102010000E947C06082F10E00115110509F078C117
:1020200080E190E0A0E0B0E08D839E83AF83B8872D
:102030004D8D5E8DBE01655D7F4F8F8D98A10E9495
:10204000CC308BA19CA1009761F06D8D7E8DEBE271
:10205000F0E0EC0FFD1F6E0F7F1F49A15AA10E94F7
:10206000CC301DA21EA21FA218A621962EAD3FADF8
:102070002197220F331F38AF2FAB24E4289DC001D6
:10208000299D900D11248E559B4FAC014C5F5F4FE5
:102090005AAF49AFDC011896BEAFADAF2DA13EA13E
:1020A0004FA158A529AB3AAB4BAB5CABE9ADFAAD50
:1020B00080819181A281B381281739074A075B0784
:1020C0000CF0CFC0ADADBEADED91FC9189A99AA940
:1020D000880F991F880F991FE80FF91FA081B18100
:1020E0008C91882309F4AFC0833009F4ACC002801E
:1020F000F381E02D2FA938ADE20FF31F408151810C
:1021000058AB4FA7452B09F49EC089859A85AB85AE
:10211000BC850196A11DB11D89879A87AB87BC87B5
:102120009E01235E3F4FAE01475D5F4F64E070E06C
:10213000C7010E947C0690E0009709F0E8C08D81FD
:102140009E81AF81B8850496A11DB11D8D839E83AC
:10215000AF83B8874D8D5E8DBE016B5D7F4F8F8DD8
:1021600098A10E94CC308BA19CA1009761F06D8D4D
:102170007E8DA5E2B0E0AC0FBD1F6A0F7B1F49A1A9
:102180005AA10E94CC301EAA1DAA412C512C32010A
:10219000EFA5F8A980819181A281B38148165906E3
:1021A0006A067B060CF04FC0EFA5F8A924803580A5
:1021B0002DA93EA9220E331ED10112966D917C915C
:1021C00013979E01235E3F4FAE01475D5F4FC701EE
:1021D0000E947C0690E0009709F099C0F10182818D
:1021E0009381092E000CAA0BBB0B4D815E816F8180
:1021F0007885840F951FA61FB71F8D839E83AF839D
:10220000B887608171814D8D5E8D8F8D98A10E9400
:10221000CC308BA19CA1009759F0D1016D917C919C
:102220002D8D3E8D620F731F49A15AA10E94CC30A3
:10223000BFEF4B1A5B0A6B0A7B0AEDA9FEA9349625
:10224000FEABEDABA5CF49A85AA86BA87CA8FFEFC1
:102250004F1A5F0A6F0A7F0A4DA25EA26FA278A68C
:102260001DCF89859A85AB85BC85892B8A2B8B2BC5
:1022700009F44EC08AE190E0A0E0B0E089839A833F
:10228000AB83BC8321962EAD3FAD2197C901330F9F
:10229000AA0BBB0B8D879E87AF87B88B4D895E8954
:1022A000BE016F5F7F4F8F89988D0E94CC308B8DE0
:1022B0009C8D009761F06D897E8941E050E04C0F64
:1022C0005D1F640F751F498D5A8D0E94CC3089A502
:1022D0009AA5D70117969C938E93169711961C92E8
:1022E0001E92CD2889F184E4889DF001899DF00D2E
:1022F0001124E052FB4F80819181A281B38101962C
:10230000A11DB11D80839183A283B3831DC08C0165
:10231000CD28D1F4012BC1F084E4889DF001899D82
:10232000F00D1124EE55FB4F81E090E095A784A7B6
:1023300085E090E0938B828B07C083E090E0938BE5
:10234000828B81E090E09BCDCE5ADF4F0FB6F894A0
:10235000DEBF0FBECDBFDF91CF911F910F91FF90D8
:10236000EF90DF90CF90BF90AF909F908F907F9035
:102370006F905F904F903F902F900895CF92DF9293
:10238000EF92FF920F931F936B017C0184E48C9D6D
:10239000F0018D9DF00D1124EE55FB4F828993893C
:1023A000009709F450C00197B9F482A593A59C0148
:1023B0002F5F3F4F33A722A7092E000CAA0BBB0BA0
:1023C000028D138D248D358D80179107A207B307D9
:1023D000D1F5C701B6010CDB84E48C9DF0018D9D25
:1023E000F00D1124EE55FB4F82899389039759F51F
:1023F00082A593A59C012F5F3F4F33A722A7092EEB
:10240000000CAA0BBB0B468D578D60A171A18417E0
:102410009507A607B707BCF086AD97AD93A782A72F
:1024200084E090E0938B828B82AD93ADA4ADB5AD8B
:10243000181619061A061B0634F4EE5BFF4F81E0EE
:1024400090E0918380831F910F91FF90EF90DF9038
:10245000CF90089524E4269FF001279FF00D1124CA
:10246000EE55FB4F828993890497B1F482A593A519
:10247000019693A782A7092E000CAA0BBB0B4689D5
:102480005789608D718D84179507A607B70721F4CA
:1024900085E090E0938B828B08952F923F924F922C
:1024A0005F926F927F928F929F92AF92BF92CF92E4
:1024B000DF92EF92FF920F931F93CF93DF93CDB7ED
:1024C000DEB72E970FB6F894DEBF0FBECDBF49839F
:1024D0005A836B837C834901442E552E24E4249D2A
:1024E000F001259DF00D1124EE55FB4F2288338815
:1024F000910124503109158614862230310508F0E7
:10250000DDC0DC0111961C921E9213961C921E9245
:102510001297A12CB12C60E070E09F01265F3F4F25
:1025200038872F837F013CE0E30EF11CDF015096DA
:10253000BA87A9879F01225F3F4F3C872B87681589
:1025400079050CF06FC0EF81F885A081B1819D0104
:102550002A0D3B1D3E872D87D9012D913C91119766
:10256000232B09F059C018960D911C9119971296BA
:10257000ED91FC911397FE83ED8316962D913C917E
:102580001797D7014D915C91DA01E3E0AA0FBB1FC9
:10259000EA95E1F7E985FA85C080D180FD01EC0D6F
:1025A000FD1D440F551FAB85BC85CD90DC904C0DB7
:1025B0005D1DDA016D937C93D7014D915C9111976C
:1025C0004F5F5F4F4D935C9313830283AD85BE8550
:1025D0001B963C932E931A970217130748F4201B5F
:1025E000310B31832083158214821782168214C026
:1025F000AD85BE851496CD90DC9015974D815E819A
:102600004C0D5D1D401B510B518340832C193D091E
:1026100035832483D782C6826F5F7F4FBEE0AB0EC7
:10262000B11C8DCF24E4249D8001259D100D112423
:102630000E551B4FF80124853585DC0111963C931E
:102640002E934089518913965C934E931297468539
:10265000578515965C934E931497232BA1F5B5E0FF
:102660002B16310481F510922A05828D938DA48D4D
:10267000B58DAE014F5F5F4F64E070E08F3F9F4FBD
:10268000AF4FBF4F59F480E290E00E94AF206981C4
:102690007A818B819C81A40100DA15C08FE190E0E2
:1026A0000E94AF20D8019B961C921E929A9781E0BF
:1026B00090E053969C938E93529705C0FC01118233
:1026C0001082138212822E960FB6F894DEBF0FBED0
:1026D000CDBFDF91CF911F910F91FF90EF90DF90D1
:1026E000CF90BF90AF909F908F907F906F905F90B2
:1026F0004F903F902F900895EF92FF920F931F936A
:10270000CF93DF937C018B01EA010E94322181117A
:1027100021C08091540390915503049711F183E0F7
:1027200090E090935503809354031BC098819111BE
:10273000F0CF28ED38EB45E050E060E070E0CB01F1
:102740000E94BC23AE01B801C7010E94CA23C80180
:102750000E94952380912B0590912C05892B31F3B4
:10276000D8CFDF91CF911F910F91FF90EF900895F7
:10277000CF93DF93209154033091550324303105DA
:1027800041F0EB010E94CA23CE01DF91CF910C945E
:102790009523DF91CF9108950C94E0270C94D527D1
:1027A0000C94C3270C94A5230C946627089560E02D
:1027B00070E080E090E00C940D210895AF92BF92FC
:1027C000CF92DF92EF92FF920F931F93CF93DF93FD
:1027D0001F921F92CDB7DEB75C0169017A018B01B0
:1027E00080E090E0C114D104E104F104F1F0C114DF
:1027F000D10421E0E206F10410F4A60102C04FEF7B
:102800005FEF9E012F5F3F4FB801C5010E948128F5
:102810008F3F2FEF920749F029813A81C21AD30ADC
:10282000E108F108020F131FDDCF0F900F90DF9129
:10283000CF911F910F91FF90EF90DF90CF90BF90BD
:10284000AF900895089508951F920F920FB60F92BA
:1028500011240BB60F922F933F934F935F936F9377
:102860007F938F939F93AF93BF93EF93FF93E091E9
:102870005A03F0915B031995FF91EF91BF91AF91CE
:102880009F918F917F916F915F914F913F912F9188
:102890000F900BBE0F900FBE0F901F9018951F92B8
:1028A0000F920FB60F9211240BB60F922F933F93F6
:1028B0004F935F936F937F938F939F93AF93BF9348
:1028C000EF93FF93E0915C03F0915D031995FF9105
:1028D000EF91BF91AF919F918F917F916F915F9198
:1028E0004F913F912F910F900BBE0F900FBE0F9005
:1028F0001F9018951F920F920FB60F9211240BB6CE
:102900000F922F933F934F935F936F937F938F9388
:102910009F93AF93BF93EF93FF93E0915E03F0918A
:102920005F031995FF91EF91BF91AF919F918F91A7
:102930007F916F915F914F913F912F910F900BBEBF
:102940000F900FBE0F901F9018951F920F920FB609
:102950000F9211240BB60F922F933F934F935F93D7
:102960006F937F938F939F93AF93BF93EF93FF9357
:10297000E0916003F09161031995FF91EF91BF9190
:10298000AF919F918F917F916F915F914F913F9107
:102990002F910F900BBE0F900FBE0F901F901895A8
:1029A0001F920F920FB60F9211240BB60F922F9316
:1029B0003F934F935F936F937F938F939F93AF93C7
:1029C000BF93EF93FF93E0915603F091570319954E
:1029D000FF91EF91BF91AF919F918F917F916F91F7
:1029E0005F914F913F912F910F900BBE0F900FBEB3
:1029F0000F901F9018951F920F920FB60F921124EF
:102A00000BB60F922F933F934F935F936F937F93E8
:102A10008F939F93AF93BF93EF93FF93E0915803EE
:102A2000F09159031995FF91EF91BF91AF919F914B
:102A30008F917F916F915F914F913F912F910F9067
:102A40000BBE0F900FBE0F901F9018951F920F9204
:102A50000FB60F9211240BB60F922F933F934F9303
:102A60005F936F937F938F939F93AF93BF93EF93F6
:102A7000FF93E0916203F09163031995FF91EF9149
:102A8000BF91AF919F918F917F916F915F914F9186
:102A90003F912F910F900BBE0F900FBE0F901F9084
:102AA00018951F920F920FB60F9211240BB60F922A
:102AB0002F933F934F935F936F937F938F939F9346
:102AC000AF93BF93EF93FF93E0916403F09165039D
:102AD0001995FF91EF91BF91AF919F918F917F9148
:102AE0006F915F914F913F912F910F900BBE0F907F
:102AF0000FBE0F901F9018951F920F920FB60F9256
:102B000011242F933F938F939F93AF93BF93809103
:102B10002E0590912F05A0913005B091310530918F
:102B20002D0523E0230F2D3720F40196A11DB11DA3
:102B300005C026E8230F0296A11DB11D20932D0587
:102B400080932E0590932F05A0933005B093310507
:102B50008091320590913305A0913405B0913505EF
:102B60000196A11DB11D8093320590933305A0936A
:102B70003405B0933505BF91AF919F918F913F91EF
:102B80002F910F900FBE0F901F9018953FB7F8949C
:102B90008091320590913305A0913405B0913505AF
:102BA00026B5A89B05C02F3F19F00196A11DB11DA8
:102BB0003FBFBA2FA92F982F8827820F911DA11DE3
:102BC000B11DBC01CD0142E0660F771F881F991F20
:102BD0004A95D1F708958F929F92AF92BF92CF926C
:102BE000DF92EF92FF926B017C01D0DF4B015C0121
:102BF000C114D104E104F104F1F024DEC7DFDC01EB
:102C0000CB0188199909AA09BB09883E9340A105FF
:102C1000B10570F321E0C21AD108E108F10888EE8D
:102C2000880E83E0981EA11CB11CC114D104E104DC
:102C3000F10421F7DDCFFF90EF90DF90CF90BF90B0
:102C4000AF909F908F900895789484B5826084BDF2
:102C500084B5816084BD85B5826085BD85B58160A0
:102C600085BDEEE6F0E0808181608083E1E8F0E000
:102C70001082808182608083808181608083E0E82F
:102C8000F0E0808181608083E1EBF0E0808184600E
:102C90008083E0EBF0E0808181608083E1E9F0E017
:102CA000808182608083808181608083E0E9F0E0C0
:102CB000808181608083E1EAF0E0808182608083AE
:102CC000808181608083E0EAF0E0808181608083A0
:102CD000E1E2F1E080818260808380818160808395
:102CE000E0E2F1E0808181608083EAE7F0E08081CA
:102CF0008460808380818260808380818160808322
:102D00008081806880831092C10008951F93CF93C3
:102D1000DF93182FEB0161E016D1209711F460E0EA
:102D200004C0CF3FD10531F461E0812FDF91CF9115
:102D30001F9145C1E12FF0E0E45BFE4FE4914E2F7F
:102D400050E0FA013197E231F10508F09DC0882783
:102D5000EE58FF4F8F4F0C94692F84B5806884BD67
:102D6000C7BD97C084B5806284BDC8BD92C0809144
:102D70008000806880938000D0938900C093880091
:102D800088C080918000806280938000D0938B0007
:102D9000C0938A007EC0809180008860809380000C
:102DA000D0938D00C0938C0074C08091B000806877
:102DB0008093B000C093B3006CC08091B00080627B
:102DC0008093B000C093B40064C08091900080688C
:102DD00080939000D0939900C09398005AC080913E
:102DE0009000806280939000D0939B00C0939A00E3
:102DF00050C080919000886080939000D0939D0097
:102E0000C0939C0046C08091A00080688093A00081
:102E10008091A0008F7B8093A000D093A900C093E5
:102E2000A80037C08091A00080628093A000D0935A
:102E3000AB00C093AA002DC08091A0008860809351
:102E4000A000D093AD00C093AC0023C080912001BE
:102E5000806880932001D0932901C093280119C074
:102E600080912001806280932001D0932B01C09338
:102E70002A010FC080912001886080932001D093A7
:102E80002D01C0932C0105C0C038D1050CF04CCFEA
:102E900046CFDF91CF911F91089590E0FC013197CB
:102EA000E231F10508F04EC08827EC57FF4F8F4FF5
:102EB0000C94692F809180008F7703C080918000EF
:102EC0008F7D80938000089580918000877FF9CF67
:102ED00084B58F7702C084B58F7D84BD08958091BD
:102EE000B0008F7703C08091B0008F7D8093B000D9
:102EF0000895809190008F7707C0809190008F7D1A
:102F000003C080919000877F809390000895809106
:102F1000A0008F7707C08091A0008F7D03C08091B3
:102F2000A000877F8093A0000895809120018F7773
:102F300007C0809120018F7D03C080912001877F91
:102F4000809320010895CF93DF9390E0FC01EE562B
:102F5000FE4F2491FC01E852FE4F8491882361F1D9
:102F600090E0880F991FFC01E85CFD4FC591D4915A
:102F7000FC01E25EFD4FA591B491611109C09FB7BC
:102F8000F8948881209582238883EC912E230BC0AE
:102F9000623061F49FB7F8943881822F8095832343
:102FA0008883EC912E2B2C939FBF06C08FB7F8948B
:102FB000E8812E2B28838FBFDF91CF9108951F9337
:102FC000CF93DF93282F30E0F901E45BFE4F84912B
:102FD000F901EE56FE4FD491F901E852FE4FC4912B
:102FE000CC23C1F0162F811158DFEC2FF0E0EE0F4B
:102FF000FF1FE25EFD4FA591B4918FB7F8941111B8
:1030000005C09C91ED2FE095E92302C0EC91ED2BDA
:10301000EC938FBFDF91CF911F910895FC01918DAB
:10302000228D892F90E0805C9F4F821B91098F73C6
:1030300099270895FC01918D828D981731F0828D2A
:10304000E80FF11D858D90E008958FEF9FEF0895B3
:10305000FC01918D828D981761F0828DDF01A80FA0
:10306000B11D5D968C91928D9F5F9F73928F90E0C2
:1030700008958FEF9FEF0895FC01848DDF01A80F65
:10308000B11DA35ABF4F2C91848D90E001968F7390
:103090009927848FA689B7892C93A089B1898C91AF
:1030A00080648C93938D848D981306C00288F38975
:1030B000E02D80818F7D80830895CF93DF93EC0195
:1030C000888D8823C1F0EA89FB89808185FD05C050
:1030D000A889B9898C9186FD0EC00FB607FCF5CF83
:1030E000808185FFF2CFA889B9898C9185FFEDCFCA
:1030F000CE01C2DFE8CFDF91CF910895EF92FF922A
:103100000F931F93CF93DF93EC0181E0888F9B8D0A
:103110008C8D981305C0E889F989808185FD23C0CD
:10312000F62E0B8D10E00F5F1F4F0F731127E02E4F
:103130008C8DE8120BC00FB607FCFACFE889F9892D
:10314000808185FFF5CFCE0197DFF2CF8B8DFE0119
:10315000E80FF11DE35AFF4FF0820B8FEA89FB89DC
:103160008081806207C0EE89FF896083E889F989E0
:1031700080818064808381E090E0DF91CF911F9116
:103180000F91FF90EF900895CF92DF92EF92FF9210
:103190001F93CF93DF93EC016A017B01122FE88923
:1031A000F98982E080834115514E61057105B1F0C6
:1031B00060E079E08DE390E0A70196010E94472F3F
:1031C000DA01C9010197A109B109B695A7959795AB
:1031D0008795AC01411580E15807A8F0E889F98985
:1031E000108260E874E88EE190E0A70196010E94E9
:1031F000472FBA01A901415051096109710976951A
:10320000679557954795EC85FD855083EE85FF853D
:103210004083188EEC89FD891083EA89FB898081BF
:1032200080618083EA89FB89808188608083EA8964
:10323000FB89808180688083EA89FB8980818F7D1A
:103240008083DF91CF911F91FF90EF90DF90CF901F
:1032500008951F920F920FB60F9211240BB60F9282
:103260002F938F939F93EF93FF93E0914605F091F7
:1032700047058081E0914C05F0914D0582FD12C01B
:10328000908180914F058F5F8F7320915005821739
:1032900051F0E0914F05F0E0EA5CFA4F958F809392
:1032A0004F0501C08081FF91EF919F918F912F91E8
:1032B0000F900BBE0F900FBE0F901F9018951F928E
:1032C0000F920FB60F9211240BB60F922F933F93CC
:1032D0004F935F936F937F938F939F93AF93BF931E
:1032E000EF93FF9386E395E0C7DEFF91EF91BF91E7
:1032F000AF919F918F917F916F915F914F913F918E
:103300002F910F900BBE0F900FBE0F901F9018952E
:10331000E6E3F5E01382128288EE93E0A0E0B0E0ED
:1033200084839583A683B7838EE094E09183808322
:1033300085EC90E09587848784EC90E0978786877A
:1033400080EC90E0918B808B81EC90E0938B828B72
:1033500082EC90E0958B848B86EC90E0978B868B4B
:10336000118E128E138E148E08951F920F920FB627
:103370000F9211240BB60F922F938F939F93EF937D
:10338000FF93E091E305F091E4058081E091E90588
:10339000F091EA0582FD12C090818091EC058F5F6B
:1033A0008F732091ED05821751F0E091EC05F0E06C
:1033B000ED52FA4F958F8093EC0501C08081FF910B
:1033C000EF919F918F912F910F900BBE0F900FBE99
:1033D0000F901F9018951F920F920FB60F92112405
:1033E0000BB60F922F933F934F935F936F937F93FF
:1033F0008F939F93AF93BF93EF93FF9383ED95E0EC
:103400003BDEFF91EF91BF91AF919F918F917F91A3
:103410006F915F914F913F912F910F900BBE0F9045
:103420000FBE0F901F901895E3EDF5E01382128206
:1034300088EE93E0A0E0B0E084839583A683B78311
:103440008EE094E0918380838DEC90E09587848773
:103450008CEC90E09787868788EC90E0918B808B4E
:1034600089EC90E0938B828B8AEC90E0958B848B37
:103470008EEC90E0978B868B118E128E138E148EAD
:1034800008951F920F920FB60F9211240BB60F9250
:103490002F938F939F93EF93FF93E0918006F0918A
:1034A00081068081E0918606F091870682FD12C038
:1034B0009081809189068F5F8F7320918A06821791
:1034C00051F0E0918906F0E0E059F94F958F809333
:1034D000890601C08081FF91EF919F918F912F917B
:1034E0000F900BBE0F900FBE0F901F9018951F925C
:1034F0000F920FB60F9211240BB60F922F933F939A
:103500004F935F936F937F938F939F93AF93BF93EB
:10351000EF93FF9380E796E0AFDDFF91EF91BF91CE
:10352000AF919F918F917F916F915F914F913F915B
:103530002F910F900BBE0F900FBE0F901F901895FC
:10354000E0E7F6E01382128288EE93E0A0E0B0E0BC
:1035500084839583A683B7838EE094E091838083F0
:1035600085ED90E09587848784ED90E09787868746
:1035700080ED90E0918B808B81ED90E0938B828B3E
:1035800082ED90E0958B848B86ED90E0978B868B17
:10359000118E128E138E148E08951F920F920FB6F5
:1035A0000F9211240BB60F922F938F939F93EF934B
:1035B000FF93E0911D07F0911E078081E0912307A2
:1035C000F091240782FD12C09081809126078F5FC1
:1035D0008F7320912707821751F0E0912607F0E0C2
:1035E000E35FF84F958F8093260701C08081FF919C
:1035F000EF919F918F912F910F900BBE0F900FBE67
:103600000F901F9018951F920F920FB60F921124D2
:103610000BB60F922F933F934F935F936F937F93CC
:103620008F939F93AF93BF93EF93FF938DE097E0BA
:1036300023DDFF91EF91BF91AF919F918F917F918A
:103640006F915F914F913F912F910F900BBE0F9013
:103650000FBE0F901F901895EDE0F7E013821282D5
:1036600088EE93E0A0E0B0E084839583A683B783DF
:103670008EE094E09183808385E391E09587848751
:1036800084E391E09787868780E391E0918B808B3C
:1036900081E391E0938B828B82E391E0958B848B25
:1036A00086E391E0978B868B118E128E138E148E8B
:1036B00008958F929F92AF92BF92CF92DF92EF9236
:1036C000FF920F931F93CF93DF937C018B016C01CB
:1036D00082E0C80ED11C4701E5E08E0E911CC0E0CF
:1036E000D0E0F60161916F014AE050E0C801C6D018
:1036F0005C016EE2C80167D08A0D9B1DC80FD91FFF
:10370000C814D90471F74AE050E0F7016581C80197
:10371000B5D08C0F9D1FDF91CF911F910F91FF901E
:10372000EF90DF90CF90BF90AF909F908F900895D3
:10373000EAEAF7E08EE194E09183808312821382BB
:10374000148215820895CF92DF92EF92FF920F9329
:103750001F93CF93DF936C017A018B01C0E0D0E01F
:10376000CE15DF0589F0D8016D918D01D601ED915F
:10377000FC910190F081E02DC6011995892B11F47F
:103780007E0102C02196ECCFC701DF91CF911F913E
:103790000F91FF90EF90DF90CF9008956115710524
:1037A00079F0FB0101900020E9F73197AF01461B4A
:1037B000570BDC01ED91FC910280F381E02D19940F
:1037C00080E090E00895DC01ED91FC910190F081A2
:1037D000E02D19944F925F926F927F92EF92FF9239
:1037E0000F931F93CF93DF93CDB7DEB7A1970FB69B
:1037F000F894DEBF0FBECDBF7C01FA01CB0119A248
:10380000223008F42AE08E010F5D1F4F422E512C0A
:10381000612C712CBF01A30192010E94472FF90175
:10382000CA01015011096A3014F4605D01C0695C7D
:10383000D8016C93232B242B252B61F7B801C701EA
:10384000ADDFA1960FB6F894DEBF0FBECDBFDF91FE
:10385000CF911F910F91FF90EF907F906F905F90AD
:103860004F9008952115310541F4DC01ED91FC9153
:103870000190F081E02D642F1994ACCF9A01462F6E
:1038800050E060E070E0EECF8230A9F028F48823A9
:1038900049F0813051F00895843021F1E8F085300D
:1038A00039F1089510926E00089580916F008D7F18
:1038B00080936F000895809170008D7F80937000D9
:1038C00081E08093B0008091B100887F8460809314
:1038D000B1001092B3000895809171008D7F8093A4
:1038E00071000895809172008D7F80937200089519
:1038F000809173008D7F809373000895CF93C82FBC
:10390000809166038C1307C0E2E5F2E0E4918FEF4B
:103910008093660301C0EFEF8E2FB6DF60E08C2F3F
:10392000CF914DCB1F920F920FB60F9211240BB671
:103930000F922F933F934F935F936F937F938F9348
:103940009F93AF93BF93EF93FF938091B3079091B1
:10395000B407A091B507B091B607892B8A2B8B2BA2
:1039600051F18091B007E091B107F091B2079081D9
:10397000892780838091B3079091B407A091B50700
:10398000B091B607181619061A061B06BCF48091EA
:10399000B3079091B407A091B507B091B60701970E
:1039A000A109B1098093B3079093B407A093B50719
:1039B000B093B60703C080916603A0DFFF91EF913B
:1039C000BF91AF919F918F917F916F915F914F9137
:1039D0003F912F910F900BBE0F900FBE0F901F9035
:1039E000189540E05BE460E070E080E090E002D099
:1039F0000C94E2018130910571F01CF4892B39F0AF
:103A000008958230910559F0039769F0089526E0F2
:103A100086E395E00BC026E083ED95E007C026E045
:103A200080E796E003C026E08DE097E0ADCB1F92E3
:103A30000F920FB60F9211240BB60F922F933F9354
:103A40004F935F936F937F938F939F93AF93BF93A6
:103A5000EF93FF938FE89DEF9093250180932401CE
:103A60000E94002CFF91EF91BF91AF919F918F9198
:103A70007F916F915F914F913F912F910F900BBE6E
:103A80000F900FBE0F901F9018958FE89DEF9093A9
:103A9000250180932401A3E7B0E08C918E7F8C9365
:103AA000E0E2F1E080818C7F8083E1E2F1E08081DF
:103AB000877E808380818460808380818C7F808307
:103AC0008C9181608C93089581E008956F927F922C
:103AD0008F929F92AF92BF92CF92DF92EF92FF921E
:103AE0000F931F93CF93DF935C017B014A0101E0A9
:103AF00010E00E151F0564F568018FEFC81AD80A8B
:103B0000E801CC0FDD1FC80DD91D688079806114D4
:103B10007104E1F060E274E0C3010E94DC30892BA3
:103B200019F41982188212C063E274E0C3010E9482
:103B3000DC30892B59F4CE14DF0441F06801E2E057
:103B4000CE0ED11C198218821B821A828601D1CF17
:103B500081E0F5018083B401C7010E940B28F501C3
:103B60009283818380E090E0DF91CF911F910F914C
:103B7000FF90EF90DF90CF90BF90AF909F908F908D
:103B80007F906F90089587EB97E0089580E0089507
:103B90000F931F93CF93DF938B01BA01E901198231
:103BA00018829801012E000C440B550BFC018181F9
:103BB00092810E94DE13019621F01983088380E030
:103BC00001C081E0DF91CF911F910F9108950F9374
:103BD0001F93CF93DF931F921F92CDB7DEB7FB01E8
:103BE0008A01B9019E012F5F3F4FAF01FC01818126
:103BF00092810E942228019639F089819A81F801E8
:103C00009183808380E001C081E00F900F90DF916D
:103C1000CF911F910F910895FC018081089508951F
:103C2000089581E0FB01808380E00895089510925B
:103C3000E1070895FC01818192810C940228CF93C1
:103C4000DF93CDB7DEB72A970FB6F894DEBF0FBE6D
:103C5000CDBFAC01CB0160E070E049835A836B8338
:103C60007C83092E000CAA0BBB0B8D839E83AF8334
:103C7000B8879E01275F3F4FAE014F5F5F4F68E0FF
:103C800070E08091D0079091D10782DF811108C048
:103C900081E029853A852830310519F480E001C09A
:103CA00081E02A960FB6F894DEBF0FBECDBFDF913C
:103CB000CF9108950F931F93CF93DF931F921F927D
:103CC000CDB7DEB78B019E012F5F3F4FAC018091D6
:103CD000D0079091D1075CDF811108C081E0298174
:103CE0003A812017310719F480E001C081E00F907C
:103CF0000F90DF91CF911F910F910895CF93DF9394
:103D0000EC011092D4071092D3071092E0071092A2
:103D1000DF07AC0160E070E0CB010E944D0DAE0109
:103D200061E070E080E090E00E944D0D8091D0074E
:103D30009091D107DF91CF9179CF4F925F926F929F
:103D40007F928F929F92AF92BF92CF92DF92EF922B
:103D5000FF920F931F93CF93DF931F921F92CDB7C4
:103D6000DEB79C016C0197FF03C087E0C80ED11C31
:103D700043E0D594C7944A95E1F7C90168E070E043
:103D80000E94342F7C0189010E5F1F4F8091CE0766
:103D90009091CF07801791070CF0DCC08091CC0781
:103DA0009091CD07009731F00E9434301092CF07E8
:103DB0001092CE07C8010E949F2F9093CD07809349
:103DC000CC07892B29F01093CF070093CE07C2C0F0
:103DD000A12CB12CAC14BD040CF05EC0412C512CB4
:103DE000320100E010E098012B52384FAE014F5FD6
:103DF0005F4F61E070E08091D0079091D107E7DEDE
:103E0000811198C189819A812FEF421A520A620A60
:103E1000720A20E942162FE5520621E0620671047B
:103E20003CF06091DF077091E0078DEE90E02DC0CF
:103E3000080F191F0A30110551F549E050E060E004
:103E400070E085ED97E00E94AD286091DF077091EA
:103E5000E0078823C1F08091DD0790E068177907BB
:103E600009F0B8CF8EEE90E0EADE8091DF07909106
:103E7000E007019699279093E0078093DF078FEF83
:103E8000A81AB80AA7CF8FEE90E0D9DEA7CF0A30E4
:103E900011050CF4A8CF9ECFEF2809F44BC1C12C1B
:103EA000D12C760100E010E098012B52384FAE0182
:103EB0004F5F5F4F61E070E08091D0079091D10734
:103EC00086DE811137C189819A812FEFC21AD20A09
:103ED000E20AF20A20E9C2162FE5D20621E0E20644
:103EE000F1043CF06091DF077091E0078DEE90E007
:103EF0002AC0080F191F0A30110539F549E050E0B2
:103F000060E070E085ED97E00E94AD286091DF07EA
:103F10007091E0078823A9F08091DD0790E0681791
:103F2000790709F007C18EEE90E089DE8091DF0706
:103F30009091E007019699279093E0078093DF071F
:103F4000F9C08FEE90E07BDEAACF0A3011050CF4A9
:103F5000ABCFF0C000E010E00C151D050CF077C0F1
:103F6000412C512C3201A12CB12C480193E0880C3A
:103F7000991C9A95E1F72091CC073091CD07C401A7
:103F80008A0D9B1D280F391FAE014F5F5F4F61E007
:103F900070E08091D0079091D10719DE8111CAC0DD
:103FA00089819A812FEF421A520A620A720A20E925
:103FB00042162FE5520621E0620671043CF0609142
:103FC000DF077091E0078DEE90E034C0A80EB91EB7
:103FD0008AE0A816B104A9F549E050E0B401809147
:103FE000CC079091CD070E94AD286091DF077091BA
:103FF000E0078823E9F08091CC079091CD07FC0180
:10400000E80DF91D808590E06817790709F0A4CFC5
:104010008EEE90E014DE8091DF079091E00701962C
:1040200099279093E0078093DF070F5F1F4F94CF8E
:104030008FEE90E004DE412C512C3201A12CB12CEA
:104040009ACF2AE0A216B1040CF495CF85CFE114E3
:10405000F10409F46AC0680183E0CC0CDD1C8A9588
:10406000E1F7812C912C540100E010E098012B52D3
:10407000384FAE014F5F5F4F61E070E08091D00735
:104080009091D107A4DD811155C089819A812FEFCC
:10409000821A920AA20AB20A20E982162FE5920633
:1040A00021E0A206B1043CF06091DF077091E007C7
:1040B0008DEE90E034C0080F191F0A30110589F504
:1040C00049E050E060E070E085ED97E00E94AD28A7
:1040D0006091DF077091E0078823F9F08091DD0798
:1040E00090E06817790709F58EEE90E0A8DD8091E1
:1040F000CC079091CD07A70165ED77E08C0D9D1D54
:104100000E94CC308091DF079091E00701969927BB
:104110009093E0078093DF0708C08FEE90E08FDD7B
:10412000A0CF0A3011050CF4A1CF8091CC0790915B
:10413000CD0702C080E090E00F900F90DF91CF910B
:104140001F910F91FF90EF90DF90CF90BF90AF90B5
:104150009F908F907F906F905F904F900895CF9237
:10416000DF92EF92FF920F931F93CF93DF931F92F3
:10417000CDB7DEB76C017B018A01452B31F0AB0175
:1041800060E070E0C801E5D78983B701C60157DD5B
:1041900081110DC00115110551F0B701C8018ADD6B
:1041A000811105C061E070E0CE01019683DD0F90C2
:1041B000DF91CF911F910F91FF90EF90DF90CF9003
:1041C0000895CF92DF92EF92FF92CF93DF93CDB716
:1041D000DEB728970FB6F894DEBF0FBECDBF6B01D8
:1041E000E12CF12CC982DA82EB82FC822D833E83A2
:1041F0004F835887AE014F5F5F4F68E070E0AFDFDD
:1042000028960FB6F894DEBF0FBECDBFDF91CF91D9
:10421000FF90EF90DF90CF9008950F931F93CF936F
:10422000DF93EC018B01AFDC9093D1078093D00733
:10423000009739F0A801BE0149DCEC01892B19F483
:104240000BC0CFE2D4E08091D0079091D107E7DC9A
:104250001092D1071092D007CE01DF91CF911F911C
:104260000F9108958091D0079091D107D5CC2F92CE
:104270003F924F925F926F927F928F929F92AF92F6
:10428000BF92CF92DF92EF92FF920F931F93CF9343
:10429000DF93CDB7DEB769970FB6F894DEBF0FBED8
:1042A000CDBF2091D407222309F426C25D8B4C8B0D
:1042B000688B798B8A8B9B8B9A01AB01BC01CE01F9
:1042C00001960E944D1210E038E0232E312C898196
:1042D0009A81181619060CF00AC21F861E861D86C2
:1042E0001C8689819A81AC85BD85A817B9070CF019
:1042F000F3C1EB81FC812E853F85E20FF31F208106
:1043000031813093CB072093CA07848195819093A4
:10431000C9078093C807428153815093C7074093D0
:10432000C607468157815093C5074093C407820F43
:10433000931F9C01990F440B550B2E8B3F8B488F7D
:10434000598FC12CD12C76012E893F89488D598DEA
:10435000C216D306E406F50608F0A2C11F826091DA
:10436000CA077091CB078B01072E000C220B330B71
:10437000D701C6010496A11DB11D80179107A207A0
:10438000B30728F4E091C607F091C7070AC0E4E03C
:10439000F0E0E61BF70BEC0DFD1D8091C40790913A
:1043A000C507E80FF91F4080512C612C712CD701F3
:1043B000C6010596A11DB11D80179107A207B3077D
:1043C00028F4E091C607F091C7070AC0E5E0F0E0E5
:1043D000E61BF70BEC0DFD1D8091C4079091C507FE
:1043E000E80FF91F8081582AD701C6010696A11D42
:1043F000B11D80179107A207B30728F4E091C60703
:10440000F091C7070AC0E6E0F0E0E61BF70BEC0D01
:10441000FD1D8091C4079091C507E80FF91F8081A9
:10442000682AD701C6010796A11DB11D8017910703
:10443000A207B30728F4E091C607F091C7070AC0A6
:10444000E7E0F0E0E61BF70BEC0DFD1D8091C407E3
:104450009091C507E80FF91F8081782A460157011E
:1044600048E0840E911CA11CB11C081519052A05F1
:104470003B0508F4B4C0C016D106E206F30638F4D2
:104480008091C6079091C7078C0D9D1D09C0C6017C
:10449000861B970B2091C4073091C507820F931F8D
:1044A00068E070E007DCE091CA07F091CB079F015C
:1044B0000F2E000C440B550BD301C201880D991D22
:1044C000AA1DBB1D281739074A075B07C8F08216CB
:1044D0009306A406B50638F42091C6073091C707A5
:1044E000C601089609C0C1018E1B9F0B8C0D9D1D36
:1044F0002091C4073091C507820F931FB20199C064
:104500008601BF01685071096C197D0982169306F6
:10451000A406B50638F42091C6073091C707C60136
:10452000089609C0C1018E1B9F0B8C0D9D1D20910B
:10453000C4073091C507820F931FBCDB8091CA0767
:104540009091CB07B101681B790B600F711F640D4F
:10455000751D8091C4079091C507ACDB8091CA0797
:104560009091CB07AC0148505109FA01E01BF10BC7
:10457000AC01092E000C660B770B84169506A60677
:10458000B70638F42091C6073091C707C6010896D0
:104590000AC09101281B390BC9018C0D9D1D20916A
:1045A000C4073091C507820F931FAF0160E070E030
:1045B000D0D58F832091CA073091CB07A101421B30
:1045C000530B9A01200F311F240D351D40E050E0A0
:1045D000682F8091C4079091C507A7D550C0C01619
:1045E000D106E206F306C8F46C197D098091C6076E
:1045F0009091C7078C0D9D1D5DDB8091CA0790913E
:10460000CB07B101681B790B6C0D7D1D640D751D09
:104610008091C4079091C5070CC0C601861B970BFB
:104620002091C4073091C507B201685F7F4F820FA8
:10463000931F40DB8091CA079091CB07AC01092EF4
:10464000000C660B770B84169506A606B70638F4A1
:104650002091C6073091C707C60108960AC0D1014C
:10466000A81BB90BCD018C0D9D1D2091C407309165
:10467000C507820F931FA20160E070E06AD58F83A7
:1046800061E070E0CE01079615DB182FB8E04B0E05
:10469000511C611C711CC40CD51CE61CF71C54CEAB
:1046A0008C859D85880F991FED81FE81E80FF91F8C
:1046B000488959896A897B89808191810E947F0D0F
:1046C0004C855D854F5F5F4F5D874C878E859F85ED
:1046D00008969F878E8705CE2C893D894889598900
:1046E0006A897B89CE0101960E944D12F0CD11237B
:1046F00019F08C899D8902DB69960FB6F894DEBFAC
:104700000FBECDBFDF91CF911F910F91FF90EF9022
:10471000DF90CF90BF90AF909F908F907F906F90E1
:104720005F904F903F902F900895CF93DF93EC01CF
:10473000AC0160E070E0CB019ADDAE0161E070E0B9
:1047400080E090E0DF91CF9192CDCF938091D00720
:104750009091D1071BDAC82F81110BC060E070E087
:10476000CB010E94550861E070E080E090E00E947B
:1047700055088C2FCF9108950F931F9389019A01AB
:10478000AB01BC018091D0079091D10749DA1F910C
:104790000F9108953F924F925F926F927F928F9206
:1047A0009F92AF92BF92CF92DF92EF92FF920F93C0
:1047B0001F93CF93DF93CDB7DEB767970FB6F8940B
:1047C000DEBF0FBECDBF6C017B015A018091D407C3
:1047D000882331F08091D407882309F45FC30AC08D
:1047E00064ED77E08091D0079091D1071ADA8111BA
:1047F00055C3F0CF8091D3071A821982882309F418
:104800006AC0E0E94E2EEFE55E2E66246394712CBB
:1048100000E010E098012654384FAE014F5F5F4F23
:1048200061E070E08091D0079091D107D0D9982EA7
:1048300081114DC089819A81080F191F0115110539
:1048400009F445C081E0481A51086108710839F43B
:104850006091DF077091E0078DEE90E030C00A3084
:10486000110589F549E050E060E070E08AEB97E0DF
:1048700074D46091DF077091E0078823F1F0809194
:10488000C20790E068177907D9F48EEE90E0D7D987
:1048900088E0EAEBF7E0DE01199601900D928A9527
:1048A000E1F72091DF073091E0072F5F3F4F33277B
:1048B0003093E0072093DF070AC08FEE90E0BFD966
:1048C0001A82198204C00A3011050CF4A3CF81E0CA
:1048D00029813A8124C000E010E078E0672E712C35
:1048E00029E030E02C0F3D1F200F311FAE014F5F3C
:1048F0005F4FB301601B710B8091D0079091D1077E
:1049000066D9982E29813A81811108C0020F131FA0
:104910000115110519F00830110514F381E0121684
:1049200013060CF080E09110B6C2882309F4B6C2D9
:104930008091D307811104C019861A861B861C86B4
:1049400089859A85AB85BC858031910508F0A6C222
:10495000FC018827EA56FF4F8F4F0C94692FD60130
:104960001696ED91FC91179780819181A281B38178
:1049700089839A83AB83BC83AE014F5F5F4F64E052
:1049800070E085E190E07FC18D859E85D6D9009746
:1049900031F42FEF3FEFA90161E070E00EC0FC01A0
:1049A00080809180A280B380A701C501B4010E94DC
:1049B000F80CA501940160E070E08DE190E069C21F
:1049C0008D859E85BAD9009721F42FEF3FEFA9017D
:1049D00010C0DC018D909D90AD90BD90AD01950112
:1049E0008401B701C6010E949A09A5019401882398
:1049F00019F061E070E002C060E070E08BE190E0EF
:104A000048C28D859E8599D9009721F42FEF3FEFFD
:104A1000A9010FC0FC0181909190A190B190BF01BC
:104A2000A5019401C6010E949D0BA5019401882354
:104A300019F061E070E002C060E070E08CE190E0AD
:104A400028C2D6011496ED91FC9115970081118131
:104A5000F80182809380A080B18060E1462E512CC5
:104A6000612C712C49825A826B827C8288E090E0B2
:104A7000A0E0B0E08D839E83AF83B8879E012F5E58
:104A80003F4FAE014F5F5F4F68E070E08091D0070D
:104A90009091D1077DD8882319F000E010E0BBC0C9
:104AA00089899A890897C9F7D801ED90FC90B8E0F8
:104AB000EB0EF11CEE0CFF1CEE0CFF1CC7010E945C
:104AC0009F2F8C01892B49F349825A826B827C8209
:104AD000C7010F2C000CAA0BBB0B8D839E83AF83E9
:104AE000B8879E012F5E3F4FAE014F5F5F4F68E07A
:104AF00070E08091D0079091D1074AD881118BC086
:104B000089899A89089709F086C0D6011296ED9195
:104B1000FC9113974081518162817381D8014D933B
:104B20005D936D937C931397448155816681778162
:104B300014964D935D936D937C93179740855185A3
:104B40006285738518964D935D936D937C931B9747
:104B500084859585A685B785F80184879587A6877E
:104B6000B787108A118A128A138A84E090E0A0E045
:104B7000B0E0848B958BA68BB78B8091540390917A
:104B80005503A0E0B0E0808F918FA28FB38FC50155
:104B90000B2C000CAA0BBB0B848F958FA68FB78FA5
:104BA000F401D801909680E090E08A159B0554F4BA
:104BB0004191519160E070E04D935D936D937D93D1
:104BC0000196F3CF9E012F5E3F4FA801B701809160
:104BD000D0079091D1070E94C81D81111CC08989FE
:104BE0009A898E159F05B9F4A70160E070E0C801AD
:104BF000B0D28B8B9E012F5E3F4FAE014D5E5F4F5B
:104C000061E070E08091D0079091D1070E94C81DAB
:104C100081E08093D307C80167960FB6F894DEBF92
:104C20000FBECDBFDF91CF911F910F91FF90EF90FD
:104C3000DF90CF90BF90AF909F908F907F906F90BC
:104C40005F904F903F900C9434308D859E85AF855A
:104C5000B8890097A105B10521F481E08093D207BE
:104C60001DC16BD8009789F481E090E0A0E0B0E02E
:104C700089839A83AB83BC83AE014F5F5F4F64E04F
:104C800070E082E190E06BDA09C1BC01C6010E94CC
:104C9000A80719821A821B821C82AE014F5F5F4FE8
:104CA00064E070E082E190E05ADA8111F7C0D5CF7C
:104CB000D6011496ED91FC9115970190F081E02DAD
:104CC000008511858FEF89830115110509F472C0E4
:104CD000D8016D907C90A280B38020E030E060E04D
:104CE00070E080E090E0861597050CF5F801A28150
:104CF000B381A20FB31F1296ED91FC911397EE0FA3
:104D0000FF1FEA0DFB1D0190F081E02D16960D901E
:104D1000BC91A02DEA9FA001EB9F500DFA9F500D72
:104D20001124640F751F0196285F3F4FDCCF83E18C
:104D300090E00E941F1E8111B1C0C12CD12CE12C2A
:104D4000F12CE614F7047CF5D8011296ED91FC9154
:104D50001397EC0DFD1D80809180A281B381AA0F75
:104D6000BB1FAA0DBB1D2D913C9186819781289F69
:104D70002001299F500C389F500C1124B201C4010E
:104D80000E945A1E382E920140E050E06981C40111
:104D9000CCD18983B8E0CB0ED11C31107FC0EFEFAE
:104DA000EE1AFE0ACECF61E070E0CE0101960E94BD
:104DB0005A1E74C060E070E083E190E00E941F1E04
:104DC0006DC040E050E060E070E081E190E0C7D964
:104DD000811164C0812C912C5401C501B4010E9441
:104DE000810980912A05882321F0A701C501B4011A
:104DF0003EDAA701C501B4010E9481088A9489287E
:104E00008A288B2829F0812C912C54018394E5CF9A
:104E10001092D4071092D3071092E0071092DF0788
:104E20008091D0079091D1070E94171E37C081E072
:104E300090E090932C0580932B0540E050E060E0DB
:104E400070E086E190E01FCF81E0D5018C9326C011
:104E50008D859E850E949D1E009731F42FEF3FEFB8
:104E6000A90161E070E013C0FC0120813181428121
:104E70005381CA01B9012C8B3D8B4E8B5F8B0E94F5
:104E8000580D2C893D894E895F8960E070E08EE184
:104E900090E097D903C0C7010E947E1E67960FB6A7
:104EA000F894DEBF0FBECDBFDF91CF911F910F9160
:104EB000FF90EF90DF90CF90BF90AF909F908F903A
:104EC0007F906F905F904F903F900895CF92DF92C8
:104ED000EF92FF92CF93DF93EC01C12CD12C76019E
:104EE000C701B6010E948109AE01C701B601BFD951
:104EF000AE01C701B6010E9481088091CC07909154
:104F0000CD07009731F00E9434301092CD071092F7
:104F1000CC07CA94CD28CE28CF2829F0C12CD12C7B
:104F20007601C394DDCF8091D307882359F040E008
:104F300050E060E070E084E190E011D9F82E10922A
:104F4000D30701C0F12C8091D407882341F010923F
:104F5000D40781E090E090935503809354038091AF
:104F6000D0079091D1070E941A1E8091D00790918E
:104F7000D1070E940F1E8F2DDF91CF91FF90EF90F0
:104F8000DF90CF900895CF93DF93EC01AC0160E008
:104F900070E0CB010E94BE11AE0161E070E080E0E4
:104FA00090E0DF91CF910C94BE1160E070E0CB01F6
:104FB0000E942A1261E070E080E090E00C942A12D6
:104FC000CF92DF92EF92FF920F931F93CF93DF93D5
:104FD000EC016A017B0100E010E098010E94A80D3D
:104FE00001E010E020E030E0B701A601CE010E9410
:104FF000A80DDF91CF911F910F91FF90EF90DF905F
:10500000CF90089568EE73E080E090E00E94EB1589
:1050100080E090E0089526E040E050E16EE070E02E
:1050200086E395E00E94C41886E395E00E940E187E
:10503000892B29F086E395E00E942818F5CF80E0BF
:1050400090E00895AF92BF92CF92DF92EF92FF92DD
:105050000F931F93CF93DF931F921F92CDB7DEB7AD
:105060007A018901F9011182108286E395E0698352
:105070007A830E940E1869817A81892B99F15B01EC
:10508000DD24D39485E6C82E8091E107811124C0E8
:1050900086E395E00E94281885369105A9F7D092FD
:1050A000E107F501C1925F01F801808191810196CC
:1050B00091838083E9CF86E395E00E9428188F3F93
:1050C000FFEF9F0749F0F50181935F01F8018081AF
:1050D0009181019691838083F801808191818E1561
:1050E0009F0548F380E090E00F900F90DF91CF9103
:1050F0001F910F91FF90EF90DF90CF90BF90AF90F6
:1051000008950F931F93CF93DF93EA01890186E3FC
:1051100095E00E94A31BF801D183C08380E090E05A
:10512000DF91CF911F910F910895DC01A40FB51F5E
:10513000240F351FAD01481B590B4217530738F494
:10514000ED91E627F0E0ED5AFD4F6491F3CF862F05
:1051500008959A01AB016FEFE8CFCF93FC01E60F02
:10516000F71FE40FF51FC081F4DF91E0C81390E052
:10517000892FCF9108958091120890E02091130813
:10518000821B910908959091130880911208981735
:1051900050F4E92FF0E0EC5EF74F208130E09F5FA4
:1051A0009093130802C02FEF3FEFC9010895E091DB
:1051B000130880911208E81730F4F0E0EC5EF74F26
:1051C000808190E008958FEF9FEF08950895CF922A
:1051D000DF92EF92FF920F931F93CF93DF937C01A7
:1051E000262F972F8A018091EE07882391F0C62FF2
:1051F000D72F6E01C40ED51ECC15DD0569F069915F
:10520000D701ED91FC910190F081E02DC701199536
:10521000F3CF642F822F8ED1C801DF91CF911F91E0
:105220000F91FF90EF90DF90CF900895CF93DF9391
:105230001F92CDB7DEB769832091EE072223D1F00C
:105240002091EF07203240F021E030E0FC01338371
:10525000228380E090E014C08091F007E82FF0E016
:10526000EF50F84F998190838F5F8093F007809380
:10527000EF0704C061E0CE0101965CD181E090E0CF
:105280000F90DF91CF910895FC011382128288EE76
:1052900093E0A0E0B0E084839583A683B7838EE695
:1052A00094E091838083089510921308109212085D
:1052B0001092F0071092EF0781C081E08093EE0713
:1052C000609311081092F0071092EF0708950F9362
:1052D000062F21E04091EF0761EF77E08091110800
:1052E000D3D01092F0071092EF071092EE070F91B3
:1052F00008954F925F926F927F92AF92BF92CF923A
:10530000EF92FF920F931F93CF93DF935C01F62EE2
:10531000D42F28013901EE2011F1CFDFCE2DC4307A
:1053200008F0C3E0C150C0F0D501ED91FC91B8E0A8
:10533000CB9FC0011124A301920104C0569547954B
:10534000379527958A95D2F7CA01B9010190F08166
:10535000E02DC5011995E6CF60E0C501B8DF4D2FFE
:10536000D13208F040E22C2D64E178E08F2D44D05A
:105370001092130880931208DF91CF911F910F9123
:10538000FF90EF90CF90BF90AF907F906F905F9025
:105390004F900895CF92EF920F931F93C22EE12C5E
:1053A00000E010E09801A5DF1F910F91EF90CF90E2
:1053B000089521E0EFCF82EE97E066CF1092A1082A
:1053C00081E080939F0810929E0861E084E10E9432
:1053D000DF1761E085E10E94DF17E9EBF0E08081F3
:1053E0008E7F808380818D7F808388E48093B80066
:1053F00085E48093BC000895413208F043C0909149
:10540000A1089111FCCF91E09093A10820939F08EF
:105410002FEF2093340810927908240F20937808F6
:105420009093A0089091A008880F892B8093A008E2
:1054300080919E08813061F410929E088091A008AE
:105440008093BB008091BC0083FDF8CF85EC01C048
:1054500085EE8093BC008091A1088130E1F38091BA
:105460007908841710F4409179082AE738E0FB01A5
:10547000D9018A2F821B841718F48D918193F9CF5B
:10548000842F089580E008950F93413208F04AC0B8
:105490009091A1089111FCCF32E03093A1080093C4
:1054A0009F083FEF309334081092790840937808B2
:1054B000FB016AE778E0DB013A2F361B341718F45A
:1054C00031913D93F9CF1092A0083091A008880F38
:1054D000832B8093A00880919E08813061F4109204
:1054E0009E088091A0088093BB008091BC0083FD42
:1054F000F8CF85EC01C085EE8093BC00222321F01B
:105500008091A1088230D1F3809134088F3F79F0E7
:1055100080913408803241F080913408803331F03A
:1055200094E005C091E003C092E001C093E0892FB0
:105530000F91089540915608262F30E0240F311D19
:1055400021323105DCF42091A1082430C9F4FC019A
:1055500080E090E0861758F4309156082191DC01E4
:10556000A85AB74FA30FB11D2C930196F3CF80918A
:105570005608680F6093560880E0089581E008950A
:1055800082E0089585ED8093BC008091BC0084FD8D
:10559000FCCF1092A108089585EC8093BC00109276
:1055A000A10808951F920F920FB60F9211240BB607
:1055B0000F922F933F934F935F936F937F938F93AC
:1055C0009F93AF93BF93EF93FF938091B900887F30
:1055D000803609F49DC070F5883209F45CC090F4FF
:1055E000803109F455C038F4882309F4F3C08830B9
:1055F00009F44EC0F2C0883109F44DC0803209F47C
:105600005EC0EBC0803409F469C050F4803309F403
:1056100056C0883309F0E1C080933408BDDFDDC097
:10562000803509F44FC0883509F45DC0883409F02D
:10563000D4C0D2C0883909F4C3C0A8F4883709F4AB
:1056400067C038F4883609F463C0803709F460C055
:10565000C4C0883809F4B4C0803909F45FC0803808
:1056600009F0BBC05BC0803B09F482C038F4803ACB
:1056700009F466C0883A09F47BC0AFC0803C09F4E5
:10568000A3C0883C09F4A0C0883B09F486C0A5C02B
:105690008091A00810C0909179088091780898179F
:1056A00070F5E091790881E08E0F80937908F0E041
:1056B000E658F74F80818093BB0085EC82C08093D1
:1056C00034088AC0E091790881E08E0F80937908D0
:1056D0008091BB00F0E0E658F74F80839091790805
:1056E000809178086AC0E091790881E08E0F8093FC
:1056F00079088091BB00F0E0E658F74F80838091F5
:105700009F08811169C081E080939E0884EA5DC092
:1057100083E08093A10810923508CFCF809135089F
:10572000803208F04DC0E091350881E08E0F809303
:1057300035088091BB00F0E0EA5CF74F8083BDCF75
:105740002BDF80913508803230F4E0913508F0E0AD
:10575000EA5CF74F10826091350870E0E0919A089A
:10576000F0919B0886E398E019951092350835C0B2
:1057700084E08093A1081092570810925608E09197
:105780009C08F0919D08199580915608811105C0DB
:1057900081E08093560810925808E091570881E004
:1057A0008E0F80935708F0E0E85AF74F808180937E
:1057B000BB009091570880915608981708F47DCF48
:1057C00085E88093BC0009C085EC8093BC001092F2
:1057D000A10803C010923408D5DEFF91EF91BF916C
:1057E000AF919F918F917F916F915F914F913F9179
:1057F0002F910F900BBE0F900FBE0F901F9018951A
:10580000CF93DF931F921F92CDB7DEB78091A5088B
:1058100091E0980F9093A508882349F021E030E0AB
:105820003093A8082093A7088093A5083CC0CE0118
:1058300001960E943F0278940E944A02F894809157
:10584000A50881508093A5088A81882389F08091DA
:10585000A40891E0980F9093A408882349F021E0D0
:1058600030E03093A8082093A7088093A4081BC0B9
:105870008091A4088823A9F08091A608811113C003
:1058800081E08093A60878940E94E004F8948091C7
:10589000A40881508093A4088091A6088150809329
:1058A000A6080E94CE130F900F90DF91CF9108951C
:1058B000FF920F931F93CF93DF931F921F92CDB749
:1058C000DEB7FF24F394FA820E9424160E94F11C92
:1058D0000091080410910904F8011182108260E01F
:1058E00070E080E090E00E94D7130E941D0578943C
:1058F000C80189960E94D61382E090E00E94D213DC
:105900001982AE014F5F5F4F62E070E0F801828163
:1059100093810E947C138981882311F0F801F5A6F8
:105920000E94DD13F8940E94451DF8018081918149
:10593000892B19F481E095A5911180E08A837894F0
:105940007894FF24F3948A81882371F11982AE013F
:105950004F5F5F4F62E070E0F801828193810E94A7
:10596000B8138981882311F0F801F5A6F801808128
:105970009181892B31F481E095A5911103C080E0DC
:1059800001C081E08093A2089091A20881E091116A
:1059900080E08A838A81882319F00E94641D02C0F6
:1059A00080E090E08A83CFCF82E090E00E94D41321
:1059B0000E940206F89480E090E00F900F90DF9133
:1059C000CF911F910F91FF9008955058BB27AA27A0
:1059D0000ED092C183D130F088D120F031F49F3FB6
:1059E00011F41EF478C10EF4E095E7FB45C1E92FF0
:1059F00094D180F3BA17620773078407950718F0EC
:105A000071F49EF5C3C10EF4E0950B2EBA2FA02DB4
:105A10000B01B90190010C01CA01A0011124FF275B
:105A2000591B99F0593F50F4503E68F11A16F04056
:105A3000A22F232F342F4427585FF3CF4695379555
:105A40002795A795F0405395C9F77EF41F16BA0B1A
:105A5000620B730B840BBAF09150A1F0FF0FBB1FC8
:105A6000661F771F881FC2F70EC0BA0F621F731F11
:105A7000841F48F4879577956795B795F7959E3F6E
:105A800008F0B3CF9395880F08F09927EE0F9795FC
:105A900087950895CDD008F481E0089546D188F027
:105AA0009F5790F0B92F9927B751A0F0D1F0660F0A
:105AB000771F881F991F1AF0BA95C9F712C0B13025
:105AC00081F064D1B1E0089561C1672F782F8827F4
:105AD000B85F39F0B93FCCF3869577956795B39564
:105AE000D9F73EF490958095709561957F4F8F4FD3
:105AF0009F4F0895E89409C097FB3EF490958095D8
:105B0000709561957F4F8F4F9F4F9923A9F0F92F83
:105B100096E9BB279395F695879577956795B79501
:105B2000F111F8CFFAF4BB0F11F460FF1BC06F5FE7
:105B30007F4F8F4F9F4F16C0882311F096E911C0F9
:105B4000772321F09EE8872F762F05C0662371F01A
:105B500096E8862F70E060E02AF09A95660F771F2E
:105B6000881FDAF7880F9695879597F90895F7D0EB
:105B700080F09F3740F491110EF009C160E070E0B1
:105B800080E89FEB089526F41B16611D711D811D91
:105B900079C093C0A3D018F011F0A7D038F49BC0FF
:105BA000F6C0E92FBAD0B0F35523C9F3E7FB62176B
:105BB000730784079507A8F199F3E92FFF27882336
:105BC0002AF03197660F771F881FDAF7952F552730
:105BD000442332F091505040220F331F441FD2F71C
:105BE000BB27E91BF50B621B730B840BB109C1F2D8
:105BF00022F4620F731F841FB11D31972AF0660FC4
:105C0000771F881FBB1FEFCF915050405AF041F0D3
:105C1000882332F0660F771F881F91505040C1F7DC
:105C200093954BC08695779567959F5FD9F7F8CF89
:105C3000990F0008550FAA0BE0E8FEEF161617069D
:105C4000E807F907C0F012161306E407F50798F005
:105C5000621B730B840B950B39F40A2661F0232B1E
:105C6000242B252B21F408950A2609F4A140A6959A
:105C70008FEF811D811D089597F99F6780E870E07F
:105C800060E00895882371F4772321F09850872BE2
:105C9000762F07C0662311F499270DC09051862BEB
:105CA00070E060E02AF09A95660F771F881FDAF798
:105CB000880F9695879597F908959F3F31F09150F9
:105CC00020F4879577956795B795880F911D9695E0
:105CD000879597F908959FEF80EC089500240A9422
:105CE0001616170618060906089500240A941216B7
:105CF0001306140605060895092E0394000C11F4EA
:105D0000882352F0BB0F40F4BF2B11F460FF04C096
:105D10006F5F7F4F8F4F9F4F089557FD9058440FEF
:105D2000551F59F05F3F71F04795880F97FB991FFA
:105D300061F09F3F79F087950895121613061406B7
:105D4000551FF2CF4695F1DF08C016161706180644
:105D5000991FF1CF86957105610508940895E5DFD7
:105D6000A0F0BEE7B91788F4BB279F3860F4161679
:105D7000B11D672F782F8827985FF7CF8695779585
:105D80006795B11D93959639C8F30895E894BB279C
:105D900066277727CB0197F908954ADF08F48FEF3C
:105DA00008950BD0A9CF9ADF28F09FDF18F0952334
:105DB00009F062CF90CF1124EACFAFDFA0F3959F17
:105DC000D1F3950F50E0551F629FF001729FBB27E2
:105DD000F00DB11D639FAA27F00DB11DAA1F649F8E
:105DE0006627B00DA11D661F829F2227B00DA11D41
:105DF000621F739FB00DA11D621F839FA00D611DC7
:105E0000221F749F3327A00D611D231F849F600DE7
:105E1000211D822F762F6A2F11249F5750408AF020
:105E2000E1F088234AF0EE0FFF1FBB1F661F771FAC
:105E3000881F91505040A9F79E3F510570F01CCF2C
:105E4000A6CF5F3FECF3983EDCF386957795679598
:105E5000B795F795E7959F5FC1F7FE2B880F911DCA
:105E60009695879597F9089597FB072E16F4009459
:105E700006D077FD08D035D007FC05D03EF49095CC
:105E800081959F4F0895709561957F4F0895A1E288
:105E90001A2EAA1BBB1BFD010DC0AA1FBB1FEE1FA4
:105EA000FF1FA217B307E407F50720F0A21BB30BEF
:105EB000E40BF50B661F771F881F991F1A9469F76B
:105EC00060957095809590959B01AC01BD01CF01C7
:105ED0000895EE0FFF1F881F8BBF0790F691E02DEE
:105EE0001994AA1BBB1B51E107C0AA1FBB1FA61711
:105EF000B70710F0A61BB70B881F991F5A95A9F773
:105F000080959095BC01CD0108950F931F93CF9379
:105F1000DF93869F8001879F100D969F100D11249F
:105F2000C8010DD0EC01009721F0A80160E070E0FD
:105F30003CD1CE01DF91CF911F910F910895CF9366
:105F4000DF938230910510F482E090E0E0911A092D
:105F5000F0911B0920E030E0C0E0D0E0309711F173
:105F60004081518148175907C0F04817590761F41B
:105F700082819381209719F09B838A832BC0909311
:105F80001B0980931A0926C02115310519F0421703
:105F9000530718F49A01BE01DF01EF010280F3817B
:105FA000E02DDCCF2115310509F1281B390B2430F8
:105FB000310590F412968D919C911397611571059E
:105FC00021F0FB019383828304C090931B0980938B
:105FD0001A09FD01329644C0FD01E20FF31F8193BF
:105FE0009193225031092D933C933AC02091180986
:105FF00030911909232B41F42091020230910302C0
:106000003093190920931809209100023091010260
:106010002115310541F42DB73EB74091040250914E
:106020000502241B350BE0911809F0911909E217BC
:10603000F307A0F42E1B3F0B2817390778F0AC01AB
:106040004E5F5F4F2417350748F04E0F5F1F509388
:106050001909409318098193919302C0E0E0F0E0A0
:10606000CF01DF91CF9108950F931F93CF93DF93CB
:10607000009709F48CC0FC013297138212820091C0
:106080001A0910911B090115110581F42081318134
:10609000820F931F20911809309119092817390789
:1060A00079F5F0931909E093180971C0D80140E01F
:1060B00050E0AE17BF0750F412962D913C91139704
:1060C000AD012115310509F1D901F3CF9D01DA01A7
:1060D0003383228360817181860F971F8217930714
:1060E00069F4EC0128813981260F371F2E5F3F4F5D
:1060F000318320838A819B8193838283452B29F47A
:10610000F0931B09E0931A0942C01396FC93EE9397
:106110001297ED01499159919E01240F351FE21705
:10612000F30771F480819181840F951F0296119677
:106130009C938E938281938113969C938E93129756
:10614000E0E0F0E0D80112968D919C9113970097B2
:1061500019F0F8018C01F6CF8D919C9198012E5F7A
:106160003F4F820F931F209118093091190928176A
:10617000390769F4309729F410921B0910921A0913
:1061800002C0138212821093190900931809DF913B
:10619000CF911F910F910895FB01DC0102C0019086
:1061A0000D9241505040D8F70895DC0101C06D9325
:1061B00041505040E0F70895FB01DC018D910190C2
:0E61C00080190110D9F3990B0895F894FFCFC0
:1061CE0000001C0980000100000008000E02BA0247
:1061DE00000000001A002203070000000100260341
:1061EE000300000001002703000000000800470321
:1061FE0004000000010049030500000001004B03EC
:10620E000E00000001004D03030000000500050014
:10621E005202F008000000000400A908000000006F
:10622E000300B5080B0000000400BD080F000000BD
:10623E000100C1080300000001007B0382038C03F0
:10624E008B03940393039D039C03A503AF03BA032F
:10625E00C003CA03D3039403E70304000400010040
:10626E00010002000200040004000100040002000C
:10627E00020004000800020004002AF6FF40D315B5
:10628E00A840000000000000A040000020410000D7
:10629E00C841000020420000484200009642000023
:1062AE00B4420000BE420000C8420000BE420000E0
:1062BE00B442000096420000484200002042000016
:1062CE00C841000020410000A0400000BE42000076
:1062DE00A0400000A0410000C4420000C4420000E3
:1062EE00803F03000000130000F042000000000A8F
:1062FE00D7233C000000000000C842000000000050
:10630E0000C84200000000B6F90100674000FF001F
:10631E000100010101002314231423142314231458
:10632E00231423142314FF53696D756C6174696F04
:10633E006E2066696E6973686564007265616C5F74
:10634E0054007265616C33325F540075696E743837
:10635E005F540075696E7431365F540075696E74E2
:10636E0033325F5400626F6F6C65616E5F5400660E
:10637E00636E5F63616C6C5F5400696E745F540092
:10638E00706F696E7465725F5400616374696F6ECD
:10639E005F540074696D65725F75696E7433325F38
:1063AE00706169725F5400636F64657274617267C5
:1063BE0065745F61726475696E6F626173655F6942
:1063CE006E7465725F540001C208000000007E18F2
:1063DE00A31B0E1828181A185D1800000000591B70
:1063EE002D77002D69676E6F72652D6172670043A0
:1063FE006F756C64206E6F742063726561746520B6
:10640E0065787465726E616C206D6F64652075734E
:10641E00657220646174612E20204F7574206F6642
:10642E00206D656D6F72792E0A000000000016292E
:0A643E00E728BB28C328D728E6286A
:00000001FF
