:10000000AFC100000C94E4140C940F150C943A1535
:100010000C9465150C9490150C94BB150C94E61576
:100020000C941116CEC10000CCC10000CAC1000062
:10003000C8C100000C94521DC4C10000C2C1000020
:10004000C0C10000BEC10000BCC10000BAC10000B8
:10005000B8C10000B6C10000B4C100000C943C1649
:10006000B0C100000C94E9190C941F1AAAC1000039
:10007000A8C10000A6C10000A4C10000A2C10000E8
:10008000A0C100009EC100009CC100009AC10000F8
:100090000C94751A0C94AB1A94C100000C94922B1A
:1000A00090C100008EC100008CC100008AC1000018
:1000B00088C1000086C1000084C1000082C1000028
:1000C00080C100007EC100000C94D71D0C94011B60
:1000D0000C94371B76C100000C948D1B0C94C31B31
:1000E00070C100006D177217771781178B170418EE
:1000F00095179D17A517AF17B917C317D217DC1798
:100100000418E617F017FA1728182B181A181E18D3
:10011000241862182F18331839183D184118471839
:100120004B184F186218551859185D18E125A1276A
:100130000B280E28E5261827A025C1258425E827A9
:10014000D727E4270E280E280E286F2500000A0B5B
:1001500002090C0D0E080703040100000000000056
:10016000000000000000000000000000000000008F
:10017000000000000000000012111000000000004C
:10018000000000000000000000000000000000006F
:10019000000001021020200808102040102040809C
:1001A000020102010804020101020408102040803B
:1001B00080402010080402018004020180402010C9
:1001C0000804020108040201010204081020408012
:1001D00001020408102040800505050507050808F0
:1001E0000808020202020A0A0808040404040101C1
:1001F00001010101010103030303030303030407D6
:1002000007070C0C0C0C0C0C0C0C0202020206066C
:100210000606060606060B0B0B0B0B0B0B0B000062
:100220002200250028002B002E003100340002019E
:100230000000050108010B01000021002400270037
:100240002A002D00300033000101000004010701E5
:100250000A0102001D3A2774694E53E8F5D2CF9C7B
:1002600081A6BBCDD0F7EAB9A4839E25381F0251E1
:100270004C6B76879ABDA0F3EEC9D46F7255481BBC
:1002800006213C4A57706D3E230419A2BF9885D6BB
:10029000CBECF1130E2934677A5D40FBE6C1DC8FAD
:1002A00092B5A8DEC3E4F9AAB7908D362B0C1142A3
:1002B0005F78659489AEB3E0FDDAC77C61465B0880
:1002C00015322F5944637E2D30170AB1AC8B96C579
:1002D000D8FFE2263B1C01524F6875CED3F4E9BA31
:1002E000A7809DEBF6D1CC9F82A5B8031E39247759
:1002F0006A4D50A1BC9B86D5C8EFF24954736E3D40
:1003000020071A6C71564B1805223F8499BEA3F042
:10031000EDCAD735280F12415C7B66DDC0E7FAA92C
:10032000B4938EF8E5C2DF8C91B6AB100D2A37641A
:10033000795E43B2AF8895C6DBFCE15A47607D2EFB
:100340003314097F6245580B16312C978AADB0E300
:10035000FED9C400481AD41A601BEC1B581C9B2AF7
:1003600011241FBECFEFD1E2DEBFCDBF00E00CBF36
:1003700019E0A0E0B2E0E8EEF2E600E00BBF02C058
:1003800007900D92A43EB107D9F72EE0A4EEB9E094
:1003900001C01D92AB39B207E1F711E0C0EBD1E02B
:1003A00000E006C021970109802FFE010E94F62F70
:1003B000CA3AD10780E00807A9F70E94182D0C94CB
:1003C00072311ECE8EE49DE00C94142ACF92DF92FF
:1003D000EF92FF920F931F93CF93DF931F92CDB7AE
:1003E000DEB7F82ED22E662389F0682F8EE49DE0CA
:1003F00049830E941D2A4981642F8EE49DE00E945A
:10040000D62960E08EE49DE00E94272A4D2D6F2DB5
:100410008EE49DE00E94992A8EE49DE00E947B2953
:10042000892B21F4F8012D2D30E017C07801CD2C57
:10043000D12C8EE49DE00E947B29892BB1F0C7016D
:10044000801B910B8C159D0584F48EE49DE00E9429
:100450008329F70181937F01ECCFCF01801B910BA2
:100460008217930714F41192F8CF0F90DF91CF9178
:100470001F910F91FF90EF90DF90CF90089560E073
:1004800070E080E89FE7089560E070E080E89FE713
:10049000089560E070E080E89FEF089560E070E00C
:1004A00080E89FEF089560E070E080EC9FEF089592
:1004B00060E070E080EC9FEF0895F5DF6093210E1F
:1004C0007093220E8093230E9093240EF1DF60939D
:1004D000150E7093160E8093170E9093180ECFDFA3
:1004E00060931D0E70931E0E80931F0E9093200E2E
:1004F000CBDF6093190E70931A0E80931B0E9093AE
:100500001C0EC7DF6093250E7093260E8093270E76
:100510009093280EC3DF6093290E70932A0E809368
:100520002B0E90932C0E0895CF93C1E09B01AC014C
:100530000E94172E811101C0C0E08C2FCF91089529
:10054000FC0191E02091680E3091690E232B09F097
:1005500090E0918308952F923F924F925F926F9215
:100560007F928F929F92AF92BF92CF92DF92EF9243
:10057000FF920F931F93CF93DF93CDB7DEB72797EB
:100580000FB6F894DEBF0FBECDBF8091680E90917C
:10059000690E21E0009709F020E020936A0E019691
:1005A000843F31E0930728F49093690E8093680E9E
:1005B00004C01092690E1092680E1092700E109284
:1005C000710E1092720E1092730E222381F08091A0
:1005D000840E9091850EA091860EB091870E809327
:1005E000740E9093750EA093760EB093770E8E01D5
:1005F0000F5F1F4F22E04CE061E086E3E7DE898178
:1006000090E0982F88272A818C01020F111D08176E
:10061000190710F40FEF1FEF6091780370917903C1
:10062000072E000C880B990B0E944E2E20E030E024
:1006300040E057E30E945E2F6B017C0180917603BE
:1006400090917703800F911FBC01990F880B990B34
:100650000E944E2E9B01AC01C701B6010E945E2F85
:100660004B015C016093780E7093790E80937A0E43
:1006700090937B0E4090740E5090750E6090760EA5
:100680007090770E20911D0330911E0340911F033F
:1006900050912003C301B2010E945E2FA501940175
:1006A0000E94B22D2091250330912603409127030B
:1006B000509128030E945E2F2091800E3091810E70
:1006C0004091820E5091830E0E94B32D7B018C01CC
:1006D00020914D0330914E0340914F0350915003B0
:1006E000C301B2010E945A2F87FD1FC02091510300
:1006F000309152034091530350915403C501B4010A
:100700000E945A2F87FD11C080915E0390915F0374
:10071000A0916003B091610380937C0E90937D0E55
:10072000A0937E0EB0937F0E44C0A0904903B0907A
:100730004A03C0904B03D0904C039501A601B7012A
:10074000C8010E945A2F181694F0A0902903B09067
:100750002A03C0902B03D0902C039501A601B7016A
:10076000C8010E94172E87FD02C057016801209121
:100770005503309156034091570350915803C301DC
:10078000B2010E945A2F87FF04C060E070E0CB01E5
:1007900004C060E070E080E89FE39501A6010E943C
:1007A0005E2F60937C0E70937D0E80937E0E9093EF
:1007B0007F0E80907C0E90907D0EA0907E0EB0906B
:1007C0007F0E20E030E040E853E4C501B4010E9410
:1007D000172E87FF0EC020E030E0A901C501B4014B
:1007E0000E945A2F87FD07C0C501B4010E94202E28
:1007F00003C06FEF01C060E070E0809159030E9478
:10080000461720916E0330916F0340917003509111
:100810007103B701C8010E945E2F6B837C838D83B7
:100820009E838090490390904A03A0904B03B09020
:100830004C03A5019401B701C8010E945A2F181654
:1008400084F08090290390902A03A0902B03B0900D
:100850002C03A5019401B701C8010E945A2F87FFFC
:1008600036C0A5019401B701C8010E94B22D4B0109
:100870005C0120E030E0A9010E94172E87FD8BC1AA
:1008800020E030E0A901C501B4010E945A2F1816DA
:100890000CF488C120E030E0A901C501B4010E9438
:1008A000172E882309F485C1C090210ED090220E06
:1008B000E090230EF090240E20E030E040E053E47E
:1008C000C701B6010E94172E87FF0CC005C0C12CBE
:1008D000D12C760146015701C701B6010E941B2E9B
:1008E000162F01C01FE72091780E3091790E4091AC
:1008F0007A0E50917B0E6091740E7091750E8091FE
:10090000760E9091770E0E94B22D209121033091A6
:10091000220340912303509124030E945E2F2B0158
:100920003C0120E030E0A9010E94172E87FD1BC08A
:1009300020E030E0A901C301B2010E945A2F18162D
:10094000CCF020E030E0A901C301B2010E94172ED3
:100950008823B9F0C090210ED090220EE090230E93
:10096000F090240E11C0C12CD12C30E8E32E3FEBC7
:10097000F32E0AC0C12CD12C20E8E22E2FE3F22E58
:1009800003C0C12CD12C7601C701B601CDDD811188
:1009900028C020E030E040E853E4C701B6010E94DF
:1009A000902E6B017C01062F3D2C2E2CFF82A50181
:1009B00094016B817C818D819E810E94172E8823FA
:1009C000A9F120E030E0A901C701B6010E94172E6D
:1009D00087FF15C0C701B60190580E94202E61956F
:1009E00014C0A50194016B817C818D819E810E9440
:1009F000172E8823D9F000E0312C212C1F82602F84
:100A0000732D822D9F810E94202E062E000C770BC5
:100A1000812F110F990B6817790741F440907203E9
:100A20005090730360907403709075032091660377
:100A3000309167034091680350916903C301B2018B
:100A40000E945E2F9B01AC016091800E7091810E1F
:100A50008091820E9091830E0E94B32D6093800E40
:100A60007093810E8093820E9093830E82E090E0CB
:100A70000E9490144091580E5091590E60915A0E58
:100A800070915B0E80E090E00E948C1480906B0E61
:100A900090906C0EA0906D0EB0906E0E20E030E045
:100AA00040E85FEBC501B4010E94172E882331F1A5
:100AB000C090580ED090590EE0905A0EF0905B0EF8
:100AC000A7019601C501B4010E94B22D4B015C0142
:100AD00020E030E040E054E3C701B6010E945E2F01
:100AE0009B01AC01C501B4010E945A2F181634F0C5
:100AF00082E993E090932E0E80932D0E80916F0EDD
:100B0000882331F082E993E090932E0E80932D0E8E
:100B100080915C0E90915D0EA0915E0EB0915F0E83
:100B2000BC01CD016F5F7F4F8F4F9F4F60935C0E75
:100B300070935D0E80935E0E90935F0E0E944C2E1C
:100B40002091600E3091610E4091620E5091630EC3
:100B50000E945E2F6093580E7093590E80935A0E28
:100B600090935B0E27960FB6F894DEBF0FBECDBFF5
:100B7000DF91CF911F910F91FF90EF90DF90CF9079
:100B8000BF90AF909F908F907F906F905F904F90AD
:100B90003F902F900895C12CD12C90E8E92E9FEB27
:100BA000F92E9ACEC12CD12C80E8E82E8FE3F82EB6
:100BB00093CEC12CD12C76018FCEE091960E8091F0
:100BC0007B038E0F94E0E99FF0011124E35DFC4F5D
:100BD00040815181628173814093840E5093850ED0
:100BE0006093860E7093870E90915D03981710F4B2
:100BF00080917A038093960E6091640E7091650ED9
:100C000080E090E00E944C2E20E030E040EA50E48A
:100C10000E945E2FAB01BC0181E090E00E948C1429
:100C20008091640E9091650E01969093650E80936D
:100C3000640E0895CF92DF92EF92FF920F931F936D
:100C4000CF93DF9384E090E038DCEDE2FEE083E4D4
:100C5000DF011D928A95E9F780E090E0A0E1B2E41F
:100C600080936B0E90936C0EA0936D0EB0936E0EEE
:100C70008AE097EDA3E2BCE383AB94ABA5ABB6AB44
:100C800082EF94EEA7E5B6EF818F928FA38FB48F9A
:100C900088E192E1A3E4B0ED858F968FA78FB0A392
:100CA00087E292EEA8ECBFE481A392A3A3A3B4A32E
:100CB00080E69AEDAFECB7E485A396A3A7A3B0A70F
:100CC000C0E0DAE0D383C283A6EFB9E0B983A8839A
:100CD00082E394E011969C938E9313969C938E934B
:100CE000129715969C938E93149717969C938E93B8
:100CF000169719969C938E93189786E59EE09D8390
:100D00008C8386E49EE09B838A8388E59EE09F83B4
:100D10008E8384E7E82E8EE0F82E8CE0E7011992AE
:100D20008A95E9F790E8C92E9EE0D92E87E1D60191
:100D30001D928A95E9F71092700E1092710E109222
:100D4000720E1092730EA4EEB9E082E1ED011992D9
:100D50008A95E9F7B2A7A1A780E190E011969C934C
:100D60008E938AE892E013969C938E9312978AE66C
:100D700092E015969C938E9314978EE392E01796CB
:100D80009C938E9316978AE092E019969C938E938B
:100D9000189755D002E613E0F80180819181A28175
:100DA000B381E70188839983AA83BB8381E090E0C4
:100DB000A0E0B0E0F601828B938BA48BB58B61E051
:100DC000809159030E946318E80188819981AA8162
:100DD000BB81F60184839583A683B78380916A03E0
:100DE00090916B03A0916C03B0916D03808391830C
:100DF000A283B38380917C03868BDF91CF911F9177
:100E00000F91FF90EF90DF90CF9008958091920E18
:100E10009091930EA091940EB091950E0197A1051B
:100E2000B10561F482E090E0A0E0B0E08093920E22
:100E30009093930EA093940EB093950E0895E09125
:100E40003304F091340481E08483AAEAB2E0B683EB
:100E5000A583D7961C921E92D69785EE92E0948732
:100E600083878CE09AE0968B858B148A138A16868A
:100E70001586108A17860895EF92FF920F931F939D
:100E8000CF93DF93DC01EA01F90114968D919C91D7
:100E9000159712960D911C911397080F191F288111
:100EA000398118964D915C9119974217530728F094
:100EB0004D915C911197452B39F17801E21AF30AB3
:100EC00018964D915C911997481B590B4E0D5F1D5B
:100ED0004617570794F1A901460F571F40175107AE
:100EE000E0F0F182E082338322836E197F097583FB
:100EF0006483161617061CF4382F292F02C030E021
:100F000020E03683278313C018968D919C91199702
:100F1000821B930B8617970784F07183608333835A
:100F20002283158214821782168288819981680F24
:100F3000791F7983688380E001C081E0DF91CF91E0
:100F40001F910F91FF90EF900895CF92DF92EF9253
:100F5000FF92CF93DF936B017C0184E48C9DE001D1
:100F60008D9DD00D1124C25FD54F8AA99BA90097F2
:100F700021F00E94C1301BAA1AAA84E48C9DF001C2
:100F80008D9DF00D1124E25FF54F86A997A900977A
:100F900011F00E94C13084E48C9DF0018D9DF00D14
:100FA0001124E25FF54F138A128A168A178A108E6F
:100FB000118E128E138E148E158E168E178E10A211
:100FC00011A281E090E093A382A315A214A216A21D
:100FD00017A210A611A613A612A615A614A616A649
:100FE00017A610AA11AA13AA12AA15AA14AA17AA18
:100FF00016AA11AE10AE12AE13AE14AE15AEDF01CE
:10100000DE961D921D921D921C921397EE5BFF4F70
:1010100011821082DF91CF91FF90EF90DF90CF90FF
:1010200008950F931F93CF93DF93EB01DC018D9114
:101030009C91FC01A681B781E881F98123E0EE0F44
:10104000FF1F2A95E1F712962D913C911397E20F1D
:10105000F31F00811181AC85BD859D01220F331FD7
:10106000DC0112968D919C911397D901A80FB91F9D
:101070008D919C9124813581232B19F461E070E0DE
:1010800002C062E070E0689F9001699F300D789F18
:10109000300D112488859985289FB001299F700DF6
:1010A000389F700D1124EC81FD812E9FC0012F9F70
:1010B000900D3E9F900D1124800F911FFA01918396
:1010C000808373836283DF91CF911F910F91089585
:1010D0002F923F924F925F926F927F928F929F9248
:1010E000AF92BF92CF92DF92EF92FF920F931F9336
:1010F000CF93DF9300D000D0CDB7DEB7DC011496DC
:10110000ED91FC9115970190F081E02D80859185FE
:101110009A838983A281B381BC83AB83FB018190D5
:101120009190A190B1908F01C12CD12C7601C8145F
:10113000D904EA04FB040CF05FC0D80114964D906A
:101140005D906D907C90179718964D915D916D9183
:101150007C911B97F8017096FE83ED83F801A081C6
:10116000B18183E0AA0FBB1F8A95E1F7E981FA817B
:1011700082819381A80FB91F2D903C901197F8019F
:1011800024853585220F331F8B819C81280F391FC1
:10119000F9010081118114968D919C911597892BED
:1011A00019F481E090E002C082E090E0809F90011D
:1011B000819F300D909F300D1124249F8001259F29
:1011C000100D349F100D1124249DC001259D900DFC
:1011D000349D900D1124A8016D817E81820D931D97
:1011E0000E9459318D819E81080F191F9FEFC91AE6
:1011F000D90AE90AF90A9BCF26960FB6F894DEBF02
:101200000FBECDBFDF91CF911F910F91FF90EF9057
:10121000DF90CF90BF90AF909F908F907F906F9016
:101220005F904F903F902F900895CF93DF93DB0115
:10123000A358BC4F2C91222369F024E4269FF0018F
:10124000279FF00D1124E25FF54FEF0119922A95C7
:10125000E9F71C9224E4269FF001279FF00D11244A
:10126000E25FF54F1482158216821782118610866E
:1012700013861286118A108A17861686DF91CF91FF
:1012800064CE2F923F924F925F926F927F928F9295
:101290009F92AF92BF92CF92DF92EF92FF920F9305
:1012A0001F93CF93DF93CDB7DEB728970FB6F8948F
:1012B000DEBF0FBECDBF6B017C011A0184E48C9DA3
:1012C00090018D9D300D1124225F354FF9018481ED
:1012D0009581A681B781892B8A2B8B2B09F4B8C005
:1012E000A12CB12C412C512C320138872F83C901FC
:1012F00004969A838983D9011896BC83AB83E981CC
:10130000FA8180819181A281B381481659066A06CB
:101310007B0694F5AB81BC81ED91FC91EA0DFB1D40
:10132000228133818901812C912C82149304C4F48D
:10133000D801ED91FC91309769F0848195812D83DE
:101340003E830E94C130F801808191810E94C130AA
:101350003E812D81FFEF8F1A9F0A0E5F1F4FE5CF51
:10136000C9010E94C1308FEF481A580A680A780AEA
:1013700094E0A90EB11CC3CFAF81B88518968D91AA
:101380009C9119970E94C130EF81F88582859385E1
:10139000892B59F1A12CB12C812C912C84E48C9DAA
:1013A00080018D9D100D1124085E154F8214930449
:1013B00084F4D801ED91FC91EA0DFB1D84819581A7
:1013C0000E94C130BFEF8B1A9B0AEEE0AE0EB11C3B
:1013D000EDCF84E48C9DF0018D9DF00D1124E25F32
:1013E000F54F828593850E94C13084E48C9D9001E5
:1013F0008D9D300D11248901025F154FD801509643
:101400008D919C9151970E94C130F80186859785F6
:101410000E94C130C701B60198DDC701B601289608
:101420000FB6F894DEBF0FBECDBFDF91CF911F91F5
:101430000F91FF90EF90DF90CF90BF90AF909F9073
:101440008F907F906F905F904F903F902F90EDCE58
:1014500028960FB6F894DEBF0FBECDBFDF91CF91B7
:101460001F910F91FF90EF90DF90CF90BF90AF90C2
:101470009F908F907F906F905F904F903F902F90B4
:10148000089524E4269FF001279FF00D1124E25FC8
:10149000F54F828993890497029758F485E090E08C
:1014A000938B828B8FEF9FEFDC01828F938FA48FC2
:1014B000B58F08952F923F924F925F926F927F92D5
:1014C0008F929F92AF92BF92CF92DF92EF92FF9254
:1014D0000F931F93CF93DF93CDB7DEB7E0970FB68F
:1014E000F894DEBF0FBECDBF9AA389A31B016A018A
:1014F0002801390184E4849D8001859D100D11240B
:101500009801225F354F7901D9014D925D926D921C
:101510007C921397AB01C301B201B3DEF801EE5E1A
:10152000F54FD6014D915D916D917D918D01CA016F
:10153000408351836283738364E070E00E941230C1
:10154000F70191878087892B09F499C11E8E1D8E22
:10155000198E1A8E1B8E1C8EF8A2EF8E97012C5FAF
:101560003F4F38A72FA32C5F3F4F3AA729A7EFA1E2
:10157000F8A580819181A281B381298D3A8D4B8D0F
:101580005C8D281739074A075B070CF0E4C0A9A552
:10159000BAA58D919C912D8D3E8D280F391F3A8BC8
:1015A000298BD801ED91FC91EE0FFF1FA9A1BAA1E3
:1015B0008D919C91E80FF91F80819181F9019183B0
:1015C0008083D80114962D913D914D915C91179790
:1015D0002BA33CA34DA35EA3085F1F4F62E070E006
:1015E000C1010E941230E989FA8993838283892B91
:1015F00009F445C11D8A1E8A1F8A188E2D893E89CD
:101600004F89588D8BA19CA1ADA1BEA12817390788
:101610004A075B070CF08CC0D801ED90FC90EE0CF3
:10162000FF1CE989FA89C280D380CE0CDF1C68E0F8
:1016300070E081E090E00E941230D6018D939C937F
:10164000E989FA8982819381FC01EE0DFF1DC0803A
:10165000D180C114D10409F412C1D80114964D915E
:101660005D916D917C911797CA01F601408351837A
:1016700062837383085F1F4F64E070E00E94123042
:10168000D60115969C938E931497892B09F4F7C075
:101690001C8A1B8A812C912C5401F6018081918136
:1016A000A281B38188169906AA06BB06A4F5F601A5
:1016B000E480F5802B893C89E20EF31EF801DE01FF
:1016C000119680E101900D928A95E1F7005F1F4F1E
:1016D000A701BE016F5F7F4FA9A1BAA114968D919A
:1016E0009C9115979EDCF60126813781D7011296D1
:1016F0008D919C911397820F931F97838683BFEFE1
:101700008B1A9B0AAB0ABB0A2B893C892C5F3F4F83
:101710003C8B2B8BC2CF2D893E894F89588D2F5FF3
:101720003F4F4F4F5F4F2D8B3E8B4F8B588F66CF68
:10173000298D3A8D4B8D5C8D2F5F3F4F4F4F5F4F03
:10174000298F3A8F4B8F5C8F2D8D3E8D2C5F3F4FB5
:101750003E8F2D8F0CCF6EE070E0C1010E941230E1
:10176000AF8DB8A11B969C938E931A97812C912CC8
:10177000A12CB12CC12CD12C24E4249DC001259D89
:10178000900D11249C01285E354F3A8B298B21E066
:1017900030E0A214B3040CF04AC0D8014D915D9121
:1017A0006D917D918D01CA01E989FA89E080F1800E
:1017B000E80CF91C57FD63C0D70111963C932E939A
:1017C0000097A1F02FA738AB4BA75CA76DA77EA70A
:1017D0000E942C30F701958384832FA538A94BA54F
:1017E0005CA56DA57EA5892B31F449C0D70115965E
:1017F0001C921E921497F701538342838481958132
:1018000097838683918780871386128681E090E094
:10181000452B462B472B11F480E090E0C80ED91ED3
:10182000FFEFAF1ABF0A4EE0840E911CB2CF84E4E2
:10183000849D8001859D100D1124025F154FD801F4
:101840001D961C921E921C97C60133E0880F991FAB
:101850003A95E1F70E942C30F801918B808B892B0F
:1018600071F0C601880F991F0E942C30D8011F9675
:101870009C938E931E97892B11F080E005C0A101E7
:10188000C301B201FEDC81E0E0960FB6F894DEBF42
:101890000FBECDBFDF91CF911F910F91FF90EF90C1
:1018A000DF90CF90BF90AF909F908F907F906F9080
:1018B0005F904F903F902F9008952F923F924F92BC
:1018C0005F926F927F928F929F92AF92BF92CF92D0
:1018D000DF92EF92FF920F931F93CF93DF93CDB7D9
:1018E000DEB768970FB6F894DEBF0FBECDBF9C8BF6
:1018F0008B8BDB0149015A0124E4289DC001299DFD
:10190000900D11249C01225F354F79012D913C915E
:101910001197F701358B248BFC01EC5DF54F149684
:101920004D915D916D917C911797408351836283B6
:101930007383FC01E85DF54F18964D915D916D91B3
:101940007C911B974083518362837383FC01E45D28
:10195000F54F1C964D915D916D917C911F97408341
:10196000518362837383FC01E45CF54F50965C9174
:10197000509751964C91519752963C91529753964D
:101980002C91539750834183328323838D010C5EC6
:101990001F4F852F942F181619060CF068C0880F5A
:1019A000991F880F991F0E942C30D701D3969C93C2
:1019B0008E93D297892B09F4BCC0212C312C412C59
:1019C000512C32019701225D3F4F3E8B2D8B2C5FB6
:1019D0003F4F388F2F8B2E5F3F4F3A8B298BB301B0
:1019E000A2012FEF421A520A620A720AED89FE8999
:1019F00080819181A281B381481759076A077B07CB
:101A00004CF5AF89B88DCD90DC90C20CD31CF80199
:101A1000DE01119680E101900D928A95E1F7005F59
:101A20001F4FA601BE016F5F7F4FEB89FC89848148
:101A30009581F7DAA989BA898D919C911197F60160
:101A400022813381820F931F8D939C93F4E02F0E9C
:101A5000311CC5CFD701D4968D919C91D5970E940A
:101A60002C30F70197AB86AB892B09F462C0F801E3
:101A700080819181A281B38124E4289DF001299D78
:101A8000F00D1124E25FF54FAC01BD014D7F21E067
:101A900030E0452B462B472B11F020E030E033A3FC
:101AA00022A324E4289DF001299DF00D1124E25F7A
:101AB000F54F0197A109B10921E030E00297A10596
:101AC000B10510F020E030E035A324A384E4889D24
:101AD000F001899DF00D1124CF018C5C954FD80148
:101AE00014964D915D916D917C911797DC014D930A
:101AF0005D936D937C931397E25FF54F868D978D81
:101B0000A0A1B1A1B7FF10C0B095A0959095819507
:101B10009F4FAF4FBF4F82AF93AFA4AFB5AF168EFD
:101B2000178E10A211A20AC012AE13AE14AE15AEDB
:101B300005C0C501B40109DA81E001C080E0689602
:101B40000FB6F894DEBF0FBECDBFDF91CF911F91CE
:101B50000F91FF90EF90DF90CF90BF90AF909F904C
:101B60008F907F906F905F904F903F902F9008954F
:101B7000CF92DF92EF92FF92CF93DF931092960A6B
:101B800024E4269FF001279FF00D1124E25FF54F1A
:101B900015A614A620E030E0C12CD12CDF011A9646
:101BA000C1E0D0E0C416D506D4F4ED91FC911197B4
:101BB000E20FF31FE280F3801E141F0454F4E4804C
:101BC000F580F782E682F186E08613861286D1835D
:101BD000C083EFEFCE1ADE0A225F3F4FE3CF24E44B
:101BE000269FF001279FF00D1124E25FF54F13A609
:101BF00012A611AE10AEDF01DE961D921D921D924F
:101C00001C92139782E090E0938B828BDF91CF91AF
:101C1000FF90EF90DF90CF90089524E4269FF0018D
:101C2000279FF00D1124E25FF54F138A128A29CB0A
:101C300024E4269FF001279FF00D1124E25FF54F69
:101C40008289938981309105C8F08530910518F01B
:101C5000059769F008958FEF9FEFDC01828F938FD6
:101C6000A48FB58F85E090E0938B828B08958FEFE2
:101C70009FEFDC01828F938FA48FB58F089524E4AA
:101C8000249FF001259FF00D1124E25FF54F2EE017
:101C9000AC01249FC001259F900D11240284F3857F
:101CA000E02DE80FF91F81E08093960A82859385E5
:101CB00091878087408551852681378181E090E03A
:101CC0004217530711F080E090E0918380830895DC
:101CD0002F923F924F925F926F927F928F929F923C
:101CE000AF92BF92CF92DF92EF92FF920F931F932A
:101CF000CF93DF93CDB7DEB7C255D1090FB6F894B5
:101D0000DEBF0FBECDBF21969FAF8EAF21974BA7F1
:101D10005CA76DA77EA74801590184E4889D8001D6
:101D2000899D100D1124F801E25FF54F228533855E
:101D300027963FAF2EAF279782899389029709F0A4
:101D400060C186A597A5A0A9B1A9892B8A2B8B2B49
:101D500029F484E090E0938B828B53C18489958928
:101D600021964EAD5FAD21974817590709F049C13B
:101D700086A997A99AAB89AB1EAE1DAE19AE1AAE55
:101D80001BAE1CAE8F01DF019E962996BFAFAEAF92
:101D90002997F2962B96FFAFEEAF2B979801285C10
:101DA0003F4F2D963FAF2EAF2D97A8014A5D5F4F55
:101DB0002F965FAF4EAF2F97C801829661969FAF67
:101DC0008EAF61971A976396BFAFAEAF63972996B0
:101DD000EEADFFAD299780819181A281B38129ADBC
:101DE0003AAD4BAD5CAD281739074A075B070CF0DD
:101DF000E7C02B96EEADFFAD2B97808191812DAD85
:101E00003EAD280F391F3EAB2DABD90112960D9078
:101E1000BC91A02D2396BFAFAEAF2397B695A795E3
:101E2000B695A7952596BFAFAEAF25972D96EEAD8B
:101E3000FFAD2D9780819181892B09F496C02F9653
:101E4000AEADBFAD2F97CD90DD90ED90FC9029A861
:101E50003AA8F9010190F081E02DF8ABEFA718AE98
:101E60001FAA8FA998AD2596AEADBFAD25978A174D
:101E70009B070CF07AC06196AEADBFAD61978D91B6
:101E80009C91892B69F1EFA5F8A94080518062806F
:101E90007380A7019601C301B2010E945A2F87FDEA
:101EA0000BC0A7019601D1016D917D918D919C91FF
:101EB0000E94172E87FD8CC0A7019601C301B201B5
:101EC0000E945A2F181664F4A7019601F10160814F
:101ED0007181828193810E94172E882309F478C032
:101EE0006396AEADBFAD63978D919C91892B69F1DF
:101EF000EFA5F8A94080518062807380A701960108
:101F0000C301B2010E94172E87FF0BC0A7019601E3
:101F1000D1016D917D918D919C910E945A2F87FFE7
:101F200057C0A7019601C301B2010E94172E81116B
:101F30000CC0A7019601F1016081718182819381BA
:101F40000E945A2F18160CF443C02FA938AD2F5FEA
:101F50003F4F38AF2FAB34E0230E311C4FA558A9AB
:101F60004C5F5F4F58AB4FA77CCFEDA9FEA96081B6
:101F7000718123964EAD5FAD239789A99AA90E94DE
:101F8000593125968EAD9FAD2597880F991F880FE3
:101F9000991F29A93AA9280F391F3AAB29AB89AD56
:101FA0009AADABADBCAD0196A11DB11D89AF9AAF85
:101FB000ABAFBCAFADADBEAD1496BEAFADAF07CF4E
:101FC00081E090E0D801D9969C938E93D89719C060
:101FD00084E4889DF001899DF00D1124E25FF54FA6
:101FE000868D978DA0A1B1A1892B8A2B8B2B09F00F
:101FF00064C284E090E0938B828B86AD97AD93A70B
:1020000082A784E4889DF001899DF00D1124E25F90
:10201000F54F828993898230910571F482AD93AD39
:10202000A4ADB5AD181619061A061B060CF04CC265
:10203000CC24C394D12C05C0049709F045C2C12C0F
:10204000D12C8EE02196EEADFFAD21978E9F7001D1
:102050008F9FF00C112427962EAD3FAD2797E20EEF
:10206000F31ED70112964D915C91139741155105BE
:1020700009F42AC216968D919C9117979AA789A761
:10208000FE01319684E1DF011D928A95E9F7898A84
:102090009A8AAB8ABC8AC114D10409F457C084E47B
:1020A000889DF001899DF00D1124E25FF54FDF015D
:1020B000DE964D905D906D907C9082AD93ADA4AD19
:1020C000B5AD481659066A067B0609F03FC0F70110
:1020D000648175810084F185E02D84819581A681DC
:1020E000B7819C018D8B9E8BAF8BB88F285F3F4F44
:1020F0003E8B2D8BD70118968D919C911997280FA7
:10210000391F19963C932E93189718968D919C9190
:102110001997460F571F841B950B97FD06C0860F16
:10212000971F19969C938E93189784E4889DF001CD
:10213000899DF00D1124E45BF54FB1E04B1A510875
:102140006108710840825182628273829E012B5E17
:102150003F4FAE01475D5F4F64E170E0C7010E94F1
:102160003C07082F10E00115110509F091C18CE022
:1021700090E0A0E0B0E08D839E83AF83B8879E019E
:10218000235E3F4FAE01475D5F4F64E070E0C701E3
:102190000E943C07082F10E00115110509F078C1D5
:1021A00080E190E0A0E0B0E08D839E83AF83B887AC
:1021B0004D8D5E8DBE01655D7F4F8F8D98A10E9414
:1021C00059318BA19CA1009761F06D8D7E8DEBE262
:1021D000F0E0EC0FFD1F6E0F7F1F49A15AA10E9476
:1021E00059311DA21EA21FA218A621962EAD3FADE9
:1021F0002197220F331F38AF2FAB24E4289DC00155
:10220000299D900D1124825F954FAC014C5F5F4F6B
:102210005AAF49AFDC011896BEAFADAF2DA13EA1BC
:102220004FA158A529AB3AAB4BAB5CABE9ADFAADCE
:1022300080819181A281B381281739074A075B0702
:102240000CF0CFC0ADADBEADED91FC9189A99AA9BE
:10225000880F991F880F991FE80FF91FA081B1817E
:102260008C91882309F4AFC0833009F4ACC002809C
:10227000F381E02D2FA938ADE20FF31F408151818A
:1022800058AB4FA7452B09F49EC089859A85AB852D
:10229000BC850196A11DB11D89879A87AB87BC8734
:1022A0009E01235E3F4FAE01475D5F4F64E070E0EB
:1022B000C7010E943C0790E0009709F0E8C08D81BB
:1022C0009E81AF81B8850496A11DB11D8D839E832B
:1022D000AF83B8874D8D5E8DBE016B5D7F4F8F8D57
:1022E00098A10E9459318BA19CA1009761F06D8D3E
:1022F0007E8DA5E2B0E0AC0FBD1F6A0F7B1F49A128
:102300005AA10E9459311EAA1DAA412C512C3201FA
:10231000EFA5F8A980819181A281B3814816590661
:102320006A067B060CF04FC0EFA5F8A92480358023
:102330002DA93EA9220E331ED10112966D917C91DA
:1023400013979E01235E3F4FAE01475D5F4FC7016C
:102350000E943C0790E0009709F099C0F10182814A
:102360009381092E000CAA0BBB0B4D815E816F81FE
:102370007885840F951FA61FB71F8D839E83AF831B
:10238000B887608171814D8D5E8D8F8D98A10E947F
:1023900059318BA19CA1009759F0D1016D917C918D
:1023A0002D8D3E8D620F731F49A15AA10E94593194
:1023B000BFEF4B1A5B0A6B0A7B0AEDA9FEA93496A4
:1023C000FEABEDABA5CF49A85AA86BA87CA8FFEF40
:1023D0004F1A5F0A6F0A7F0A4DA25EA26FA278A60B
:1023E0001DCF89859A85AB85BC85892B8A2B8B2B44
:1023F00009F44EC08AE190E0A0E0B0E089839A83BE
:10240000AB83BC8321962EAD3FAD2197C901330F1D
:10241000AA0BBB0B8D879E87AF87B88B4D895E89D2
:10242000BE016F5F7F4F8F89988D0E9459318B8DD0
:102430009C8D009761F06D897E8941E050E04C0FE2
:102440005D1F640F751F498D5A8D0E94593189A5F2
:102450009AA5D70117969C938E93169711961C9266
:102460001E92CD2889F184E4889DF001899DF00DAC
:102470001124E45BF54F80819181A281B3810196A3
:10248000A11DB11D80839183A283B3831DC08C01E4
:10249000CD28D1F4012BC1F084E4889DF001899D01
:1024A000F00D1124E25FF54F81E090E095A784A73D
:1024B00085E090E0938B828B07C083E090E0938B64
:1024C000828B81E090E09BCDCE5ADF4F0FB6F8941F
:1024D000DEBF0FBECDBFDF91CF911F910F91FF9057
:1024E000EF90DF90CF90BF90AF909F908F907F90B4
:1024F0006F905F904F903F902F900895CF92DF9212
:10250000EF92FF920F931F936B017C0184E48C9DEB
:10251000F0018D9DF00D1124E25FF54F82899389C2
:10252000009709F450C00197B9F482A593A59C01C6
:102530002F5F3F4F33A722A7092E000CAA0BBB0B1E
:10254000028D138D248D358D80179107A207B30757
:10255000D1F5C701B6010CDB84E48C9DF0018D9DA3
:10256000F00D1124E25FF54F82899389039759F5A5
:1025700082A593A59C012F5F3F4F33A722A7092E69
:10258000000CAA0BBB0B468D578D60A171A184175F
:102590009507A607B707BCF086AD97AD93A782A7AE
:1025A00084E090E0938B828B82AD93ADA4ADB5AD0A
:1025B000181619061A061B0634F4EE5BFF4F81E06D
:1025C00090E0918380831F910F91FF90EF90DF90B7
:1025D000CF90089524E4269FF001279FF00D112449
:1025E000E25FF54F828993890497B1F482A593A5A0
:1025F000019693A782A7092E000CAA0BBB0B468954
:102600005789608D718D84179507A607B70721F448
:1026100085E090E0938B828B08952F923F924F92AA
:102620005F926F927F928F929F92AF92BF92CF9262
:10263000DF92EF92FF920F931F93CF93DF93CDB76B
:10264000DEB72E970FB6F894DEBF0FBECDBF49831D
:102650005A836B837C834901442E552E24E4249DA8
:10266000F001259DF00D1124E25FF54F228833889B
:10267000910124503109158614862230310508F065
:10268000DDC0DC0111961C921E9213961C921E92C4
:102690001297A12CB12C60E070E09F01265F3F4FA4
:1026A00038872F837F013CE0E30EF11CDF01509659
:1026B000BA87A9879F01225F3F4F3C872B87681508
:1026C00079050CF06FC0EF81F885A081B1819D0183
:1026D0002A0D3B1D3E872D87D9012D913C911197E5
:1026E000232B09F059C018960D911C911997129639
:1026F000ED91FC911397FE83ED8316962D913C91FD
:102700001797D7014D915C91DA01E3E0AA0FBB1F47
:10271000EA95E1F7E985FA85C080D180FD01EC0DED
:10272000FD1D440F551FAB85BC85CD90DC904C0D35
:102730005D1DDA016D937C93D7014D915C911197EA
:102740004F5F5F4F4D935C9313830283AD85BE85CE
:102750001B963C932E931A970217130748F4201BDD
:10276000310B31832083158214821782168214C0A4
:10277000AD85BE851496CD90DC9015974D815E8118
:102780004C0D5D1D401B510B518340832C193D099D
:1027900035832483D782C6826F5F7F4FBEE0AB0E46
:1027A000B11C8DCF24E4249D8001259D100D1124A2
:1027B000025F154FF80124853585DC0111963C93A5
:1027C0002E934089518913965C934E9312974685B8
:1027D000578515965C934E931497232BA1F5B5E07E
:1027E0002B16310481F51092960A828D938DA48D5B
:1027F000B58DAE014F5F5F4F64E070E08F3F9F4F3C
:10280000AF4FBF4F59F480E290E00E946F21698181
:102810007A818B819C81A40100DA15C08FE190E060
:102820000E946F21D8019B961C921E929A9781E07C
:1028300090E053969C938E93529705C0FC011182B1
:102840001082138212822E960FB6F894DEBF0FBE4E
:10285000CDBFDF91CF911F910F91FF90EF90DF904F
:10286000CF90BF90AF909F908F907F906F905F9030
:102870004F903F902F900895EF92FF920F931F93E8
:10288000CF93DF937C018B01EA010E94F221811139
:1028900021C080917F0390918003049711F183E020
:1028A00090E09093800380937F031BC098819111E7
:1028B000F0CF28ED38EB45E050E060E070E0CB0170
:1028C0000E947C24AE01B801C7010E948A24C8017D
:1028D0000E9455248091970A9091980A892B31F390
:1028E000D8CFDF91CF911F910F91FF90EF90089576
:1028F000CF93DF9320917F03309180032430310503
:1029000041F0EB010E948A24CE01DF91CF910C941B
:102910005524DF91CF9108950C94A0280C9495280C
:102920000C9483280C9465240C942628089560E068
:1029300070E080E090E00C94CD210895AF92BF92BA
:10294000CF92DF92EF92FF920F931F93CF93DF937B
:102950001F921F92CDB7DEB75C0169017A018B012E
:1029600080E090E0C114D104E104F104F1F0C1145D
:10297000D10421E0E206F10410F4A60102C04FEFF9
:102980005FEF9E012F5F3F4FB801C5010E944129B3
:102990008F3F2FEF920749F029813A81C21AD30A5B
:1029A000E108F108020F131FDDCF0F900F90DF91A8
:1029B000CF911F910F91FF90EF90DF90CF90BF903C
:1029C000AF900895089508951F920F920FB60F9239
:1029D00011240BB60F922F933F934F935F936F93F6
:1029E0007F938F939F93AF93BF93EF93FF93E09168
:1029F0008503F09186031995FF91EF91BF91AF91F7
:102A00009F918F917F916F915F914F913F912F9106
:102A10000F900BBE0F900FBE0F901F9018951F9236
:102A20000F920FB60F9211240BB60F922F933F9374
:102A30004F935F936F937F938F939F93AF93BF93C6
:102A4000EF93FF93E0918703F09188031995FF912D
:102A5000EF91BF91AF919F918F917F916F915F9116
:102A60004F913F912F910F900BBE0F900FBE0F9083
:102A70001F9018951F920F920FB60F9211240BB64C
:102A80000F922F933F934F935F936F937F938F9307
:102A90009F93AF93BF93EF93FF93E0918903F091DE
:102AA0008A031995FF91EF91BF91AF919F918F91FB
:102AB0007F916F915F914F913F912F910F900BBE3E
:102AC0000F900FBE0F901F9018951F920F920FB688
:102AD0000F9211240BB60F922F933F934F935F9356
:102AE0006F937F938F939F93AF93BF93EF93FF93D6
:102AF000E0918B03F0918C031995FF91EF91BF91B9
:102B0000AF919F918F917F916F915F914F913F9185
:102B10002F910F900BBE0F900FBE0F901F90189526
:102B20001F920F920FB60F9211240BB60F922F9394
:102B30003F934F935F936F937F938F939F93AF9345
:102B4000BF93EF93FF93E0918103F0918203199576
:102B5000FF91EF91BF91AF919F918F917F916F9175
:102B60005F914F913F912F910F900BBE0F900FBE31
:102B70000F901F9018951F920F920FB60F9211246D
:102B80000BB60F922F933F934F935F936F937F9367
:102B90008F939F93AF93BF93EF93FF93E091830342
:102BA000F09184031995FF91EF91BF91AF919F919F
:102BB0008F917F916F915F914F913F912F910F90E6
:102BC0000BBE0F900FBE0F901F9018951F920F9283
:102BD0000FB60F9211240BB60F922F933F934F9382
:102BE0005F936F937F938F939F93AF93BF93EF9375
:102BF000FF93E0918D03F0918E031995FF91EF9172
:102C0000BF91AF919F918F917F916F915F914F9104
:102C10003F912F910F900BBE0F900FBE0F901F9002
:102C200018951F920F920FB60F9211240BB60F92A8
:102C30002F933F934F935F936F937F938F939F93C4
:102C4000AF93BF93EF93FF93E0918F03F0919003C5
:102C50001995FF91EF91BF91AF919F918F917F91C6
:102C60006F915F914F913F912F910F900BBE0F90FD
:102C70000FBE0F901F9018951F920F920FB60F92D4
:102C800011242F933F938F939F93AF93BF93809182
:102C90009A0A90919B0AA0919C0AB0919D0A30914A
:102CA000990A23E0230F2D3720F40196A11DB11DB1
:102CB00005C026E8230F0296A11DB11D2093990A95
:102CC00080939A0A90939B0AA0939C0AB0939D0AC2
:102CD00080919E0A90919F0AA091A00AB091A10AAA
:102CE0000196A11DB11D80939E0A90939F0AA09307
:102CF000A00AB093A10ABF91AF919F918F913F918C
:102D00002F910F900FBE0F901F9018953FB7F8941A
:102D100080919E0A90919F0AA091A00AB091A10A69
:102D200026B5A89B05C02F3F19F00196A11DB11D26
:102D30003FBFBA2FA92F982F8827820F911DA11D61
:102D4000B11DBC01CD0142E0660F771F881F991F9E
:102D50004A95D1F708958F929F92AF92BF92CF92EA
:102D6000DF92EF92FF926B017C01D0DF4B015C019F
:102D7000C114D104E104F104F1F024DEC7DFDC0169
:102D8000CB0188199909AA09BB09883E9340A1057E
:102D9000B10570F321E0C21AD108E108F10888EE0C
:102DA000880E83E0981EA11CB11CC114D104E1045B
:102DB000F10421F7DDCFFF90EF90DF90CF90BF902F
:102DC000AF909F908F900895789484B5826084BD71
:102DD00084B5816084BD85B5826085BD85B581601F
:102DE00085BDEEE6F0E0808181608083E1E8F0E07F
:102DF0001082808182608083808181608083E0E8AE
:102E0000F0E0808181608083E1EBF0E0808184608C
:102E10008083E0EBF0E0808181608083E1E9F0E095
:102E2000808182608083808181608083E0E9F0E03E
:102E3000808181608083E1EAF0E08081826080832C
:102E4000808181608083E0EAF0E08081816080831E
:102E5000E1E2F1E080818260808380818160808313
:102E6000E0E2F1E0808181608083EAE7F0E0808148
:102E700084608083808182608083808181608083A0
:102E80008081806880831092C10008951F93CF9342
:102E9000DF93182FEB0161E016D1209711F460E069
:102EA00004C0CF3FD10531F461E0812FDF91CF9194
:102EB0001F9145C1E12FF0E0E45BFE4FE4914E2FFE
:102EC00050E0FA013197E231F10508F09DC0882702
:102ED000EE58FF4F8F4F0C94F62F84B5806884BD59
:102EE000C7BD97C084B5806284BDC8BD92C08091C3
:102EF0008000806880938000D0938900C093880010
:102F000088C080918000806280938000D0938B0085
:102F1000C0938A007EC0809180008860809380008A
:102F2000D0938D00C0938C0074C08091B0008068F5
:102F30008093B000C093B3006CC08091B0008062F9
:102F40008093B000C093B40064C08091900080680A
:102F500080939000D0939900C09398005AC08091BC
:102F60009000806280939000D0939B00C0939A0061
:102F700050C080919000886080939000D0939D0015
:102F8000C0939C0046C08091A00080688093A00000
:102F90008091A0008F7B8093A000D093A900C09364
:102FA000A80037C08091A00080628093A000D093D9
:102FB000AB00C093AA002DC08091A00088608093D0
:102FC000A000D093AD00C093AC0023C0809120013D
:102FD000806880932001D0932901C093280119C0F3
:102FE00080912001806280932001D0932B01C093B7
:102FF0002A010FC080912001886080932001D09326
:103000002D01C0932C0105C0C038D1050CF04CCF68
:1030100046CFDF91CF911F91089590E0FC01319749
:10302000E231F10508F04EC08827EC57FF4F8F4F73
:103030000C94F62F809180008F7703C080918000E0
:103040008F7D80938000089580918000877FF9CFE5
:1030500084B58F7702C084B58F7D84BD089580913B
:10306000B0008F7703C08091B0008F7D8093B00057
:103070000895809190008F7707C0809190008F7D98
:1030800003C080919000877F809390000895809185
:10309000A0008F7707C08091A0008F7D03C0809132
:1030A000A000877F8093A0000895809120018F77F2
:1030B00007C0809120018F7D03C080912001877F10
:1030C000809320010895CF93DF9390E0FC01EE56AA
:1030D000FE4F2491FC01E852FE4F8491882361F158
:1030E00090E0880F991FFC01E85CFD4FC591D491D9
:1030F000FC01E25EFD4FA591B491611109C09FB73B
:10310000F8948881209582238883EC912E230BC02C
:10311000623061F49FB7F8943881822F80958323C1
:103120008883EC912E2B2C939FBF06C08FB7F89409
:10313000E8812E2B28838FBFDF91CF9108951F93B5
:10314000CF93DF93282F30E0F901E45BFE4F8491A9
:10315000F901EE56FE4FD491F901E852FE4FC491A9
:10316000CC23C1F0162F811158DFEC2FF0E0EE0FC9
:10317000FF1FE25EFD4FA591B4918FB7F894111136
:1031800005C09C91ED2FE095E92302C0EC91ED2B59
:10319000EC938FBFDF91CF911F910895FC01918D2A
:1031A000228D892F90E0805C9F4F821B91098F7345
:1031B00099270895FC01918D828D981731F0828DA9
:1031C000E80FF11D858D90E008958FEF9FEF089532
:1031D000FC01918D828D981761F0828DDF01A80F1F
:1031E000B11D5D968C91928D9F5F9F73928F90E041
:1031F00008958FEF9FEF0895FC01848DDF01A80FE4
:10320000B11DA35ABF4F2C91848D90E001968F730E
:103210009927848FA689B7892C93A089B1898C912D
:1032200080648C93938D848D981306C00288F389F3
:10323000E02D80818F7D80830895CF93DF93EC0113
:10324000888D8823C1F0EA89FB89808185FD05C0CE
:10325000A889B9898C9186FD0EC00FB607FCF5CF01
:10326000808185FFF2CFA889B9898C9185FFEDCF48
:10327000CE01C2DFE8CFDF91CF910895EF92FF92A8
:103280000F931F93CF93DF93EC0181E0888F9B8D89
:103290008C8D981305C0E889F989808185FD23C04C
:1032A000F62E0B8D10E00F5F1F4F0F731127E02ECE
:1032B0008C8DE8120BC00FB607FCFACFE889F989AC
:1032C000808185FFF5CFCE0197DFF2CF8B8DFE0198
:1032D000E80FF11DE35AFF4FF0820B8FEA89FB895B
:1032E0008081806207C0EE89FF896083E889F9895F
:1032F00080818064808381E090E0DF91CF911F9195
:103300000F91FF90EF900895CF92DF92EF92FF928E
:103310001F93CF93DF93EC016A017B01122FE889A1
:10332000F98982E080834115514E61057105B1F044
:1033300060E079E08DE390E0A70196010E94D42F30
:10334000DA01C9010197A109B109B695A795979529
:103350008795AC01411580E15807A8F0E889F98903
:10336000108260E874E88EE190E0A70196010E9467
:10337000D42FBA01A901415051096109710976950B
:10338000679557954795EC85FD855083EE85FF85BC
:103390004083188EEC89FD891083EA89FB8980813E
:1033A00080618083EA89FB89808188608083EA89E3
:1033B000FB89808180688083EA89FB8980818F7D99
:1033C0008083DF91CF911F91FF90EF90DF90CF909E
:1033D00008951F920F920FB60F9211240BB60F9201
:1033E0002F938F939F93EF93FF93E091B20AF09105
:1033F000B30A8081E091B80AF091B90A82FD12C047
:1034000090818091BB0A8F5F8F732091BC0A8217D5
:1034100051F0E091BB0AF0E0EE55F54F958F8093A7
:10342000BB0A01C08081FF91EF919F918F912F91F5
:103430000F900BBE0F900FBE0F901F9018951F920C
:103440000F920FB60F9211240BB60F922F933F934A
:103450004F935F936F937F938F939F93AF93BF939C
:10346000EF93FF9382EA9AE0C7DEFF91EF91BF915D
:10347000AF919F918F917F916F915F914F913F910C
:103480002F910F900BBE0F900FBE0F901F901895AD
:10349000E2EAFAE01382128288EE93E0A0E0B0E064
:1034A00084839583A683B78387E799E0918380839C
:1034B00085EC90E09587848784EC90E097878687F9
:1034C00080EC90E0918B808B81EC90E0938B828BF1
:1034D00082EC90E0958B848B86EC90E0978B868BCA
:1034E000118E128E138E148E08951F920F920FB6A6
:1034F0000F9211240BB60F922F938F939F93EF93FC
:10350000FF93E0914F0BF091500B8081E091550BB0
:10351000F091560B82FD12C090818091580B8F5F05
:103520008F732091590B821751F0E091580BF0E006
:10353000E15CF44F958F8093580B01C08081FF911F
:10354000EF919F918F912F910F900BBE0F900FBE17
:103550000F901F9018951F920F920FB60F92112483
:103560000BB60F922F933F934F935F936F937F937D
:103570008F939F93AF93BF93EF93FF938FE39BE062
:103580003BDEFF91EF91BF91AF919F918F917F9122
:103590006F915F914F913F912F910F900BBE0F90C4
:1035A0000FBE0F901F901895EFE3FBE0138212827D
:1035B00088EE93E0A0E0B0E084839583A683B78390
:1035C00087E799E0918380838DEC90E095878487ED
:1035D0008CEC90E09787868788EC90E0918B808BCD
:1035E00089EC90E0938B828B8AEC90E0958B848BB6
:1035F0008EEC90E0978B868B118E128E138E148E2C
:1036000008951F920F920FB60F9211240BB60F92CE
:103610002F938F939F93EF93FF93E091EC0BF09197
:10362000ED0B8081E091F20BF091F30B82FD12C063
:1036300090818091F50B8F5F8F732091F60B82172D
:1036400051F0E091F50BF0E0E452F44F958F809348
:10365000F50B01C08081FF91EF919F918F912F9188
:103660000F900BBE0F900FBE0F901F9018951F92DA
:103670000F920FB60F9211240BB60F922F933F9318
:103680004F935F936F937F938F939F93AF93BF936A
:10369000EF93FF938CED9BE0AFDDFF91EF91BF9136
:1036A000AF919F918F917F916F915F914F913F91DA
:1036B0002F910F900BBE0F900FBE0F901F9018957B
:1036C000ECEDFBE01382128288EE93E0A0E0B0E024
:1036D00084839583A683B78387E799E0918380836A
:1036E00085ED90E09587848784ED90E097878687C5
:1036F00080ED90E0918B808B81ED90E0938B828BBD
:1037000082ED90E0958B848B86ED90E0978B868B95
:10371000118E128E138E148E08951F920F920FB673
:103720000F9211240BB60F922F938F939F93EF93C9
:10373000FF93E091890CF0918A0C8081E0918F0CCD
:10374000F091900C82FD12C090818091920C8F5F5D
:103750008F732091930C821751F0E091920CF0E05E
:10376000E758F34F958F8093920C01C08081FF91B1
:10377000EF919F918F912F910F900BBE0F900FBEE5
:103780000F901F9018951F920F920FB60F92112451
:103790000BB60F922F933F934F935F936F937F934B
:1037A0008F939F93AF93BF93EF93FF9389E79CE031
:1037B00023DDFF91EF91BF91AF919F918F917F9109
:1037C0006F915F914F913F912F910F900BBE0F9092
:1037D0000FBE0F901F901895E9E7FCE0138212824C
:1037E00088EE93E0A0E0B0E084839583A683B7835E
:1037F00087E799E09183808385E391E095878487CB
:1038000084E391E09787868780E391E0918B808BBA
:1038100081E391E0938B828B82E391E0958B848BA3
:1038200086E391E0978B868B118E128E138E148E09
:1038300008958F929F92AF92BF92CF92DF92EF92B4
:10384000FF920F931F93CF93DF937C018B016C0149
:1038500082E0C80ED11C4701E5E08E0E911CC0E04D
:10386000D0E0F60161916F014AE050E0C801C6D096
:103870005C016EE2C80167D08A0D9B1DC80FD91F7D
:10388000C814D90471F74AE050E0F7016581C80116
:10389000B5D08C0F9D1FDF91CF911F910F91FF909D
:1038A000EF90DF90CF90BF90AF909F908F90089552
:1038B000E6E1FDE087E899E091838083128213823C
:1038C000148215820895CF92DF92EF92FF920F93A8
:1038D0001F93CF93DF936C017A018B01C0E0D0E09E
:1038E000CE15DF0589F0D8016D918D01D601ED91DE
:1038F000FC910190F081E02DC6011995892B11F4FE
:103900007E0102C02196ECCFC701DF91CF911F91BC
:103910000F91FF90EF90DF90CF90089561157105A2
:1039200079F0FB0101900020E9F73197AF01461BC8
:10393000570BDC01ED91FC910280F381E02D19948D
:1039400080E090E00895DC01ED91FC910190F08120
:10395000E02D19944F925F926F927F92EF92FF92B7
:103960000F931F93CF93DF93CDB7DEB7A1970FB619
:10397000F894DEBF0FBECDBF7C01FA01CB0119A2C6
:10398000223008F42AE08E010F5D1F4F422E512C89
:10399000612C712CBF01A30192010E94D42FF90167
:1039A000CA01015011096A3014F4605D01C0695CFC
:1039B000D8016C93232B242B252B61F7B801C70169
:1039C000ADDFA1960FB6F894DEBF0FBECDBFDF917D
:1039D000CF911F910F91FF90EF907F906F905F902C
:1039E0004F9008952115310541F4DC01ED91FC91D2
:1039F0000190F081E02D642F1994ACCF9A01462FED
:103A000050E060E070E0EECF8230A9F028F4882327
:103A100049F0813051F00895843021F1E8F085308B
:103A200039F1089510926E00089580916F008D7F96
:103A300080936F000895809170008D7F8093700057
:103A400081E08093B0008091B100887F8460809392
:103A5000B1001092B3000895809171008D7F809322
:103A600071000895809172008D7F80937200089597
:103A7000809173008D7F809373000895CF93C82F3A
:103A8000809191038C1307C0E2E5F2E0E4918FEF9F
:103A90008093910301C0EFEF8E2FB6DF60E08C2F93
:103AA000CF914DCB1F920F920FB60F9211240BB6F0
:103AB0000F922F933F934F935F936F937F938F93C7
:103AC0009F93AF93BF93EF93FF9380911F0D9091BE
:103AD000200DA091210DB091220D892B8A2B8B2BCB
:103AE00051F180911C0DE0911D0DF0911E0D908102
:103AF0008927808380911F0D9091200DA091210D29
:103B0000B091220D181619061A061B06BCF48091F6
:103B10001F0D9091200DA091210DB091220D0197C4
:103B2000A109B10980931F0D9093200DA093210D41
:103B3000B093220D03C080919103A0DFFF91EF911C
:103B4000BF91AF919F918F917F916F915F914F91B5
:103B50003F912F910F900BBE0F900FBE0F901F90B3
:103B6000189540E855E260E070E080E090E002D017
:103B70000C94E2018130910571F01CF4892B39F02D
:103B800008958230910559F0039769F0089526E071
:103B900082EA9AE00BC026E08FE39BE007C026E0B4
:103BA0008CED9BE003C026E089E79CE0ADCB1F9243
:103BB0000F920FB60F9211240BB60F922F933F93D3
:103BC0004F935F936F937F938F939F93AF93BF9325
:103BD000EF93FF938FE89DEF90932501809324014D
:103BE0000E94C02CFF91EF91BF91AF919F918F9157
:103BF0007F916F915F914F913F912F910F900BBEED
:103C00000F900FBE0F901F9018958FE89DEF909327
:103C1000250180932401A3E7B0E08C918E7F8C93E3
:103C2000E0E2F1E080818C7F8083E1E2F1E080815D
:103C3000877E808380818460808380818C7F808385
:103C40008C9181608C93089581E008956F927F92AA
:103C50008F929F92AF92BF92CF92DF92EF92FF929C
:103C60000F931F93CF93DF935C017B014A0101E027
:103C700010E00E151F0564F568018FEFC81AD80A09
:103C8000E801CC0FDD1FC80DD91D68807980611453
:103C90007104E1F069E879E0C3010E946931892B80
:103CA00019F41982188212C06CE879E0C3010E94ED
:103CB0006931892B59F4CE14DF0441F06801E2E048
:103CC000CE0ED11C198218821B821A828601D1CF96
:103CD00081E0F5018083B401C7010E94CB28F50182
:103CE0009283818380E090E0DF91CF911F910F91CB
:103CF000FF90EF90DF90CF90BF90AF909F908F900C
:103D00007F906F90089583E29DE0089580E008958C
:103D10000F931F93CF93DF938B01BA01E9011982AF
:103D200018829801012E000C440B550BFC01818177
:103D300092810E949E14019621F01983088380E0ED
:103D400001C081E0DF91CF911F910F9108950F93F2
:103D50001F93CF93DF931F921F92CDB7DEB7FB0166
:103D60008A01B9019E012F5F3F4FAF01FC018181A4
:103D700092810E94E228019639F089819A81F801A6
:103D80009183808380E001C081E00F900F90DF91EC
:103D9000CF911F910F910895FC018081089508959E
:103DA000089581E0FB01808380E0089508951092DA
:103DB0004D0D0895FC01818192810C94C228CF930E
:103DC000DF93CDB7DEB72A970FB6F894DEBF0FBEEC
:103DD000CDBFAC01CB0160E070E049835A836B83B7
:103DE0007C83092E000CAA0BBB0B8D839E83AF83B3
:103DF000B8879E01275F3F4FAE014F5F5F4F68E07E
:103E000070E080913C0D90913D0D82DF811108C0E2
:103E100081E029853A852830310519F480E001C018
:103E200081E02A960FB6F894DEBF0FBECDBFDF91BA
:103E3000CF9108950F931F93CF93DF931F921F92FB
:103E4000CDB7DEB78B019E012F5F3F4FAC01809154
:103E50003C0D90913D0D5CDF811108C081E029810E
:103E60003A812017310719F480E001C081E00F90FA
:103E70000F90DF91CF911F910F910895CF93DF9312
:103E8000EC011092400D10923F0D10924C0D1092CB
:103E90004B0DAC0160E070E0CB010E940D0EAE0155
:103EA00061E070E080E090E00E940D0E80913C0D9A
:103EB00090913D0DDF91CF9179CF4F925F926F92AC
:103EC0007F928F929F92AF92BF92CF92DF92EF92AA
:103ED000FF920F931F93CF93DF931F921F92CDB743
:103EE000DEB79C016C0197FF03C087E0C80ED11CB0
:103EF00043E0D594C7944A95E1F7C90168E070E0C2
:103F00000E94C12F7C0189010E5F1F4F80913A0DE5
:103F100090913B0D801791070CF0DCC08091380D1B
:103F20009091390D009731F00E94C13010923B0DF5
:103F300010923A0DC8010E942C309093390D809355
:103F4000380D892B29F010933B0D00933A0DC2C018
:103F5000A12CB12CAC14BD040CF05EC0412C512C32
:103F6000320100E010E098012F5B324FAE014F5F4D
:103F70005F4F61E070E080913C0D90913D0DE7DE78
:103F8000811198C189819A812FEF421A520A620ADF
:103F9000720A20E942162FE5520621E062067104FA
:103FA0003CF060914B0D70914C0D8DEE90E02DC06A
:103FB000080F191F0A30110551F549E050E060E083
:103FC00070E081E49DE00E946D2960914B0D70913D
:103FD0004C0D8823C1F08091490D90E06817790756
:103FE00009F0B8CF8EEE90E0EADE80914B0D909113
:103FF0004C0D0196992790934C0D80934B0D8FEFAC
:10400000A81AB80AA7CF8FEE90E0D9DEA7CF0A3062
:1040100011050CF4A8CF9ECFEF2809F44BC1C12C99
:10402000D12C760100E010E098012F5B324FAE01F9
:104030004F5F5F4F61E070E080913C0D90913D0DCE
:1040400086DE811137C189819A812FEFC21AD20A87
:10405000E20AF20A20E9C2162FE5D20621E0E206C2
:10406000F1043CF060914B0D70914C0D8DEE90E0A1
:104070002AC0080F191F0A30110539F549E050E030
:1040800060E070E081E49DE00E946D2960914B0D3D
:1040900070914C0D8823A9F08091490D90E068172C
:1040A000790709F007C18EEE90E089DE80914B0D13
:1040B00090914C0D0196992790934C0D80934B0D48
:1040C000F9C08FEE90E07BDEAACF0A3011050CF428
:1040D000ABCFF0C000E010E00C151D050CF077C070
:1040E000412C512C3201A12CB12C480193E0880CB9
:1040F000991C9A95E1F72091380D3091390DC40142
:104100008A0D9B1D280F391FAE014F5F5F4F61E085
:1041100070E080913C0D90913D0D19DE8111CAC077
:1041200089819A812FEF421A520A620A720A20E9A3
:1041300042162FE5520621E0620671043CF06091C0
:104140004B0D70914C0D8DEE90E034C0A80EB91E51
:104150008AE0A816B104A9F549E050E0B4018091C5
:10416000380D9091390D0E946D2960914B0D709121
:104170004C0D8823E9F08091380D9091390DFC01A8
:10418000E80DF91D808590E06817790709F0A4CF44
:104190008EEE90E014DE80914B0D90914C0D0196C7
:1041A000992790934C0D80934B0D0F5F1F4F94CF29
:1041B0008FEE90E004DE412C512C3201A12CB12C69
:1041C0009ACF2AE0A216B1040CF495CF85CFE11462
:1041D000F10409F46AC0680183E0CC0CDD1C8A9507
:1041E000E1F7812C912C540100E010E098012F5B45
:1041F000324FAE014F5F5F4F61E070E080913C0D48
:1042000090913D0DA4DD811155C089819A812FEFD8
:10421000821A920AA20AB20A20E982162FE59206B1
:1042200021E0A206B1043CF060914B0D70914C0D61
:104230008DEE90E034C0080F191F0A30110589F582
:1042400049E050E060E070E081E49DE00E946D296B
:1042500060914B0D70914C0D8823F9F08091490DC0
:1042600090E06817790709F58EEE90E0A8DD80915F
:10427000380D9091390DA70161E47DE08C0D9D1DF5
:104280000E94593180914B0D90914C0D01969927C8
:1042900090934C0D80934B0D08C08FEE90E08FDD16
:1042A000A0CF0A3011050CF4A1CF8091380D909168
:1042B000390D02C080E090E00F900F90DF91CF9118
:1042C0001F910F91FF90EF90DF90CF90BF90AF9034
:1042D0009F908F907F906F905F904F900895CF92B6
:1042E000DF92EF92FF920F931F93CF93DF931F9272
:1042F000CDB7DEB76C017B018A01452B31F0AB01F4
:1043000060E070E0C801E5D78983B701C60157DDD9
:1043100081110DC00115110551F0B701C8018ADDE9
:10432000811105C061E070E0CE01019683DD0F9040
:10433000DF91CF911F910F91FF90EF90DF90CF9081
:104340000895CF92DF92EF92FF92CF93DF93CDB794
:10435000DEB728970FB6F894DEBF0FBECDBF6B0156
:10436000E12CF12CC982DA82EB82FC822D833E8320
:104370004F835887AE014F5F5F4F68E070E0AFDF5B
:1043800028960FB6F894DEBF0FBECDBFDF91CF9158
:10439000FF90EF90DF90CF9008950F931F93CF93EE
:1043A000DF93EC018B01AFDC90933D0D80933C0DCE
:1043B000009739F0A801BE0149DCEC01892B19F402
:1043C0000BC0C8E9D9E080913C0D90913D0DE7DC30
:1043D00010923D0D10923C0DCE01DF91CF911F91B7
:1043E0000F91089580913C0D90913D0DD5CC2F9269
:1043F0003F924F925F926F927F928F929F92AF9275
:10440000BF92CF92DF92EF92FF920F931F93CF93C1
:10441000DF93CDB7DEB769970FB6F894DEBF0FBE56
:10442000CDBF2091400D222309F426C25D8B4C8B19
:10443000688B798B8A8B9B8B9A01AB01BC01CE0177
:1044400001960E940D1310E038E0232E312C898153
:104450009A81181619060CF00AC21F861E861D8640
:104460001C8689819A81AC85BD85A817B9070CF097
:10447000F3C1EB81FC812E853F85E20FF31F208184
:1044800031813093370D2093360D8481958190933F
:10449000350D8093340D428153815093330D4093F9
:1044A000320D468157815093310D4093300D820F6C
:1044B000931F9C01990F440B550B2E8B3F8B488FFC
:1044C000598FC12CD12C76012E893F89488D598D69
:1044D000C216D306E406F50608F0A2C11F82609159
:1044E000360D7091370D8B01072E000C220B330B0C
:1044F000D701C6010496A11DB11D80179107A2071F
:10450000B30728F4E091320DF091330D0AC0E4E0D6
:10451000F0E0E61BF70BEC0DFD1D8091300D909146
:10452000310DE80FF91F4080512C612C712CD701FF
:10453000C6010596A11DB11D80179107A207B307FB
:1045400028F4E091320DF091330D0AC0E5E0F0E07F
:10455000E61BF70BEC0DFD1D8091300D9091310D98
:10456000E80FF91F8081582AD701C6010696A11DC0
:10457000B11D80179107A207B30728F4E091320D0F
:10458000F091330D0AC0E6E0F0E0E61BF70BEC0D0E
:10459000FD1D8091300D9091310DE80FF91F808144
:1045A000682AD701C6010796A11DB11D8017910782
:1045B000A207B30728F4E091320DF091330D0AC041
:1045C000E7E0F0E0E61BF70BEC0DFD1D8091300DF0
:1045D0009091310DE80FF91F8081782A460157012B
:1045E00048E0840E911CA11CB11C081519052A0570
:1045F0003B0508F4B4C0C016D106E206F30638F451
:104600008091320D9091330D8C0D9D1D09C0C60116
:10461000861B970B2091300D3091310D820F931F27
:1046200068E070E007DCE091360DF091370D9F01F6
:104630000F2E000C440B550BD301C201880D991DA0
:10464000AA1DBB1D281739074A075B07C8F0821649
:104650009306A406B50638F42091320D3091330D3F
:10466000C601089609C0C1018E1B9F0B8C0D9D1DB4
:104670002091300D3091310D820F931FB20199C0FE
:104680008601BF01685071096C197D098216930675
:10469000A406B50638F42091320D3091330DC601D1
:1046A000089609C0C1018E1B9F0B8C0D9D1D20918A
:1046B000300D3091310D820F931FBCDB8091360D90
:1046C0009091370DB101681B790B600F711F640D5C
:1046D000751D8091300D9091310DACDB8091360DC0
:1046E0009091370DAC0148505109FA01E01BF10BD4
:1046F000AC01092E000C660B770B84169506A606F6
:10470000B70638F42091320D3091330DC60108966A
:104710000AC09101281B390BC9018C0D9D1D2091E8
:10472000300D3091310D820F931FAF0160E070E0CA
:10473000D0D58F832091360D3091370DA101421BCA
:10474000530B9A01200F311F240D351D40E050E01E
:10475000682F8091300D9091310DA7D550C0C016B3
:10476000D106E206F306C8F46C197D098091320D7A
:104770009091330D8C0D9D1D5DDB8091360D9091D8
:10478000370DB101681B790B6C0D7D1D640D751D16
:104790008091300D9091310D0CC0C601861B970B96
:1047A0002091300D3091310DB201685F7F4F820F43
:1047B000931F40DB8091360D9091370DAC01092E8F
:1047C000000C660B770B84169506A606B70638F420
:1047D0002091320D3091330DC60108960AC0D101E7
:1047E000A81BB90BCD018C0D9D1D2091300D309172
:1047F000310D820F931FA20160E070E06AD58F83B4
:1048000061E070E0CE01079615DB182FB8E04B0E83
:10481000511C611C711CC40CD51CE61CF71C54CE29
:104820008C859D85880F991FED81FE81E80FF91F0A
:10483000488959896A897B89808191810E943F0ECC
:104840004C855D854F5F5F4F5D874C878E859F856B
:1048500008969F878E8705CE2C893D89488959897E
:104860006A897B89CE0101960E940D13F0CD112338
:1048700019F08C899D8902DB69960FB6F894DEBF2A
:104880000FBECDBFDF91CF911F910F91FF90EF90A1
:10489000DF90CF90BF90AF909F908F907F906F9060
:1048A0005F904F903F902F900895CF93DF93EC014E
:1048B000AC0160E070E0CB019ADDAE0161E070E038
:1048C00080E090E0DF91CF9192CDCF9380913C0D2D
:1048D00090913D0D1BDAC82F81110BC060E070E094
:1048E000CB010E94150961E070E080E090E00E9439
:1048F00015098C2FCF9108950F931F9389019A0169
:10490000AB01BC0180913C0D90913D0D49DA1F91A6
:104910000F9108953F924F925F926F927F928F9284
:104920009F92AF92BF92CF92DF92EF92FF920F933E
:104930001F93CF93DF93CDB7DEB767970FB6F89489
:10494000DEBF0FBECDBF6C017B015A018091400DCF
:10495000882331F08091400D882309F45FC30AC099
:1049600060E47DE080913C0D90913D0D1ADA81115B
:1049700055C3F0CF80913F0D1A821982882309F424
:104980006AC0E0E94E2EEFE55E2E66246394712C3A
:1049900000E010E098012A5D324FAE014F5F5F4F9B
:1049A00061E070E080913C0D90913D0DD0D9982E42
:1049B00081114DC089819A81080F191F01151105B8
:1049C00009F445C081E0481A51086108710839F4BA
:1049D00060914B0D70914C0D8DEE90E030C00A301F
:1049E000110589F549E050E060E070E086E29DE065
:1049F00074D460914B0D70914C0D8823F1F080912F
:104A00002E0D90E068177907D9F48EEE90E0D7D993
:104A100088E0E6E2FDE0DE01199601900D928A95AC
:104A2000E1F720914B0D30914C0D2F5F3F4F332715
:104A300030934C0D20934B0D0AC08FEE90E0BFD900
:104A40001A82198204C00A3011050CF4A3CF81E048
:104A500029813A8124C000E010E078E0672E712CB3
:104A600029E030E02C0F3D1F200F311FAE014F5FBA
:104A70005F4FB301601B710B80913C0D90913D0D18
:104A800066D9982E29813A81811108C0020F131F1F
:104A90000115110519F00830110514F381E0121603
:104AA00013060CF080E09110B6C2882309F4B6C258
:104AB00080913F0D811104C019861A861B861C86C1
:104AC00089859A85AB85BC858031910508F0A6C2A1
:104AD000FC018827EA56FF4F8F4F0C94F62FD60122
:104AE0001696ED91FC91179780819181A281B381F7
:104AF00089839A83AB83BC83AE014F5F5F4F64E0D1
:104B000070E085E190E07FC18D859E85D6D90097C4
:104B100031F42FEF3FEFA90161E070E00EC0FC011E
:104B200080809180A280B380A701C501B4010E945A
:104B3000B80DA501940160E070E08DE190E069C2DC
:104B40008D859E85BAD9009721F42FEF3FEFA901FB
:104B500010C0DC018D909D90AD90BD90AD01950190
:104B60008401B701C6010E945A0AA5019401882355
:104B700019F061E070E002C060E070E08BE190E06D
:104B800048C28D859E8599D9009721F42FEF3FEF7C
:104B9000A9010FC0FC0181909190A190B190BF013B
:104BA000A5019401C6010E945D0CA5019401882312
:104BB00019F061E070E002C060E070E08CE190E02C
:104BC00028C2D6011496ED91FC91159700811181B0
:104BD000F80182809380A080B18060E1462E512C44
:104BE000612C712C49825A826B827C8288E090E031
:104BF000A0E0B0E08D839E83AF83B8879E012F5ED7
:104C00003F4FAE014F5F5F4F68E070E080913C0D19
:104C100090913D0D7DD8882319F000E010E0BBC0D5
:104C200089899A890897C9F7D801ED90FC90B8E076
:104C3000EB0EF11CEE0CFF1CEE0CFF1CC7010E94DA
:104C40002C308C01892B49F349825A826B827C82F9
:104C5000C7010F2C000CAA0BBB0B8D839E83AF8367
:104C6000B8879E012F5E3F4FAE014F5F5F4F68E0F8
:104C700070E080913C0D90913D0D4AD881118BC020
:104C800089899A89089709F086C0D6011296ED9114
:104C9000FC9113974081518162817381D8014D93BA
:104CA0005D936D937C9313974481558166817781E1
:104CB00014964D935D936D937C9317974085518522
:104CC0006285738518964D935D936D937C931B97C6
:104CD00084859585A685B785F80184879587A687FD
:104CE000B787108A118A128A138A84E090E0A0E0C4
:104CF000B0E0848B958BA68BB78B80917F039091CE
:104D00008003A0E0B0E0808F918FA28FB38FC501A8
:104D10000B2C000CAA0BBB0B848F958FA68FB78F23
:104D2000F401D801909680E090E08A159B0554F438
:104D30004191519160E070E04D935D936D937D934F
:104D40000196F3CF9E012F5E3F4FA801B7018091DE
:104D50003C0D90913D0D0E94881E81111CC08989D7
:104D60009A898E159F05B9F4A70160E070E0C8012B
:104D7000B0D28B8B9E012F5E3F4FAE014D5E5F4FD9
:104D800061E070E080913C0D90913D0D0E94881E85
:104D900081E080933F0DC80167960FB6F894DEBF9F
:104DA0000FBECDBFDF91CF911F910F91FF90EF907C
:104DB000DF90CF90BF90AF909F908F907F906F903B
:104DC0005F904F903F900C94C1308D859E85AF854C
:104DD000B8890097A105B10521F481E080933E0DCB
:104DE0001DC16BD8009789F481E090E0A0E0B0E0AD
:104DF00089839A83AB83BC83AE014F5F5F4F64E0CE
:104E000070E082E190E06BDA09C1BC01C6010E944A
:104E1000680819821A821B821C82AE014F5F5F4FA5
:104E200064E070E082E190E05ADA8111F7C0D5CFFA
:104E3000D6011496ED91FC9115970190F081E02D2B
:104E4000008511858FEF89830115110509F472C062
:104E5000D8016D907C90A280B38020E030E060E0CB
:104E600070E080E090E0861597050CF5F801A281CE
:104E7000B381A20FB31F1296ED91FC911397EE0F21
:104E8000FF1FEA0DFB1D0190F081E02D16960D909D
:104E9000BC91A02DEA9FA001EB9F500DFA9F500DF1
:104EA0001124640F751F0196285F3F4FDCCF83E10B
:104EB00090E00E94DF1E8111B1C0C12CD12CE12CE9
:104EC000F12CE614F7047CF5D8011296ED91FC91D3
:104ED0001397EC0DFD1D80809180A281B381AA0FF4
:104EE000BB1FAA0DBB1D2D913C9186819781289FE8
:104EF0002001299F500C389F500C1124B201C4018D
:104F00000E941A1F382E920140E050E06981C401CE
:104F1000CCD18983B8E0CB0ED11C31107FC0EFEF2C
:104F2000EE1AFE0ACECF61E070E0CE0101960E943B
:104F30001A1F74C060E070E083E190E00E94DF1E01
:104F40006DC040E050E060E070E081E190E0C7D9E2
:104F5000811164C0812C912C5401C501B4010E94BF
:104F6000410A8091960A882321F0A701C501B40166
:104F70003EDAA701C501B4010E9441098A9489283B
:104F80008A288B2829F0812C912C54018394E5CF19
:104F90001092400D10923F0D10924C0D10924B0D3F
:104FA00080913C0D90913D0D0E94D71E37C081E04D
:104FB00090E09093980A8093970A40E050E060E078
:104FC00070E086E190E01FCF81E0D5018C9326C090
:104FD0008D859E850E945D1F009731F42FEF3FEF76
:104FE000A90161E070E013C0FC01208131814281A0
:104FF0005381CA01B9012C8B3D8B4E8B5F8B0E9474
:10500000180E2C893D894E895F8960E070E08EE141
:1050100090E097D903C0C7010E943E1F67960FB664
:10502000F894DEBF0FBECDBFDF91CF911F910F91DE
:10503000FF90EF90DF90CF90BF90AF909F908F90B8
:105040007F906F905F904F903F900895CF92DF9246
:10505000EF92FF92CF93DF93EC01C12CD12C76011C
:10506000C701B6010E94410AAE01C701B601BFD90E
:10507000AE01C701B6010E9441098091380D90919F
:10508000390D009731F00E94C1301092390D109205
:10509000380DCA94CD28CE28CF2829F0C12CD12C88
:1050A0007601C394DDCF80913F0D882359F040E015
:1050B00050E060E070E084E190E011D9F82E1092A9
:1050C0003F0D01C0F12C8091400D882341F01092DA
:1050D000400D81E090E09093800380937F03809166
:1050E0003C0D90913D0D0E94DA1E80913C0D9091F7
:1050F0003D0D0E94CF1E8F2DDF91CF91FF90EF903D
:10510000DF90CF900895CF93DF93EC01AC0160E086
:1051100070E0CB010E947E12AE0161E070E080E0A1
:1051200090E0DF91CF910C947E1260E070E0CB01B3
:105130000E94EA1261E070E080E090E00C94EA12D4
:10514000CF92DF92EF92FF920F931F93CF93DF9353
:10515000EC016A017B0100E010E098010E94680EFA
:1051600001E010E020E030E0B701A601CE010E948E
:10517000680EDF91CF911F910F91FF90EF90DF901C
:10518000CF90089568EE73E080E090E00E94AB1647
:1051900080E090E0089526E040E052EC61E070E0AD
:1051A00082EA9AE00E94841982EA9AE00E94CE186C
:1051B000892B29F082EA9AE00E94E818F5CF80E076
:1051C00090E00895AF92BF92CF92DF92EF92FF925C
:1051D0000F931F93CF93DF931F921F92CDB7DEB72C
:1051E0007A018901F9011182108282EA9AE06983C9
:1051F0007A830E94CE1869817A81892B99F15B01AB
:10520000DD24D39485E6C82E80914D0D811124C0F4
:1052100082EA9AE00E94E81885369105A9F7D092B3
:105220004D0DF501C1925F01F801808191810196D8
:1052300091838083E9CF82EA9AE00E94E8188F3F49
:10524000FFEF9F0749F0F50181935F01F80180812D
:105250009181019691838083F801808191818E15DF
:105260009F0548F380E090E00F900F90DF91CF9181
:105270001F910F91FF90EF90DF90CF90BF90AF9074
:1052800008950F931F93CF93DF93EA01890182EA78
:105290009AE00E94631CF801D183C08380E090E013
:1052A000DF91CF911F910F910895DC01A40FB51FDD
:1052B000240F351FAD01481B590B4217530738F413
:1052C000ED91E627F0E0ED5AFD4F6491F3CF862F84
:1052D00008959A01AB016FEFE8CFCF93FC01E60F81
:1052E000F71FE40FF51FC081F4DF91E0C81390E0D1
:1052F000892FCF91089580917E0D90E020917F0DB0
:10530000821B9109089590917F0D80917E0D9817D1
:1053100050F4E92FF0E0E058F24F208130E09F5F39
:1053200090937F0D02C02FEF3FEFC9010895E091E8
:105330007F0D80917E0DE81730F4F0E0E058F24FD9
:10534000808190E008958FEF9FEF08950895CF92A8
:10535000DF92EF92FF920F931F93CF93DF937C0125
:10536000262F972F8A0180915A0D882391F0C62FFE
:10537000D72F6E01C40ED51ECC15DD0569F06991DD
:10538000D701ED91FC910190F081E02DC7011995B5
:10539000F3CF642F822F8ED1C801DF91CF911F915F
:1053A0000F91FF90EF90DF90CF900895CF93DF9310
:1053B0001F92CDB7DEB7698320915A0D2223D1F019
:1053C00020915B0D203240F021E030E0FC0133837E
:1053D000228380E090E014C080915C0DE82FF0E023
:1053E000E35AF24F998190838F5F80935C0D809395
:1053F0005B0D04C061E0CE0101965CD181E090E0DC
:105400000F90DF91CF910895FC011382128288EEF4
:1054100093E0A0E0B0E084839583A683B78387ED13
:1054200099E091838083089510927F0D10927E0DF4
:1054300010925C0D10925B0D81C081E080935A0D3B
:1054400060937D0D10925C0D10925B0D08950F938B
:10545000062F21E040915B0D6DE57DE080917D0D93
:10546000D3D010925C0D10925B0D10925A0D0F91DB
:1054700008954F925F926F927F92AF92BF92CF92B8
:10548000EF92FF920F931F93CF93DF935C01F62E61
:10549000D42F28013901EE2011F1CFDFCE2DC430F9
:1054A00008F0C3E0C150C0F0D501ED91FC91B8E027
:1054B000CB9FC0011124A301920104C056954795CA
:1054C000379527958A95D2F7CA01B9010190F081E5
:1054D000E02DC5011995E6CF60E0C501B8DF4D2F7D
:1054E000D13208F040E22C2D60E87DE08F2D44D0D1
:1054F00010927F0D80937E0DDF91CF911F910F91C0
:10550000FF90EF90CF90BF90AF907F906F905F90A3
:105510004F900895CF92EF920F931F93C22EE12CDC
:1055200000E010E09801A5DF1F910F91EF90CF9060
:10553000089521E0EFCF8EE49DE066CF10920D0E2E
:1055400081E080930B0E10920A0E61E084E10E94CC
:105550009F1861E085E10E949F18E9EBF0E08081EF
:105560008E7F808380818D7F808388E48093B800E4
:1055700085E48093BC000895413208F043C09091C7
:105580000D0E9111FCCF91E090930D0E20930B0E18
:105590002FEF2093A00D1092E50D240F2093E40D22
:1055A00090930C0E90910C0E880F892B80930C0E0B
:1055B00080910A0E813061F410920A0E80910C0ED7
:1055C0008093BB008091BC0083FDF8CF85EC01C0C7
:1055D00085EE8093BC0080910D0E8130E1F38091C7
:1055E000E50D841710F44091E50D26EE3DE0FB013A
:1055F000D9018A2F821B841718F48D918193F9CFDA
:10560000842F089580E008950F93413208F04AC036
:1056100090910D0E9111FCCF32E030930D0E00935E
:105620000B0E3FEF3093A00D1092E50D4093E40D6B
:10563000FB0166EE7DE0DB013A2F361B341718F4D0
:1056400031913D93F9CF10920C0E30910C0E880FD2
:10565000832B80930C0E80910A0E813061F410929E
:105660000A0E80910C0E8093BB008091BC0083FDDC
:10567000F8CF85EC01C085EE8093BC00222321F099
:1056800080910D0E8230D1F38091A00D8F3F79F083
:105690008091A00D803241F08091A00D803331F0D7
:1056A00094E005C091E003C092E001C093E0892F2F
:1056B0000F9108954091C20D262F30E0240F311D27
:1056C00021323105DCF420910D0E2430C9F4FC01A7
:1056D00080E090E0861758F43091C20D2191DC01F2
:1056E000AC53B24FA30FB11D2C930196F3CF809111
:1056F000C20D680F6093C20D80E0089581E00895A7
:1057000082E0089585ED8093BC008091BC0084FD0B
:10571000FCCF10920D0E089585EC8093BC00109282
:105720000D0E08951F920F920FB60F9211240BB613
:105730000F922F933F934F935F936F937F938F932A
:105740009F93AF93BF93EF93FF938091B900887FAE
:10575000803609F49DC070F5883209F45CC090F47D
:10576000803109F455C038F4882309F4F3C0883037
:1057700009F44EC0F2C0883109F44DC0803209F4FA
:105780005EC0EBC0803409F469C050F4803309F482
:1057900056C0883309F0E1C08093A00DBDDFDDC0A5
:1057A000803509F44FC0883509F45DC0883409F0AC
:1057B000D4C0D2C0883909F4C3C0A8F4883709F42A
:1057C00067C038F4883609F463C0803709F460C0D4
:1057D000C4C0883809F4B4C0803909F45FC0803887
:1057E00009F0BBC05BC0803B09F482C038F4803A4A
:1057F00009F466C0883A09F47BC0AFC0803C09F464
:10580000A3C0883C09F4A0C0883B09F486C0A5C0A9
:1058100080910C0E10C09091E50D8091E40D9817C9
:1058200070F5E091E50D81E08E0F8093E50DF0E0DD
:10583000EA51F24F80818093BB0085EC82C0809357
:10584000A00D8AC0E091E50D81E08E0F8093E50DFB
:105850008091BB00F0E0EA51F24F80839091E50D1A
:105860008091E40D6AC0E091E50D81E08E0F809398
:10587000E50D8091BB00F0E0EA51F24F808380910A
:105880000B0E811169C081E080930A0E84EA5DC02D
:1058900083E080930D0E1092A10DCFCF8091A10DCA
:1058A000803208F04DC0E091A10D81E08E0F809311
:1058B000A10D8091BB00F0E0EE55F24F8083BDCF8B
:1058C0002BDF8091A10D803230F4E091A10DF0E04A
:1058D000EE55F24F10826091A10D70E0E091060E3E
:1058E000F091070E82EA9DE019951092A10D35C046
:1058F00084E080930D0E1092C30D1092C20DE091C2
:10590000080EF091090E19958091C20D811105C004
:1059100081E08093C20D1092C40DE091C30D81E02F
:105920008E0F8093C30DF0E0EC53F24F8081809393
:10593000BB009091C30D8091C20D981708F47DCFE4
:1059400085E88093BC0009C085EC8093BC00109270
:105950000D0E03C01092A00DD5DEFF91EF91BF9107
:10596000AF919F918F917F916F915F914F913F91F7
:105970002F910F900BBE0F900FBE0F901F90189598
:10598000CF93DF931F921F92CDB7DEB78091110E98
:1059900091E0980F9093110E882349F021E030E0B8
:1059A0003093140E2093130E8093110E3CC0CE0141
:1059B00001960E94A00278940E94AB02F894809114
:1059C000110E81508093110E8A81882389F0809175
:1059D000100E91E0980F9093100E882349F021E06B
:1059E00030E03093140E2093130E8093100E1BC0E2
:1059F0008091100E8823A9F08091120E811113C09E
:105A000081E08093120E78940E94DD05F8948091D5
:105A1000100E81508093100E8091120E8150809351
:105A2000120E0E948E140F900F90DF91CF91089567
:105A3000DF92EF92FF920F931F93CF93DF931F920A
:105A40001F92CDB7DEB7FF24F394FA820E94E416CA
:105A50000E94B11D0091330410913404F8011182A9
:105A6000108260E070E080E090E00E9497140E9455
:105A70001A067894C801CE960E94961482E090E0AF
:105A80000E9492141982AE014F5F5F4F62E070E096
:105A9000F801828193810E943C148981882321F03E
:105AA000F801EE5BFF4FF0820E949D14F8940E9473
:105AB000051EF80180819181892B29F481E0EE5B3C
:105AC000FF4F9081911180E08A83789478947801D7
:105AD000F2E4EF0EF11CDD24D3948A81882379F15E
:105AE0001982AE014F5F5F4F62E070E0F801828182
:105AF00093810E9478148981882311F0F701D08264
:105B0000F80180819181892B39F481E0F70190813E
:105B1000911103C080E001C081E080930E0E90914E
:105B20000E0E81E0911180E08A838A81882319F02A
:105B30000E94241E02C080E090E08A83CECF82E0E3
:105B400090E00E9494140E940607F89480E090E090
:105B50000F900F90DF91CF911F910F91FF90EF90D9
:105B6000DF9008955058BB27AA270ED069C15AD19B
:105B700030F05FD120F031F49F3F11F41EF44FC19B
:105B80000EF4E095E7FB37C1E92F6BD180F3BA172C
:105B9000620773078407950718F071F49EF583C1B7
:105BA0000EF4E0950B2EBA2FA02D0B01B901900138
:105BB0000C01CA01A0011124FF27591B99F0593F7C
:105BC00050F4503E68F11A16F040A22F232F342FC4
:105BD0004427585FF3CF469537952795A795F04012
:105BE0005395C9F77EF41F16BA0B620B730B840B27
:105BF000BAF09150A1F0FF0FBB1F661F771F881FDF
:105C0000C2F70EC0BA0F621F731F841F48F4879536
:105C100077956795B795F7959E3F08F0B3CF939525
:105C2000880F08F09927EE0F979587950895BFD0B4
:105C300008F481E0089504D06894B11135C1089545
:105C400018D188F09F5790F0B92F9927B751A0F03D
:105C5000D1F0660F771F881F991F1AF0BA95C9F700
:105C600012C0B13081F01FD1B1E008951CC1672F7F
:105C7000782F8827B85F39F0B93FCCF386957795B0
:105C80006795B395D9F73EF4909580957095619599
:105C90007F4F8F4F9F4F0895E89409C097FB3EF4C4
:105CA00090958095709561957F4F8F4F9F4F992369
:105CB000A9F0F92F96E9BB279395F69587957795E7
:105CC0006795B795F111F8CFFAF4BB0F11F460FFA7
:105CD0001BC06F5F7F4F8F4F9F4F16C0882311F0FF
:105CE00096E911C0772321F09EE8872F762F05C013
:105CF000662371F096E8862F70E060E02AF09A95AE
:105D0000660F771F881FDAF7880F9695879597F9A2
:105D1000089588D018F011F08CD038F480C0C4C039
:105D2000E92F9FD0B0F35523C9F3E7FB6217730740
:105D300084079507A8F199F3E92FFF2788232AF014
:105D40003197660F771F881FDAF7952F5527442361
:105D500032F091505040220F331F441FD2F7BB271F
:105D6000E91BF50B621B730B840BB109C1F222F422
:105D7000620F731F841FB11D31972AF0660F771FC2
:105D8000881FBB1FEFCF915050405AF041F088233D
:105D900032F0660F771F881F91505040C1F79395DE
:105DA00030C08695779567959F5FD9F7F8CF990FA3
:105DB0000008550FAA0BE0E8FEEF16161706E807D5
:105DC000F907C0F012161306E407F50798F0621BF6
:105DD000730B840B950B39F40A2661F0232B242BCB
:105DE000252B21F408950A2609F4A140A6958FEFEA
:105DF000811D811D089597F99F6780E870E060E03C
:105E000008959F3F31F0915020F4879577956795DD
:105E1000B795880F911D9695879597F908959FEFEF
:105E200080EC089500240A94161617061806090631
:105E3000089500240A941216130614060506089500
:105E4000092E0394000C11F4882352F0BB0F40F488
:105E5000BF2B11F460FF04C06F5F7F4F8F4F9F4FC8
:105E6000089557FD9058440F551F59F05F3F71F04A
:105E70004795880F97FB991F61F09F3F79F08795B1
:105E80000895121613061406551FF2CF4695F1DF3A
:105E900008C0161617061806991FF1CF86957105CA
:105EA000610508940895E894BB2766277727CB01FE
:105EB00097F908957CDF08F48FEF08950BD0C0CFD9
:105EC000B1DF28F0B6DF18F0952309F094CFA7CF03
:105ED0001124EACFC6DFA0F3959FD1F3950F50E0D0
:105EE000551F629FF001729FBB27F00DB11D639F8C
:105EF000AA27F00DB11DAA1F649F6627B00DA11D32
:105F0000661F829F2227B00DA11D621F739FB00DD7
:105F1000A11D621F839FA00D611D221F749F332747
:105F2000A00D611D231F849F600D211D822F762FE0
:105F30006A2F11249F5750408AF0E1F088234AF0DD
:105F4000EE0FFF1FBB1F661F771F881F9150504029
:105F5000A9F79E3F510570F04ECFA6CF5F3FECF3FF
:105F6000983EDCF3869577956795B795F795E79515
:105F70009F5FC1F7FE2B880F911D9695879597F926
:105F8000089597FB072E16F4009406D077FD08D0ED
:105F900035D007FC05D03EF4909581959F4F08952C
:105FA000709561957F4F0895A1E21A2EAA1BBB1B25
:105FB000FD010DC0AA1FBB1FEE1FFF1FA217B307D5
:105FC000E407F50720F0A21BB30BE40BF50B661FEB
:105FD000771F881F991F1A9469F7609570958095AF
:105FE00090959B01AC01BD01CF010895EE0FFF1FFD
:105FF000881F8BBF0790F691E02D1994AA1BBB1B3D
:1060000051E107C0AA1FBB1FA617B70710F0A61BB8
:10601000B70B881F991F5A95A9F780959095BC01D9
:10602000CD0108950F931F93CF93DF93869F800137
:10603000879F100D969F100D1124C8010DD0EC0103
:10604000009721F0A80160E070E03CD1CE01DF9123
:10605000CF911F910F910895CF93DF9382309105D7
:1060600010F482E090E0E091990EF0919A0E20E019
:1060700030E0C0E0D0E0309711F140815181481705
:106080005907C0F04817590761F48281938120971E
:1060900019F09B838A832BC090939A0E8093990E5C
:1060A00026C02115310519F04217530718F49A013B
:1060B000BE01DF01EF010280F381E02DDCCF21156D
:1060C000310509F1281B390B2430310590F4129663
:1060D0008D919C9113976115710521F0FB019383BC
:1060E000828304C090939A0E8093990EFD0132969C
:1060F00044C0FD01E20FF31F8193919322503109B7
:106100002D933C933AC02091970E3091980E232BFB
:1061100041F420910202309103023093980E2093B3
:10612000970E20910002309101022115310541F4B2
:106130002DB73EB74091040250910502241B350B48
:10614000E091970EF091980EE217F307A0F42E1B42
:106150003F0B2817390778F0AC014E5F5F4F2417CB
:10616000350748F04E0F5F1F5093980E4093970EDF
:106170008193919302C0E0E0F0E0CF01DF91CF91F5
:1061800008950F931F93CF93DF93009709F48CC06A
:10619000FC013297138212820091990E10919A0E8F
:1061A0000115110581F420813181820F931F209107
:1061B000970E3091980E2817390779F5F093980EBD
:1061C000E093970E71C0D80140E050E0AE17BF07D2
:1061D00050F412962D913C911397AD012115310584
:1061E00009F1D901F3CF9D01DA0133832283608164
:1061F0007181860F971F8217930769F4EC0128813C
:106200003981260F371F2E5F3F4F318320838A81CC
:106210009B8193838283452B29F4F0939A0EE0931C
:10622000990E42C01396FC93EE931297ED0149919B
:1062300059919E01240F351FE217F30771F48081F5
:106240009181840F951F029611969C938E93828163
:10625000938113969C938E931297E0E0F0E0D8011F
:1062600012968D919C911397009719F0F8018C016B
:10627000F6CF8D919C9198012E5F3F4F820F931F17
:106280002091970E3091980E2817390769F43097AE
:1062900029F410929A0E1092990E02C01382128263
:1062A0001093980E0093970EDF91CF911F910F914D
:1062B0000895FB01DC0102C001900D924150504055
:1062C000D8F70895DC0101C06D9341505040E0F7CC
:1062D0000895FB01DC018D91019080190110D9F323
:0862E000990B0895F894FFCF1B
:1062E80000009B0E80000100000006000E021D0346
:1062F800000000000F0059030700000001005D03C3
:106308000300000001005E030000000006007603A1
:106318000400000002007A030300000003000500E7
:106328004202740E000000000300800E000000000E
:106338000200880E0B0000000500920E0F000000FE
:106348000100960E030000000100A603AD03B70389
:10635800B603BF03BE03C803C703D003DA03E503CC
:10636800EB03F503FE03BF0312040400040001005D
:106378000100020002000400040001000400020001
:10638800020004000800020004002F090300E607C9
:106398000000C40701003F0813009C070300F7072B
:1063A80002006C075207280760071C074A073504D4
:1063B800F2E457F6181243D027E2C84F60DACF4705
:1063C8000000000000780E740E7C0E490329032D8E
:1063D80003760378036203720366036A0355034D69
:1063E8000351035E0359035D036E037C037B037A49
:1063F80003800E960E700E1D0321032503AC7189D0
:106408003F95833542943DAB4000000000000000FA
:1064180040000004420000C2420000B2420000A056
:10642800400000E0400000484200007F430000C4F4
:10643800420000C4420000803F0300000006000044
:10644800F042000000000AD7233C000000000000D2
:10645800000000000000B6F96740000100010101DA
:1064680000E314E314E314E314E314E314E314E380
:1064780014FF53696D756C6174696F6E2066696E7F
:106488006973686564007265616C5F540072656168
:106498006C33325F540075696E74385F54007569E7
:1064A8006E7431365F540075696E7433325F540010
:1064B800626F6F6C65616E5F540066636E5F6361E7
:1064C8006C6C5F5400696E745F5400706F696E7411
:1064D80065725F5400616374696F6E5F540074691C
:1064E8006D65725F75696E7433325F706169725F72
:1064F8005400636F6465727461726765745F61727A
:106508006475696E6F626173655F696E7465725FE9
:106518005400012D0E666C6F617400646F75626CB7
:106528006500696E7400756E7369676E6564206CCA
:106538006F6E6700756E7369676E65642063686166
:106548007200420049005000746573742F4F7574CF
:106558003100746573742F446973637265746520C0
:1065680056617279696E672032444F46205049441B
:10657800322F496E7465677261746F720074657347
:10658800742F5465737465332F4C696D6974656431
:10659800436F756E7465722F4F75747075740074DF
:1065A8006573742F446973637265746520566172EC
:1065B80079696E672032444F46205049443200556D
:1065C8007070657253617475726174696F6E4C692D
:1065D8006D6974004C6F776572536174757261747C
:1065E800696F6E4C696D697400746573742F5465B6
:1065F80073746533004F757456616C7565730074F8
:106608006573742F42696173310042696173007464
:106618006573742F4761696E3300746573742F5204
:10662800617465205472616E736974696F6E004994
:106638006E697469616C436F6E646974696F6E002A
:10664800746573742F446973637265746520566149
:106658007279696E672032444F4620504944322F80
:10666800436F6E7374616E740056616C7565006774
:1066780061696E76616C00746573742F4C696D691D
:106688007465732F436F6D7061726520546F20437A
:106698006F6E7374616E7400636F6E7374007465EB
:1066A80073742F4C696D697465732F436F6D7061D6
:1066B800726520546F20436F6E7374616E7431007D
:1066C800746573742F4C696D697465732F436F6DAE
:1066D8007061726520546F20436F6E7374616E74BD
:1066E8003200746573742F4C696D697465732F4338
:1066F8006F6E7374616E7400746573742F50574DA8
:106708002F50574D0070696E4E756D62657200743A
:106718006573742F5465737465332F4C696D697490
:106728006564436F756E7465720075706C696D6928
:106738007400746573742F4469736372657465209B
:1067480056617279696E672032444F462050494439
:10675800322F436C616D70696E672063697263756F
:1067680069742F5A65726F4761696E007465737436
:106778002F5465737465332F4C696D697465644370
:106788006F756E7465722F496E6372656D656E7490
:10679800205265616C20576F726C642F466978507F
:1067A8007420436F6E7374616E7400746573742F14
:1067B8005465737465332F4C696D69746564436FF0
:1067C800756E7465722F5772617020546F205A6508
:1067D800726F2F436F6E7374616E7400506F735FC6
:1067E8005265616C00496E00746573742F4C696D55
:1067F800697465732F537769746368003A073E07B5
:10680800000046073E0701000000000002000000EB
:106818000042073E07000010EF010AD7233C0000A2
:1068280000000000803F0000A040010001000100BE
:106838000700000000000200000100020002000042
:106848000000000000000000000000003B04A60358
:1068580000000000040000004204BF030000000024
:10686800020004004604C7030000000004000700FB
:106878005404B6030000000001000300190062047C
:106888000000000000001A0064040000000000007E
:106898001B0066040000000000000000000000006B
:1068A80000000000180000006804D2090100000080
:1068B80000000000000000000000000000000000D0
:1068C80000000000000000000000000000000000C0
:1068D800000000000000001600FFFF7204D209D279
:1068E8000900000000000000000000FFFF00001782
:1068F80000FFFF9D04D209D2090000030000000038
:10690800000100FFFF00000000FFFF000000000082
:106918000000000000000000000000FFFF0000036E
:1069280000BF04DF040000000000000400BF04F4FE
:10693800040000000000000500090515050000011D
:1069480000000006001F052A0501000000000007DE
:10695800002F05870601000000010008003A054FD6
:10696800050000000000000900600589050000001E
:106978000000000A0072048F050000000000000BF0
:106988000072044F050000000000000C009705B8D5
:10699800050000000000000D00BE05B8050000005D
:1069A8000000000E00E005B8050000000000000F20
:1069B80000020689050000000000001000180625E6
:1069C8000602000000000011002F064A060300001E
:1069D80000000012005206870600000000000013A5
:1069E800009D044F0503000000000014008C068978
:1069F800050300000000001500CB06890503000010
:106A0800000000000000000000000000000000007E
:106A18000000002F05FC0600000000000000000038
:106A2800010000003A050507000000000000000012
:106A380000020000000807D2090000000000000062
:106A4800000000000000000000000000000000003E
:106A5800000000000000003E19631CCE18E818DA98
:106A6800181D1900000000191C2D77002D69676E8C
:106A78006F72652D61726700436F756C64206E6F6D
:106A880074206372656174652065787465726E61DF
:106A98006C206D6F64652075736572206461746124
:106AA8002E20204F7574206F66206D656D6F72798A
:106AB8002E0A0000000000D629A7297B29832997E0
:046AC80029A62900D2
:00000001FF
